{
	"contracts/nft.sol": {
		"erc721": {
			"abi": [
				{
					"inputs": [
						{
							"internalType": "string",
							"name": "_name",
							"type": "string"
						},
						{
							"internalType": "string",
							"name": "_symbol",
							"type": "string"
						}
					],
					"stateMutability": "nonpayable",
					"type": "constructor"
				},
				{
					"anonymous": false,
					"inputs": [
						{
							"indexed": true,
							"internalType": "address",
							"name": "owner",
							"type": "address"
						},
						{
							"indexed": true,
							"internalType": "address",
							"name": "approved",
							"type": "address"
						},
						{
							"indexed": true,
							"internalType": "uint256",
							"name": "tokenId",
							"type": "uint256"
						}
					],
					"name": "Approval",
					"type": "event"
				},
				{
					"anonymous": false,
					"inputs": [
						{
							"indexed": true,
							"internalType": "address",
							"name": "owner",
							"type": "address"
						},
						{
							"indexed": true,
							"internalType": "address",
							"name": "operator",
							"type": "address"
						},
						{
							"indexed": false,
							"internalType": "bool",
							"name": "approved",
							"type": "bool"
						}
					],
					"name": "ApprovalForAll",
					"type": "event"
				},
				{
					"anonymous": false,
					"inputs": [
						{
							"indexed": true,
							"internalType": "address",
							"name": "from",
							"type": "address"
						},
						{
							"indexed": true,
							"internalType": "address",
							"name": "to",
							"type": "address"
						},
						{
							"indexed": true,
							"internalType": "uint256",
							"name": "tokenId",
							"type": "uint256"
						}
					],
					"name": "Transfer",
					"type": "event"
				},
				{
					"inputs": [
						{
							"internalType": "address",
							"name": "to",
							"type": "address"
						},
						{
							"internalType": "uint256",
							"name": "tokenId",
							"type": "uint256"
						}
					],
					"name": "approve",
					"outputs": [],
					"stateMutability": "nonpayable",
					"type": "function"
				},
				{
					"inputs": [
						{
							"internalType": "address",
							"name": "owner",
							"type": "address"
						}
					],
					"name": "balanceOf",
					"outputs": [
						{
							"internalType": "uint256",
							"name": "",
							"type": "uint256"
						}
					],
					"stateMutability": "view",
					"type": "function"
				},
				{
					"inputs": [
						{
							"internalType": "uint256",
							"name": "tokenId",
							"type": "uint256"
						}
					],
					"name": "getApproved",
					"outputs": [
						{
							"internalType": "address",
							"name": "",
							"type": "address"
						}
					],
					"stateMutability": "view",
					"type": "function"
				},
				{
					"inputs": [
						{
							"internalType": "address",
							"name": "owner",
							"type": "address"
						},
						{
							"internalType": "address",
							"name": "operator",
							"type": "address"
						}
					],
					"name": "isApprovedForAll",
					"outputs": [
						{
							"internalType": "bool",
							"name": "",
							"type": "bool"
						}
					],
					"stateMutability": "view",
					"type": "function"
				},
				{
					"inputs": [],
					"name": "name",
					"outputs": [
						{
							"internalType": "string",
							"name": "",
							"type": "string"
						}
					],
					"stateMutability": "view",
					"type": "function"
				},
				{
					"inputs": [
						{
							"internalType": "uint256",
							"name": "tokenId",
							"type": "uint256"
						}
					],
					"name": "ownerOf",
					"outputs": [
						{
							"internalType": "address",
							"name": "",
							"type": "address"
						}
					],
					"stateMutability": "view",
					"type": "function"
				},
				{
					"inputs": [
						{
							"internalType": "address",
							"name": "from",
							"type": "address"
						},
						{
							"internalType": "address",
							"name": "to",
							"type": "address"
						},
						{
							"internalType": "uint256",
							"name": "tokenId",
							"type": "uint256"
						}
					],
					"name": "safeTransferFrom",
					"outputs": [],
					"stateMutability": "nonpayable",
					"type": "function"
				},
				{
					"inputs": [
						{
							"internalType": "address",
							"name": "from",
							"type": "address"
						},
						{
							"internalType": "address",
							"name": "to",
							"type": "address"
						},
						{
							"internalType": "uint256",
							"name": "tokenId",
							"type": "uint256"
						},
						{
							"internalType": "bytes",
							"name": "_data",
							"type": "bytes"
						}
					],
					"name": "safeTransferFrom",
					"outputs": [],
					"stateMutability": "nonpayable",
					"type": "function"
				},
				{
					"inputs": [
						{
							"internalType": "address",
							"name": "_account",
							"type": "address"
						}
					],
					"name": "sendNFT",
					"outputs": [],
					"stateMutability": "nonpayable",
					"type": "function"
				},
				{
					"inputs": [
						{
							"internalType": "address",
							"name": "operator",
							"type": "address"
						},
						{
							"internalType": "bool",
							"name": "approved",
							"type": "bool"
						}
					],
					"name": "setApprovalForAll",
					"outputs": [],
					"stateMutability": "nonpayable",
					"type": "function"
				},
				{
					"inputs": [
						{
							"internalType": "bytes4",
							"name": "interfaceId",
							"type": "bytes4"
						}
					],
					"name": "supportsInterface",
					"outputs": [
						{
							"internalType": "bool",
							"name": "",
							"type": "bool"
						}
					],
					"stateMutability": "view",
					"type": "function"
				},
				{
					"inputs": [],
					"name": "symbol",
					"outputs": [
						{
							"internalType": "string",
							"name": "",
							"type": "string"
						}
					],
					"stateMutability": "view",
					"type": "function"
				},
				{
					"inputs": [
						{
							"internalType": "uint256",
							"name": "tokenId",
							"type": "uint256"
						}
					],
					"name": "tokenURI",
					"outputs": [
						{
							"internalType": "string",
							"name": "",
							"type": "string"
						}
					],
					"stateMutability": "view",
					"type": "function"
				},
				{
					"inputs": [
						{
							"internalType": "address",
							"name": "from",
							"type": "address"
						},
						{
							"internalType": "address",
							"name": "to",
							"type": "address"
						},
						{
							"internalType": "uint256",
							"name": "tokenId",
							"type": "uint256"
						}
					],
					"name": "transferFrom",
					"outputs": [],
					"stateMutability": "nonpayable",
					"type": "function"
				}
			],
			"devdoc": {
				"kind": "dev",
				"methods": {
					"approve(address,uint256)": {
						"details": "See {IERC721-approve}."
					},
					"balanceOf(address)": {
						"details": "See {IERC721-balanceOf}."
					},
					"getApproved(uint256)": {
						"details": "See {IERC721-getApproved}."
					},
					"isApprovedForAll(address,address)": {
						"details": "See {IERC721-isApprovedForAll}."
					},
					"name()": {
						"details": "See {IERC721Metadata-name}."
					},
					"ownerOf(uint256)": {
						"details": "See {IERC721-ownerOf}."
					},
					"safeTransferFrom(address,address,uint256)": {
						"details": "See {IERC721-safeTransferFrom}."
					},
					"safeTransferFrom(address,address,uint256,bytes)": {
						"details": "See {IERC721-safeTransferFrom}."
					},
					"setApprovalForAll(address,bool)": {
						"details": "See {IERC721-setApprovalForAll}."
					},
					"supportsInterface(bytes4)": {
						"details": "See {IERC165-supportsInterface}."
					},
					"symbol()": {
						"details": "See {IERC721Metadata-symbol}."
					},
					"tokenURI(uint256)": {
						"details": "See {IERC721Metadata-tokenURI}."
					},
					"transferFrom(address,address,uint256)": {
						"details": "See {IERC721-transferFrom}."
					}
				},
				"version": 1
			},
			"evm": {
				"assembly": "    /* \"contracts/nft.sol\":381:876  contract erc721 is ERC721{\r... */\n  mstore(0x40, 0x80)\n    /* \"contracts/nft.sol\":582:661  constructor (string memory _name, string memory _symbol)ERC721(_name,_symbol){} */\n  callvalue\n  dup1\n  iszero\n  tag_1\n  jumpi\n  0x00\n  dup1\n  revert\ntag_1:\n  pop\n  mload(0x40)\n  sub(codesize, bytecodeSize)\n  dup1\n  bytecodeSize\n  dup4\n  codecopy\n  dup2\n  dup2\n  add\n  0x40\n  mstore\n  dup2\n  add\n  swap1\n  tag_2\n  swap2\n  swap1\n  tag_3\n  jump\t// in\ntag_2:\n    /* \"contracts/nft.sol\":645:650  _name */\n  dup2\n    /* \"contracts/nft.sol\":651:658  _symbol */\n  dup2\n    /* \"@openzeppelin/contracts@4.5.0/token/ERC721/ERC721.sol\":1464:1469  name_ */\n  dup2\n    /* \"@openzeppelin/contracts@4.5.0/token/ERC721/ERC721.sol\":1456:1461  _name */\n  0x00\n    /* \"@openzeppelin/contracts@4.5.0/token/ERC721/ERC721.sol\":1456:1469  _name = name_ */\n  swap1\n  dup1\n  mload\n  swap1\n  0x20\n  add\n  swap1\n  tag_7\n  swap3\n  swap2\n  swap1\n  tag_8\n  jump\t// in\ntag_7:\n  pop\n    /* \"@openzeppelin/contracts@4.5.0/token/ERC721/ERC721.sol\":1489:1496  symbol_ */\n  dup1\n    /* \"@openzeppelin/contracts@4.5.0/token/ERC721/ERC721.sol\":1479:1486  _symbol */\n  0x01\n    /* \"@openzeppelin/contracts@4.5.0/token/ERC721/ERC721.sol\":1479:1496  _symbol = symbol_ */\n  swap1\n  dup1\n  mload\n  swap1\n  0x20\n  add\n  swap1\n  tag_9\n  swap3\n  swap2\n  swap1\n  tag_8\n  jump\t// in\ntag_9:\n  pop\n    /* \"@openzeppelin/contracts@4.5.0/token/ERC721/ERC721.sol\":1390:1503  constructor(string memory name_, string memory symbol_) {... */\n  pop\n  pop\n    /* \"contracts/nft.sol\":582:661  constructor (string memory _name, string memory _symbol)ERC721(_name,_symbol){} */\n  pop\n  pop\n    /* \"contracts/nft.sol\":381:876  contract erc721 is ERC721{\r... */\n  jump(tag_11)\ntag_8:\n  dup3\n  dup1\n  sload\n  tag_12\n  swap1\n  tag_13\n  jump\t// in\ntag_12:\n  swap1\n  0x00\n  mstore\n  keccak256(0x00, 0x20)\n  swap1\n  0x1f\n  add\n  0x20\n  swap1\n  div\n  dup2\n  add\n  swap3\n  dup3\n  tag_15\n  jumpi\n  0x00\n  dup6\n  sstore\n  jump(tag_14)\ntag_15:\n  dup3\n  0x1f\n  lt\n  tag_16\n  jumpi\n  dup1\n  mload\n  not(0xff)\n  and\n  dup4\n  dup1\n  add\n  or\n  dup6\n  sstore\n  jump(tag_14)\ntag_16:\n  dup3\n  dup1\n  add\n  0x01\n  add\n  dup6\n  sstore\n  dup3\n  iszero\n  tag_14\n  jumpi\n  swap2\n  dup3\n  add\ntag_17:\n  dup3\n  dup2\n  gt\n  iszero\n  tag_18\n  jumpi\n  dup3\n  mload\n  dup3\n  sstore\n  swap2\n  0x20\n  add\n  swap2\n  swap1\n  0x01\n  add\n  swap1\n  jump(tag_17)\ntag_18:\ntag_14:\n  pop\n  swap1\n  pop\n  tag_19\n  swap2\n  swap1\n  tag_20\n  jump\t// in\ntag_19:\n  pop\n  swap1\n  jump\t// out\ntag_20:\ntag_21:\n  dup1\n  dup3\n  gt\n  iszero\n  tag_22\n  jumpi\n  0x00\n  dup2\n  0x00\n  swap1\n  sstore\n  pop\n  0x01\n  add\n  jump(tag_21)\ntag_22:\n  pop\n  swap1\n  jump\t// out\n    /* \"#utility.yul\":7:361   */\ntag_24:\n  0x00\n    /* \"#utility.yul\":121:187   */\n  tag_26\n    /* \"#utility.yul\":137:186   */\n  tag_27\n    /* \"#utility.yul\":179:185   */\n  dup5\n    /* \"#utility.yul\":137:186   */\n  tag_28\n  jump\t// in\ntag_27:\n    /* \"#utility.yul\":121:187   */\n  tag_29\n  jump\t// in\ntag_26:\n    /* \"#utility.yul\":112:187   */\n  swap1\n  pop\n    /* \"#utility.yul\":210:216   */\n  dup3\n    /* \"#utility.yul\":203:208   */\n  dup2\n    /* \"#utility.yul\":196:217   */\n  mstore\n    /* \"#utility.yul\":248:252   */\n  0x20\n    /* \"#utility.yul\":241:246   */\n  dup2\n    /* \"#utility.yul\":237:253   */\n  add\n    /* \"#utility.yul\":286:289   */\n  dup5\n    /* \"#utility.yul\":277:283   */\n  dup5\n    /* \"#utility.yul\":272:275   */\n  dup5\n    /* \"#utility.yul\":268:284   */\n  add\n    /* \"#utility.yul\":265:290   */\n  gt\n    /* \"#utility.yul\":262:264   */\n  iszero\n  tag_30\n  jumpi\n    /* \"#utility.yul\":303:304   */\n  0x00\n    /* \"#utility.yul\":300:301   */\n  dup1\n    /* \"#utility.yul\":293:305   */\n  revert\n    /* \"#utility.yul\":262:264   */\ntag_30:\n    /* \"#utility.yul\":316:355   */\n  tag_31\n    /* \"#utility.yul\":348:354   */\n  dup5\n    /* \"#utility.yul\":343:346   */\n  dup3\n    /* \"#utility.yul\":338:341   */\n  dup6\n    /* \"#utility.yul\":316:355   */\n  tag_32\n  jump\t// in\ntag_31:\n    /* \"#utility.yul\":102:361   */\n  pop\n  swap4\n  swap3\n  pop\n  pop\n  pop\n  jump\t// out\n    /* \"#utility.yul\":381:669   */\ntag_33:\n  0x00\n    /* \"#utility.yul\":497:500   */\n  dup3\n    /* \"#utility.yul\":490:494   */\n  0x1f\n    /* \"#utility.yul\":482:488   */\n  dup4\n    /* \"#utility.yul\":478:495   */\n  add\n    /* \"#utility.yul\":474:501   */\n  slt\n    /* \"#utility.yul\":464:466   */\n  tag_35\n  jumpi\n    /* \"#utility.yul\":515:516   */\n  0x00\n    /* \"#utility.yul\":512:513   */\n  dup1\n    /* \"#utility.yul\":505:517   */\n  revert\n    /* \"#utility.yul\":464:466   */\ntag_35:\n    /* \"#utility.yul\":548:554   */\n  dup2\n    /* \"#utility.yul\":542:555   */\n  mload\n    /* \"#utility.yul\":573:663   */\n  tag_36\n    /* \"#utility.yul\":659:662   */\n  dup5\n    /* \"#utility.yul\":651:657   */\n  dup3\n    /* \"#utility.yul\":644:648   */\n  0x20\n    /* \"#utility.yul\":636:642   */\n  dup7\n    /* \"#utility.yul\":632:649   */\n  add\n    /* \"#utility.yul\":573:663   */\n  tag_24\n  jump\t// in\ntag_36:\n    /* \"#utility.yul\":564:663   */\n  swap2\n  pop\n    /* \"#utility.yul\":454:669   */\n  pop\n  swap3\n  swap2\n  pop\n  pop\n  jump\t// out\n    /* \"#utility.yul\":675:1327   */\ntag_3:\n  0x00\n  dup1\n    /* \"#utility.yul\":831:833   */\n  0x40\n    /* \"#utility.yul\":819:828   */\n  dup4\n    /* \"#utility.yul\":810:817   */\n  dup6\n    /* \"#utility.yul\":806:829   */\n  sub\n    /* \"#utility.yul\":802:834   */\n  slt\n    /* \"#utility.yul\":799:801   */\n  iszero\n  tag_38\n  jumpi\n    /* \"#utility.yul\":847:848   */\n  0x00\n    /* \"#utility.yul\":844:845   */\n  dup1\n    /* \"#utility.yul\":837:849   */\n  revert\n    /* \"#utility.yul\":799:801   */\ntag_38:\n    /* \"#utility.yul\":911:912   */\n  0x00\n    /* \"#utility.yul\":900:909   */\n  dup4\n    /* \"#utility.yul\":896:913   */\n  add\n    /* \"#utility.yul\":890:914   */\n  mload\n    /* \"#utility.yul\":941:959   */\n  0xffffffffffffffff\n    /* \"#utility.yul\":933:939   */\n  dup2\n    /* \"#utility.yul\":930:960   */\n  gt\n    /* \"#utility.yul\":927:929   */\n  iszero\n  tag_39\n  jumpi\n    /* \"#utility.yul\":973:974   */\n  0x00\n    /* \"#utility.yul\":970:971   */\n  dup1\n    /* \"#utility.yul\":963:975   */\n  revert\n    /* \"#utility.yul\":927:929   */\ntag_39:\n    /* \"#utility.yul\":1001:1075   */\n  tag_40\n    /* \"#utility.yul\":1067:1074   */\n  dup6\n    /* \"#utility.yul\":1058:1064   */\n  dup3\n    /* \"#utility.yul\":1047:1056   */\n  dup7\n    /* \"#utility.yul\":1043:1065   */\n  add\n    /* \"#utility.yul\":1001:1075   */\n  tag_33\n  jump\t// in\ntag_40:\n    /* \"#utility.yul\":991:1075   */\n  swap3\n  pop\n    /* \"#utility.yul\":861:1085   */\n  pop\n    /* \"#utility.yul\":1145:1147   */\n  0x20\n    /* \"#utility.yul\":1134:1143   */\n  dup4\n    /* \"#utility.yul\":1130:1148   */\n  add\n    /* \"#utility.yul\":1124:1149   */\n  mload\n    /* \"#utility.yul\":1176:1194   */\n  0xffffffffffffffff\n    /* \"#utility.yul\":1168:1174   */\n  dup2\n    /* \"#utility.yul\":1165:1195   */\n  gt\n    /* \"#utility.yul\":1162:1164   */\n  iszero\n  tag_41\n  jumpi\n    /* \"#utility.yul\":1208:1209   */\n  0x00\n    /* \"#utility.yul\":1205:1206   */\n  dup1\n    /* \"#utility.yul\":1198:1210   */\n  revert\n    /* \"#utility.yul\":1162:1164   */\ntag_41:\n    /* \"#utility.yul\":1236:1310   */\n  tag_42\n    /* \"#utility.yul\":1302:1309   */\n  dup6\n    /* \"#utility.yul\":1293:1299   */\n  dup3\n    /* \"#utility.yul\":1282:1291   */\n  dup7\n    /* \"#utility.yul\":1278:1300   */\n  add\n    /* \"#utility.yul\":1236:1310   */\n  tag_33\n  jump\t// in\ntag_42:\n    /* \"#utility.yul\":1226:1310   */\n  swap2\n  pop\n    /* \"#utility.yul\":1095:1320   */\n  pop\n    /* \"#utility.yul\":789:1327   */\n  swap3\n  pop\n  swap3\n  swap1\n  pop\n  jump\t// out\n    /* \"#utility.yul\":1333:1462   */\ntag_29:\n  0x00\n    /* \"#utility.yul\":1394:1414   */\n  tag_44\n  tag_45\n  jump\t// in\ntag_44:\n    /* \"#utility.yul\":1384:1414   */\n  swap1\n  pop\n    /* \"#utility.yul\":1423:1456   */\n  tag_46\n    /* \"#utility.yul\":1451:1455   */\n  dup3\n    /* \"#utility.yul\":1443:1449   */\n  dup3\n    /* \"#utility.yul\":1423:1456   */\n  tag_47\n  jump\t// in\ntag_46:\n    /* \"#utility.yul\":1374:1462   */\n  swap2\n  swap1\n  pop\n  jump\t// out\n    /* \"#utility.yul\":1468:1543   */\ntag_45:\n  0x00\n    /* \"#utility.yul\":1534:1536   */\n  0x40\n    /* \"#utility.yul\":1528:1537   */\n  mload\n    /* \"#utility.yul\":1518:1537   */\n  swap1\n  pop\n    /* \"#utility.yul\":1508:1543   */\n  swap1\n  jump\t// out\n    /* \"#utility.yul\":1549:1857   */\ntag_28:\n  0x00\n    /* \"#utility.yul\":1701:1719   */\n  0xffffffffffffffff\n    /* \"#utility.yul\":1693:1699   */\n  dup3\n    /* \"#utility.yul\":1690:1720   */\n  gt\n    /* \"#utility.yul\":1687:1689   */\n  iszero\n  tag_50\n  jumpi\n    /* \"#utility.yul\":1723:1741   */\n  tag_51\n  tag_52\n  jump\t// in\ntag_51:\n    /* \"#utility.yul\":1687:1689   */\ntag_50:\n    /* \"#utility.yul\":1761:1790   */\n  tag_53\n    /* \"#utility.yul\":1783:1789   */\n  dup3\n    /* \"#utility.yul\":1761:1790   */\n  tag_54\n  jump\t// in\ntag_53:\n    /* \"#utility.yul\":1753:1790   */\n  swap1\n  pop\n    /* \"#utility.yul\":1845:1849   */\n  0x20\n    /* \"#utility.yul\":1839:1843   */\n  dup2\n    /* \"#utility.yul\":1835:1850   */\n  add\n    /* \"#utility.yul\":1827:1850   */\n  swap1\n  pop\n    /* \"#utility.yul\":1616:1857   */\n  swap2\n  swap1\n  pop\n  jump\t// out\n    /* \"#utility.yul\":1863:2170   */\ntag_32:\n    /* \"#utility.yul\":1931:1932   */\n  0x00\n    /* \"#utility.yul\":1941:2054   */\ntag_56:\n    /* \"#utility.yul\":1955:1961   */\n  dup4\n    /* \"#utility.yul\":1952:1953   */\n  dup2\n    /* \"#utility.yul\":1949:1962   */\n  lt\n    /* \"#utility.yul\":1941:2054   */\n  iszero\n  tag_58\n  jumpi\n    /* \"#utility.yul\":2040:2041   */\n  dup1\n    /* \"#utility.yul\":2035:2038   */\n  dup3\n    /* \"#utility.yul\":2031:2042   */\n  add\n    /* \"#utility.yul\":2025:2043   */\n  mload\n    /* \"#utility.yul\":2021:2022   */\n  dup2\n    /* \"#utility.yul\":2016:2019   */\n  dup5\n    /* \"#utility.yul\":2012:2023   */\n  add\n    /* \"#utility.yul\":2005:2044   */\n  mstore\n    /* \"#utility.yul\":1977:1979   */\n  0x20\n    /* \"#utility.yul\":1974:1975   */\n  dup2\n    /* \"#utility.yul\":1970:1980   */\n  add\n    /* \"#utility.yul\":1965:1980   */\n  swap1\n  pop\n    /* \"#utility.yul\":1941:2054   */\n  jump(tag_56)\ntag_58:\n    /* \"#utility.yul\":2072:2078   */\n  dup4\n    /* \"#utility.yul\":2069:2070   */\n  dup2\n    /* \"#utility.yul\":2066:2079   */\n  gt\n    /* \"#utility.yul\":2063:2065   */\n  iszero\n  tag_59\n  jumpi\n    /* \"#utility.yul\":2152:2153   */\n  0x00\n    /* \"#utility.yul\":2143:2149   */\n  dup5\n    /* \"#utility.yul\":2138:2141   */\n  dup5\n    /* \"#utility.yul\":2134:2150   */\n  add\n    /* \"#utility.yul\":2127:2154   */\n  mstore\n    /* \"#utility.yul\":2063:2065   */\ntag_59:\n    /* \"#utility.yul\":1912:2170   */\n  pop\n  pop\n  pop\n  pop\n  jump\t// out\n    /* \"#utility.yul\":2176:2496   */\ntag_13:\n  0x00\n    /* \"#utility.yul\":2257:2258   */\n  0x02\n    /* \"#utility.yul\":2251:2255   */\n  dup3\n    /* \"#utility.yul\":2247:2259   */\n  div\n    /* \"#utility.yul\":2237:2259   */\n  swap1\n  pop\n    /* \"#utility.yul\":2304:2305   */\n  0x01\n    /* \"#utility.yul\":2298:2302   */\n  dup3\n    /* \"#utility.yul\":2294:2306   */\n  and\n    /* \"#utility.yul\":2325:2343   */\n  dup1\n    /* \"#utility.yul\":2315:2317   */\n  tag_61\n  jumpi\n    /* \"#utility.yul\":2381:2385   */\n  0x7f\n    /* \"#utility.yul\":2373:2379   */\n  dup3\n    /* \"#utility.yul\":2369:2386   */\n  and\n    /* \"#utility.yul\":2359:2386   */\n  swap2\n  pop\n    /* \"#utility.yul\":2315:2317   */\ntag_61:\n    /* \"#utility.yul\":2443:2445   */\n  0x20\n    /* \"#utility.yul\":2435:2441   */\n  dup3\n    /* \"#utility.yul\":2432:2446   */\n  lt\n    /* \"#utility.yul\":2412:2430   */\n  dup2\n    /* \"#utility.yul\":2409:2447   */\n  eq\n    /* \"#utility.yul\":2406:2408   */\n  iszero\n  tag_62\n  jumpi\n    /* \"#utility.yul\":2462:2480   */\n  tag_63\n  tag_64\n  jump\t// in\ntag_63:\n    /* \"#utility.yul\":2406:2408   */\ntag_62:\n    /* \"#utility.yul\":2227:2496   */\n  pop\n  swap2\n  swap1\n  pop\n  jump\t// out\n    /* \"#utility.yul\":2502:2783   */\ntag_47:\n    /* \"#utility.yul\":2585:2612   */\n  tag_66\n    /* \"#utility.yul\":2607:2611   */\n  dup3\n    /* \"#utility.yul\":2585:2612   */\n  tag_54\n  jump\t// in\ntag_66:\n    /* \"#utility.yul\":2577:2583   */\n  dup2\n    /* \"#utility.yul\":2573:2613   */\n  add\n    /* \"#utility.yul\":2715:2721   */\n  dup2\n    /* \"#utility.yul\":2703:2713   */\n  dup2\n    /* \"#utility.yul\":2700:2722   */\n  lt\n    /* \"#utility.yul\":2679:2697   */\n  0xffffffffffffffff\n    /* \"#utility.yul\":2667:2677   */\n  dup3\n    /* \"#utility.yul\":2664:2698   */\n  gt\n    /* \"#utility.yul\":2661:2723   */\n  or\n    /* \"#utility.yul\":2658:2660   */\n  iszero\n  tag_67\n  jumpi\n    /* \"#utility.yul\":2726:2744   */\n  tag_68\n  tag_52\n  jump\t// in\ntag_68:\n    /* \"#utility.yul\":2658:2660   */\ntag_67:\n    /* \"#utility.yul\":2766:2776   */\n  dup1\n    /* \"#utility.yul\":2762:2764   */\n  0x40\n    /* \"#utility.yul\":2755:2777   */\n  mstore\n    /* \"#utility.yul\":2545:2783   */\n  pop\n  pop\n  pop\n  jump\t// out\n    /* \"#utility.yul\":2789:2969   */\ntag_64:\n    /* \"#utility.yul\":2837:2914   */\n  0x4e487b7100000000000000000000000000000000000000000000000000000000\n    /* \"#utility.yul\":2834:2835   */\n  0x00\n    /* \"#utility.yul\":2827:2915   */\n  mstore\n    /* \"#utility.yul\":2934:2938   */\n  0x22\n    /* \"#utility.yul\":2931:2932   */\n  0x04\n    /* \"#utility.yul\":2924:2939   */\n  mstore\n    /* \"#utility.yul\":2958:2962   */\n  0x24\n    /* \"#utility.yul\":2955:2956   */\n  0x00\n    /* \"#utility.yul\":2948:2963   */\n  revert\n    /* \"#utility.yul\":2975:3155   */\ntag_52:\n    /* \"#utility.yul\":3023:3100   */\n  0x4e487b7100000000000000000000000000000000000000000000000000000000\n    /* \"#utility.yul\":3020:3021   */\n  0x00\n    /* \"#utility.yul\":3013:3101   */\n  mstore\n    /* \"#utility.yul\":3120:3124   */\n  0x41\n    /* \"#utility.yul\":3117:3118   */\n  0x04\n    /* \"#utility.yul\":3110:3125   */\n  mstore\n    /* \"#utility.yul\":3144:3148   */\n  0x24\n    /* \"#utility.yul\":3141:3142   */\n  0x00\n    /* \"#utility.yul\":3134:3149   */\n  revert\n    /* \"#utility.yul\":3161:3263   */\ntag_54:\n  0x00\n    /* \"#utility.yul\":3253:3255   */\n  0x1f\n    /* \"#utility.yul\":3249:3256   */\n  not\n    /* \"#utility.yul\":3244:3246   */\n  0x1f\n    /* \"#utility.yul\":3237:3242   */\n  dup4\n    /* \"#utility.yul\":3233:3247   */\n  add\n    /* \"#utility.yul\":3229:3257   */\n  and\n    /* \"#utility.yul\":3219:3257   */\n  swap1\n  pop\n    /* \"#utility.yul\":3209:3263   */\n  swap2\n  swap1\n  pop\n  jump\t// out\n    /* \"contracts/nft.sol\":381:876  contract erc721 is ERC721{\r... */\ntag_11:\n  dataSize(sub_0)\n  dup1\n  dataOffset(sub_0)\n  0x00\n  codecopy\n  0x00\n  return\nstop\n\nsub_0: assembly {\n        /* \"contracts/nft.sol\":381:876  contract erc721 is ERC721{\r... */\n      mstore(0x40, 0x80)\n      callvalue\n      dup1\n      iszero\n      tag_1\n      jumpi\n      0x00\n      dup1\n      revert\n    tag_1:\n      pop\n      jumpi(tag_2, lt(calldatasize, 0x04))\n      shr(0xe0, calldataload(0x00))\n      dup1\n      0x6352211e\n      gt\n      tag_17\n      jumpi\n      dup1\n      0xa22cb465\n      gt\n      tag_18\n      jumpi\n      dup1\n      0xa22cb465\n      eq\n      tag_13\n      jumpi\n      dup1\n      0xb88d4fde\n      eq\n      tag_14\n      jumpi\n      dup1\n      0xc87b56dd\n      eq\n      tag_15\n      jumpi\n      dup1\n      0xe985e9c5\n      eq\n      tag_16\n      jumpi\n      jump(tag_2)\n    tag_18:\n      dup1\n      0x6352211e\n      eq\n      tag_10\n      jumpi\n      dup1\n      0x70a08231\n      eq\n      tag_11\n      jumpi\n      dup1\n      0x95d89b41\n      eq\n      tag_12\n      jumpi\n      jump(tag_2)\n    tag_17:\n      dup1\n      0x095ea7b3\n      gt\n      tag_19\n      jumpi\n      dup1\n      0x095ea7b3\n      eq\n      tag_6\n      jumpi\n      dup1\n      0x23b872dd\n      eq\n      tag_7\n      jumpi\n      dup1\n      0x4142e328\n      eq\n      tag_8\n      jumpi\n      dup1\n      0x42842e0e\n      eq\n      tag_9\n      jumpi\n      jump(tag_2)\n    tag_19:\n      dup1\n      0x01ffc9a7\n      eq\n      tag_3\n      jumpi\n      dup1\n      0x06fdde03\n      eq\n      tag_4\n      jumpi\n      dup1\n      0x081812fc\n      eq\n      tag_5\n      jumpi\n    tag_2:\n      0x00\n      dup1\n      revert\n        /* \"@openzeppelin/contracts@4.5.0/token/ERC721/ERC721.sol\":1570:1870  function supportsInterface(bytes4 interfaceId) public view virtual override(ERC165, IERC165) returns (bool) {... */\n    tag_3:\n      tag_20\n      0x04\n      dup1\n      calldatasize\n      sub\n      dup2\n      add\n      swap1\n      tag_21\n      swap2\n      swap1\n      tag_22\n      jump\t// in\n    tag_21:\n      tag_23\n      jump\t// in\n    tag_20:\n      mload(0x40)\n      tag_24\n      swap2\n      swap1\n      tag_25\n      jump\t// in\n    tag_24:\n      mload(0x40)\n      dup1\n      swap2\n      sub\n      swap1\n      return\n        /* \"@openzeppelin/contracts@4.5.0/token/ERC721/ERC721.sol\":2488:2586  function name() public view virtual override returns (string memory) {... */\n    tag_4:\n      tag_26\n      tag_27\n      jump\t// in\n    tag_26:\n      mload(0x40)\n      tag_28\n      swap2\n      swap1\n      tag_29\n      jump\t// in\n    tag_28:\n      mload(0x40)\n      dup1\n      swap2\n      sub\n      swap1\n      return\n        /* \"@openzeppelin/contracts@4.5.0/token/ERC721/ERC721.sol\":3999:4216  function getApproved(uint256 tokenId) public view virtual override returns (address) {... */\n    tag_5:\n      tag_30\n      0x04\n      dup1\n      calldatasize\n      sub\n      dup2\n      add\n      swap1\n      tag_31\n      swap2\n      swap1\n      tag_32\n      jump\t// in\n    tag_31:\n      tag_33\n      jump\t// in\n    tag_30:\n      mload(0x40)\n      tag_34\n      swap2\n      swap1\n      tag_35\n      jump\t// in\n    tag_34:\n      mload(0x40)\n      dup1\n      swap2\n      sub\n      swap1\n      return\n        /* \"@openzeppelin/contracts@4.5.0/token/ERC721/ERC721.sol\":3537:3938  function approve(address to, uint256 tokenId) public virtual override {... */\n    tag_6:\n      tag_36\n      0x04\n      dup1\n      calldatasize\n      sub\n      dup2\n      add\n      swap1\n      tag_37\n      swap2\n      swap1\n      tag_38\n      jump\t// in\n    tag_37:\n      tag_39\n      jump\t// in\n    tag_36:\n      stop\n        /* \"@openzeppelin/contracts@4.5.0/token/ERC721/ERC721.sol\":4726:5056  function transferFrom(... */\n    tag_7:\n      tag_40\n      0x04\n      dup1\n      calldatasize\n      sub\n      dup2\n      add\n      swap1\n      tag_41\n      swap2\n      swap1\n      tag_42\n      jump\t// in\n    tag_41:\n      tag_43\n      jump\t// in\n    tag_40:\n      stop\n        /* \"contracts/nft.sol\":692:871  function sendNFT(address _account) public {\r... */\n    tag_8:\n      tag_44\n      0x04\n      dup1\n      calldatasize\n      sub\n      dup2\n      add\n      swap1\n      tag_45\n      swap2\n      swap1\n      tag_46\n      jump\t// in\n    tag_45:\n      tag_47\n      jump\t// in\n    tag_44:\n      stop\n        /* \"@openzeppelin/contracts@4.5.0/token/ERC721/ERC721.sol\":5122:5301  function safeTransferFrom(... */\n    tag_9:\n      tag_48\n      0x04\n      dup1\n      calldatasize\n      sub\n      dup2\n      add\n      swap1\n      tag_49\n      swap2\n      swap1\n      tag_42\n      jump\t// in\n    tag_49:\n      tag_50\n      jump\t// in\n    tag_48:\n      stop\n        /* \"@openzeppelin/contracts@4.5.0/token/ERC721/ERC721.sol\":2191:2426  function ownerOf(uint256 tokenId) public view virtual override returns (address) {... */\n    tag_10:\n      tag_51\n      0x04\n      dup1\n      calldatasize\n      sub\n      dup2\n      add\n      swap1\n      tag_52\n      swap2\n      swap1\n      tag_32\n      jump\t// in\n    tag_52:\n      tag_53\n      jump\t// in\n    tag_51:\n      mload(0x40)\n      tag_54\n      swap2\n      swap1\n      tag_35\n      jump\t// in\n    tag_54:\n      mload(0x40)\n      dup1\n      swap2\n      sub\n      swap1\n      return\n        /* \"@openzeppelin/contracts@4.5.0/token/ERC721/ERC721.sol\":1929:2134  function balanceOf(address owner) public view virtual override returns (uint256) {... */\n    tag_11:\n      tag_55\n      0x04\n      dup1\n      calldatasize\n      sub\n      dup2\n      add\n      swap1\n      tag_56\n      swap2\n      swap1\n      tag_46\n      jump\t// in\n    tag_56:\n      tag_57\n      jump\t// in\n    tag_55:\n      mload(0x40)\n      tag_58\n      swap2\n      swap1\n      tag_59\n      jump\t// in\n    tag_58:\n      mload(0x40)\n      dup1\n      swap2\n      sub\n      swap1\n      return\n        /* \"@openzeppelin/contracts@4.5.0/token/ERC721/ERC721.sol\":2650:2752  function symbol() public view virtual override returns (string memory) {... */\n    tag_12:\n      tag_60\n      tag_61\n      jump\t// in\n    tag_60:\n      mload(0x40)\n      tag_62\n      swap2\n      swap1\n      tag_29\n      jump\t// in\n    tag_62:\n      mload(0x40)\n      dup1\n      swap2\n      sub\n      swap1\n      return\n        /* \"@openzeppelin/contracts@4.5.0/token/ERC721/ERC721.sol\":4283:4436  function setApprovalForAll(address operator, bool approved) public virtual override {... */\n    tag_13:\n      tag_63\n      0x04\n      dup1\n      calldatasize\n      sub\n      dup2\n      add\n      swap1\n      tag_64\n      swap2\n      swap1\n      tag_65\n      jump\t// in\n    tag_64:\n      tag_66\n      jump\t// in\n    tag_63:\n      stop\n        /* \"@openzeppelin/contracts@4.5.0/token/ERC721/ERC721.sol\":5367:5687  function safeTransferFrom(... */\n    tag_14:\n      tag_67\n      0x04\n      dup1\n      calldatasize\n      sub\n      dup2\n      add\n      swap1\n      tag_68\n      swap2\n      swap1\n      tag_69\n      jump\t// in\n    tag_68:\n      tag_70\n      jump\t// in\n    tag_67:\n      stop\n        /* \"@openzeppelin/contracts@4.5.0/token/ERC721/ERC721.sol\":2818:3147  function tokenURI(uint256 tokenId) public view virtual override returns (string memory) {... */\n    tag_15:\n      tag_71\n      0x04\n      dup1\n      calldatasize\n      sub\n      dup2\n      add\n      swap1\n      tag_72\n      swap2\n      swap1\n      tag_32\n      jump\t// in\n    tag_72:\n      tag_73\n      jump\t// in\n    tag_71:\n      mload(0x40)\n      tag_74\n      swap2\n      swap1\n      tag_29\n      jump\t// in\n    tag_74:\n      mload(0x40)\n      dup1\n      swap2\n      sub\n      swap1\n      return\n        /* \"@openzeppelin/contracts@4.5.0/token/ERC721/ERC721.sol\":4502:4664  function isApprovedForAll(address owner, address operator) public view virtual override returns (bool) {... */\n    tag_16:\n      tag_75\n      0x04\n      dup1\n      calldatasize\n      sub\n      dup2\n      add\n      swap1\n      tag_76\n      swap2\n      swap1\n      tag_77\n      jump\t// in\n    tag_76:\n      tag_78\n      jump\t// in\n    tag_75:\n      mload(0x40)\n      tag_79\n      swap2\n      swap1\n      tag_25\n      jump\t// in\n    tag_79:\n      mload(0x40)\n      dup1\n      swap2\n      sub\n      swap1\n      return\n        /* \"@openzeppelin/contracts@4.5.0/token/ERC721/ERC721.sol\":1570:1870  function supportsInterface(bytes4 interfaceId) public view virtual override(ERC165, IERC165) returns (bool) {... */\n    tag_23:\n        /* \"@openzeppelin/contracts@4.5.0/token/ERC721/ERC721.sol\":1672:1676  bool */\n      0x00\n        /* \"@openzeppelin/contracts@4.5.0/token/ERC721/ERC721.sol\":1722:1747  type(IERC721).interfaceId */\n      0x80ac58cd00000000000000000000000000000000000000000000000000000000\n        /* \"@openzeppelin/contracts@4.5.0/token/ERC721/ERC721.sol\":1707:1747  interfaceId == type(IERC721).interfaceId */\n      not(0xffffffffffffffffffffffffffffffffffffffffffffffffffffffff)\n      and\n        /* \"@openzeppelin/contracts@4.5.0/token/ERC721/ERC721.sol\":1707:1718  interfaceId */\n      dup3\n        /* \"@openzeppelin/contracts@4.5.0/token/ERC721/ERC721.sol\":1707:1747  interfaceId == type(IERC721).interfaceId */\n      not(0xffffffffffffffffffffffffffffffffffffffffffffffffffffffff)\n      and\n      eq\n        /* \"@openzeppelin/contracts@4.5.0/token/ERC721/ERC721.sol\":1707:1811  interfaceId == type(IERC721).interfaceId ||... */\n      dup1\n      tag_81\n      jumpi\n      pop\n        /* \"@openzeppelin/contracts@4.5.0/token/ERC721/ERC721.sol\":1778:1811  type(IERC721Metadata).interfaceId */\n      0x5b5e139f00000000000000000000000000000000000000000000000000000000\n        /* \"@openzeppelin/contracts@4.5.0/token/ERC721/ERC721.sol\":1763:1811  interfaceId == type(IERC721Metadata).interfaceId */\n      not(0xffffffffffffffffffffffffffffffffffffffffffffffffffffffff)\n      and\n        /* \"@openzeppelin/contracts@4.5.0/token/ERC721/ERC721.sol\":1763:1774  interfaceId */\n      dup3\n        /* \"@openzeppelin/contracts@4.5.0/token/ERC721/ERC721.sol\":1763:1811  interfaceId == type(IERC721Metadata).interfaceId */\n      not(0xffffffffffffffffffffffffffffffffffffffffffffffffffffffff)\n      and\n      eq\n        /* \"@openzeppelin/contracts@4.5.0/token/ERC721/ERC721.sol\":1707:1811  interfaceId == type(IERC721).interfaceId ||... */\n    tag_81:\n        /* \"@openzeppelin/contracts@4.5.0/token/ERC721/ERC721.sol\":1707:1863  interfaceId == type(IERC721).interfaceId ||... */\n      dup1\n      tag_82\n      jumpi\n      pop\n        /* \"@openzeppelin/contracts@4.5.0/token/ERC721/ERC721.sol\":1827:1863  super.supportsInterface(interfaceId) */\n      tag_83\n        /* \"@openzeppelin/contracts@4.5.0/token/ERC721/ERC721.sol\":1851:1862  interfaceId */\n      dup3\n        /* \"@openzeppelin/contracts@4.5.0/token/ERC721/ERC721.sol\":1827:1850  super.supportsInterface */\n      tag_84\n        /* \"@openzeppelin/contracts@4.5.0/token/ERC721/ERC721.sol\":1827:1863  super.supportsInterface(interfaceId) */\n      jump\t// in\n    tag_83:\n        /* \"@openzeppelin/contracts@4.5.0/token/ERC721/ERC721.sol\":1707:1863  interfaceId == type(IERC721).interfaceId ||... */\n    tag_82:\n        /* \"@openzeppelin/contracts@4.5.0/token/ERC721/ERC721.sol\":1688:1863  return... */\n      swap1\n      pop\n        /* \"@openzeppelin/contracts@4.5.0/token/ERC721/ERC721.sol\":1570:1870  function supportsInterface(bytes4 interfaceId) public view virtual override(ERC165, IERC165) returns (bool) {... */\n      swap2\n      swap1\n      pop\n      jump\t// out\n        /* \"@openzeppelin/contracts@4.5.0/token/ERC721/ERC721.sol\":2488:2586  function name() public view virtual override returns (string memory) {... */\n    tag_27:\n        /* \"@openzeppelin/contracts@4.5.0/token/ERC721/ERC721.sol\":2542:2555  string memory */\n      0x60\n        /* \"@openzeppelin/contracts@4.5.0/token/ERC721/ERC721.sol\":2574:2579  _name */\n      0x00\n        /* \"@openzeppelin/contracts@4.5.0/token/ERC721/ERC721.sol\":2567:2579  return _name */\n      dup1\n      sload\n      tag_86\n      swap1\n      tag_87\n      jump\t// in\n    tag_86:\n      dup1\n      0x1f\n      add\n      0x20\n      dup1\n      swap2\n      div\n      mul\n      0x20\n      add\n      mload(0x40)\n      swap1\n      dup2\n      add\n      0x40\n      mstore\n      dup1\n      swap3\n      swap2\n      swap1\n      dup2\n      dup2\n      mstore\n      0x20\n      add\n      dup3\n      dup1\n      sload\n      tag_88\n      swap1\n      tag_87\n      jump\t// in\n    tag_88:\n      dup1\n      iszero\n      tag_89\n      jumpi\n      dup1\n      0x1f\n      lt\n      tag_90\n      jumpi\n      0x0100\n      dup1\n      dup4\n      sload\n      div\n      mul\n      dup4\n      mstore\n      swap2\n      0x20\n      add\n      swap2\n      jump(tag_89)\n    tag_90:\n      dup3\n      add\n      swap2\n      swap1\n      0x00\n      mstore\n      keccak256(0x00, 0x20)\n      swap1\n    tag_91:\n      dup2\n      sload\n      dup2\n      mstore\n      swap1\n      0x01\n      add\n      swap1\n      0x20\n      add\n      dup1\n      dup4\n      gt\n      tag_91\n      jumpi\n      dup3\n      swap1\n      sub\n      0x1f\n      and\n      dup3\n      add\n      swap2\n    tag_89:\n      pop\n      pop\n      pop\n      pop\n      pop\n      swap1\n      pop\n        /* \"@openzeppelin/contracts@4.5.0/token/ERC721/ERC721.sol\":2488:2586  function name() public view virtual override returns (string memory) {... */\n      swap1\n      jump\t// out\n        /* \"@openzeppelin/contracts@4.5.0/token/ERC721/ERC721.sol\":3999:4216  function getApproved(uint256 tokenId) public view virtual override returns (address) {... */\n    tag_33:\n        /* \"@openzeppelin/contracts@4.5.0/token/ERC721/ERC721.sol\":4075:4082  address */\n      0x00\n        /* \"@openzeppelin/contracts@4.5.0/token/ERC721/ERC721.sol\":4102:4118  _exists(tokenId) */\n      tag_93\n        /* \"@openzeppelin/contracts@4.5.0/token/ERC721/ERC721.sol\":4110:4117  tokenId */\n      dup3\n        /* \"@openzeppelin/contracts@4.5.0/token/ERC721/ERC721.sol\":4102:4109  _exists */\n      tag_94\n        /* \"@openzeppelin/contracts@4.5.0/token/ERC721/ERC721.sol\":4102:4118  _exists(tokenId) */\n      jump\t// in\n    tag_93:\n        /* \"@openzeppelin/contracts@4.5.0/token/ERC721/ERC721.sol\":4094:4167  require(_exists(tokenId), \"ERC721: approved query for nonexistent token\") */\n      tag_95\n      jumpi\n      mload(0x40)\n      0x08c379a000000000000000000000000000000000000000000000000000000000\n      dup2\n      mstore\n      0x04\n      add\n      tag_96\n      swap1\n      tag_97\n      jump\t// in\n    tag_96:\n      mload(0x40)\n      dup1\n      swap2\n      sub\n      swap1\n      revert\n    tag_95:\n        /* \"@openzeppelin/contracts@4.5.0/token/ERC721/ERC721.sol\":4185:4200  _tokenApprovals */\n      0x04\n        /* \"@openzeppelin/contracts@4.5.0/token/ERC721/ERC721.sol\":4185:4209  _tokenApprovals[tokenId] */\n      0x00\n        /* \"@openzeppelin/contracts@4.5.0/token/ERC721/ERC721.sol\":4201:4208  tokenId */\n      dup4\n        /* \"@openzeppelin/contracts@4.5.0/token/ERC721/ERC721.sol\":4185:4209  _tokenApprovals[tokenId] */\n      dup2\n      mstore\n      0x20\n      add\n      swap1\n      dup2\n      mstore\n      0x20\n      add\n      0x00\n      keccak256\n      0x00\n      swap1\n      sload\n      swap1\n      0x0100\n      exp\n      swap1\n      div\n      0xffffffffffffffffffffffffffffffffffffffff\n      and\n        /* \"@openzeppelin/contracts@4.5.0/token/ERC721/ERC721.sol\":4178:4209  return _tokenApprovals[tokenId] */\n      swap1\n      pop\n        /* \"@openzeppelin/contracts@4.5.0/token/ERC721/ERC721.sol\":3999:4216  function getApproved(uint256 tokenId) public view virtual override returns (address) {... */\n      swap2\n      swap1\n      pop\n      jump\t// out\n        /* \"@openzeppelin/contracts@4.5.0/token/ERC721/ERC721.sol\":3537:3938  function approve(address to, uint256 tokenId) public virtual override {... */\n    tag_39:\n        /* \"@openzeppelin/contracts@4.5.0/token/ERC721/ERC721.sol\":3617:3630  address owner */\n      0x00\n        /* \"@openzeppelin/contracts@4.5.0/token/ERC721/ERC721.sol\":3633:3656  ERC721.ownerOf(tokenId) */\n      tag_99\n        /* \"@openzeppelin/contracts@4.5.0/token/ERC721/ERC721.sol\":3648:3655  tokenId */\n      dup3\n        /* \"@openzeppelin/contracts@4.5.0/token/ERC721/ERC721.sol\":3633:3647  ERC721.ownerOf */\n      tag_53\n        /* \"@openzeppelin/contracts@4.5.0/token/ERC721/ERC721.sol\":3633:3656  ERC721.ownerOf(tokenId) */\n      jump\t// in\n    tag_99:\n        /* \"@openzeppelin/contracts@4.5.0/token/ERC721/ERC721.sol\":3617:3656  address owner = ERC721.ownerOf(tokenId) */\n      swap1\n      pop\n        /* \"@openzeppelin/contracts@4.5.0/token/ERC721/ERC721.sol\":3680:3685  owner */\n      dup1\n        /* \"@openzeppelin/contracts@4.5.0/token/ERC721/ERC721.sol\":3674:3685  to != owner */\n      0xffffffffffffffffffffffffffffffffffffffff\n      and\n        /* \"@openzeppelin/contracts@4.5.0/token/ERC721/ERC721.sol\":3674:3676  to */\n      dup4\n        /* \"@openzeppelin/contracts@4.5.0/token/ERC721/ERC721.sol\":3674:3685  to != owner */\n      0xffffffffffffffffffffffffffffffffffffffff\n      and\n      eq\n      iszero\n        /* \"@openzeppelin/contracts@4.5.0/token/ERC721/ERC721.sol\":3666:3723  require(to != owner, \"ERC721: approval to current owner\") */\n      tag_100\n      jumpi\n      mload(0x40)\n      0x08c379a000000000000000000000000000000000000000000000000000000000\n      dup2\n      mstore\n      0x04\n      add\n      tag_101\n      swap1\n      tag_102\n      jump\t// in\n    tag_101:\n      mload(0x40)\n      dup1\n      swap2\n      sub\n      swap1\n      revert\n    tag_100:\n        /* \"@openzeppelin/contracts@4.5.0/token/ERC721/ERC721.sol\":3771:3776  owner */\n      dup1\n        /* \"@openzeppelin/contracts@4.5.0/token/ERC721/ERC721.sol\":3755:3776  _msgSender() == owner */\n      0xffffffffffffffffffffffffffffffffffffffff\n      and\n        /* \"@openzeppelin/contracts@4.5.0/token/ERC721/ERC721.sol\":3755:3767  _msgSender() */\n      tag_103\n        /* \"@openzeppelin/contracts@4.5.0/token/ERC721/ERC721.sol\":3755:3765  _msgSender */\n      tag_104\n        /* \"@openzeppelin/contracts@4.5.0/token/ERC721/ERC721.sol\":3755:3767  _msgSender() */\n      jump\t// in\n    tag_103:\n        /* \"@openzeppelin/contracts@4.5.0/token/ERC721/ERC721.sol\":3755:3776  _msgSender() == owner */\n      0xffffffffffffffffffffffffffffffffffffffff\n      and\n      eq\n        /* \"@openzeppelin/contracts@4.5.0/token/ERC721/ERC721.sol\":3755:3817  _msgSender() == owner || isApprovedForAll(owner, _msgSender()) */\n      dup1\n      tag_105\n      jumpi\n      pop\n        /* \"@openzeppelin/contracts@4.5.0/token/ERC721/ERC721.sol\":3780:3817  isApprovedForAll(owner, _msgSender()) */\n      tag_106\n        /* \"@openzeppelin/contracts@4.5.0/token/ERC721/ERC721.sol\":3797:3802  owner */\n      dup2\n        /* \"@openzeppelin/contracts@4.5.0/token/ERC721/ERC721.sol\":3804:3816  _msgSender() */\n      tag_107\n        /* \"@openzeppelin/contracts@4.5.0/token/ERC721/ERC721.sol\":3804:3814  _msgSender */\n      tag_104\n        /* \"@openzeppelin/contracts@4.5.0/token/ERC721/ERC721.sol\":3804:3816  _msgSender() */\n      jump\t// in\n    tag_107:\n        /* \"@openzeppelin/contracts@4.5.0/token/ERC721/ERC721.sol\":3780:3796  isApprovedForAll */\n      tag_78\n        /* \"@openzeppelin/contracts@4.5.0/token/ERC721/ERC721.sol\":3780:3817  isApprovedForAll(owner, _msgSender()) */\n      jump\t// in\n    tag_106:\n        /* \"@openzeppelin/contracts@4.5.0/token/ERC721/ERC721.sol\":3755:3817  _msgSender() == owner || isApprovedForAll(owner, _msgSender()) */\n    tag_105:\n        /* \"@openzeppelin/contracts@4.5.0/token/ERC721/ERC721.sol\":3734:3899  require(... */\n      tag_108\n      jumpi\n      mload(0x40)\n      0x08c379a000000000000000000000000000000000000000000000000000000000\n      dup2\n      mstore\n      0x04\n      add\n      tag_109\n      swap1\n      tag_110\n      jump\t// in\n    tag_109:\n      mload(0x40)\n      dup1\n      swap2\n      sub\n      swap1\n      revert\n    tag_108:\n        /* \"@openzeppelin/contracts@4.5.0/token/ERC721/ERC721.sol\":3910:3931  _approve(to, tokenId) */\n      tag_111\n        /* \"@openzeppelin/contracts@4.5.0/token/ERC721/ERC721.sol\":3919:3921  to */\n      dup4\n        /* \"@openzeppelin/contracts@4.5.0/token/ERC721/ERC721.sol\":3923:3930  tokenId */\n      dup4\n        /* \"@openzeppelin/contracts@4.5.0/token/ERC721/ERC721.sol\":3910:3918  _approve */\n      tag_112\n        /* \"@openzeppelin/contracts@4.5.0/token/ERC721/ERC721.sol\":3910:3931  _approve(to, tokenId) */\n      jump\t// in\n    tag_111:\n        /* \"@openzeppelin/contracts@4.5.0/token/ERC721/ERC721.sol\":3537:3938  function approve(address to, uint256 tokenId) public virtual override {... */\n      pop\n      pop\n      pop\n      jump\t// out\n        /* \"@openzeppelin/contracts@4.5.0/token/ERC721/ERC721.sol\":4726:5056  function transferFrom(... */\n    tag_43:\n        /* \"@openzeppelin/contracts@4.5.0/token/ERC721/ERC721.sol\":4915:4956  _isApprovedOrOwner(_msgSender(), tokenId) */\n      tag_114\n        /* \"@openzeppelin/contracts@4.5.0/token/ERC721/ERC721.sol\":4934:4946  _msgSender() */\n      tag_115\n        /* \"@openzeppelin/contracts@4.5.0/token/ERC721/ERC721.sol\":4934:4944  _msgSender */\n      tag_104\n        /* \"@openzeppelin/contracts@4.5.0/token/ERC721/ERC721.sol\":4934:4946  _msgSender() */\n      jump\t// in\n    tag_115:\n        /* \"@openzeppelin/contracts@4.5.0/token/ERC721/ERC721.sol\":4948:4955  tokenId */\n      dup3\n        /* \"@openzeppelin/contracts@4.5.0/token/ERC721/ERC721.sol\":4915:4933  _isApprovedOrOwner */\n      tag_116\n        /* \"@openzeppelin/contracts@4.5.0/token/ERC721/ERC721.sol\":4915:4956  _isApprovedOrOwner(_msgSender(), tokenId) */\n      jump\t// in\n    tag_114:\n        /* \"@openzeppelin/contracts@4.5.0/token/ERC721/ERC721.sol\":4907:5010  require(_isApprovedOrOwner(_msgSender(), tokenId), \"ERC721: transfer caller is not owner nor approved\") */\n      tag_117\n      jumpi\n      mload(0x40)\n      0x08c379a000000000000000000000000000000000000000000000000000000000\n      dup2\n      mstore\n      0x04\n      add\n      tag_118\n      swap1\n      tag_119\n      jump\t// in\n    tag_118:\n      mload(0x40)\n      dup1\n      swap2\n      sub\n      swap1\n      revert\n    tag_117:\n        /* \"@openzeppelin/contracts@4.5.0/token/ERC721/ERC721.sol\":5021:5049  _transfer(from, to, tokenId) */\n      tag_120\n        /* \"@openzeppelin/contracts@4.5.0/token/ERC721/ERC721.sol\":5031:5035  from */\n      dup4\n        /* \"@openzeppelin/contracts@4.5.0/token/ERC721/ERC721.sol\":5037:5039  to */\n      dup4\n        /* \"@openzeppelin/contracts@4.5.0/token/ERC721/ERC721.sol\":5041:5048  tokenId */\n      dup4\n        /* \"@openzeppelin/contracts@4.5.0/token/ERC721/ERC721.sol\":5021:5030  _transfer */\n      tag_121\n        /* \"@openzeppelin/contracts@4.5.0/token/ERC721/ERC721.sol\":5021:5049  _transfer(from, to, tokenId) */\n      jump\t// in\n    tag_120:\n        /* \"@openzeppelin/contracts@4.5.0/token/ERC721/ERC721.sol\":4726:5056  function transferFrom(... */\n      pop\n      pop\n      pop\n      jump\t// out\n        /* \"contracts/nft.sol\":692:871  function sendNFT(address _account) public {\r... */\n    tag_47:\n        /* \"contracts/nft.sol\":747:769  _tokensIds.increment() */\n      tag_123\n        /* \"contracts/nft.sol\":747:757  _tokensIds */\n      0x06\n        /* \"contracts/nft.sol\":747:767  _tokensIds.increment */\n      tag_124\n        /* \"contracts/nft.sol\":747:769  _tokensIds.increment() */\n      jump\t// in\n    tag_123:\n        /* \"contracts/nft.sol\":780:797  uint256 newItemId */\n      0x00\n        /* \"contracts/nft.sol\":800:820  _tokensIds.current() */\n      tag_125\n        /* \"contracts/nft.sol\":800:810  _tokensIds */\n      0x06\n        /* \"contracts/nft.sol\":800:818  _tokensIds.current */\n      tag_126\n        /* \"contracts/nft.sol\":800:820  _tokensIds.current() */\n      jump\t// in\n    tag_125:\n        /* \"contracts/nft.sol\":780:820  uint256 newItemId = _tokensIds.current() */\n      swap1\n      pop\n        /* \"contracts/nft.sol\":831:861  _safeMint(_account, newItemId) */\n      tag_127\n        /* \"contracts/nft.sol\":841:849  _account */\n      dup3\n        /* \"contracts/nft.sol\":851:860  newItemId */\n      dup3\n        /* \"contracts/nft.sol\":831:840  _safeMint */\n      tag_128\n        /* \"contracts/nft.sol\":831:861  _safeMint(_account, newItemId) */\n      jump\t// in\n    tag_127:\n        /* \"contracts/nft.sol\":692:871  function sendNFT(address _account) public {\r... */\n      pop\n      pop\n      jump\t// out\n        /* \"@openzeppelin/contracts@4.5.0/token/ERC721/ERC721.sol\":5122:5301  function safeTransferFrom(... */\n    tag_50:\n        /* \"@openzeppelin/contracts@4.5.0/token/ERC721/ERC721.sol\":5255:5294  safeTransferFrom(from, to, tokenId, \"\") */\n      tag_130\n        /* \"@openzeppelin/contracts@4.5.0/token/ERC721/ERC721.sol\":5272:5276  from */\n      dup4\n        /* \"@openzeppelin/contracts@4.5.0/token/ERC721/ERC721.sol\":5278:5280  to */\n      dup4\n        /* \"@openzeppelin/contracts@4.5.0/token/ERC721/ERC721.sol\":5282:5289  tokenId */\n      dup4\n        /* \"@openzeppelin/contracts@4.5.0/token/ERC721/ERC721.sol\":5255:5294  safeTransferFrom(from, to, tokenId, \"\") */\n      mload(0x40)\n      dup1\n      0x20\n      add\n      0x40\n      mstore\n      dup1\n      0x00\n      dup2\n      mstore\n      pop\n        /* \"@openzeppelin/contracts@4.5.0/token/ERC721/ERC721.sol\":5255:5271  safeTransferFrom */\n      tag_70\n        /* \"@openzeppelin/contracts@4.5.0/token/ERC721/ERC721.sol\":5255:5294  safeTransferFrom(from, to, tokenId, \"\") */\n      jump\t// in\n    tag_130:\n        /* \"@openzeppelin/contracts@4.5.0/token/ERC721/ERC721.sol\":5122:5301  function safeTransferFrom(... */\n      pop\n      pop\n      pop\n      jump\t// out\n        /* \"@openzeppelin/contracts@4.5.0/token/ERC721/ERC721.sol\":2191:2426  function ownerOf(uint256 tokenId) public view virtual override returns (address) {... */\n    tag_53:\n        /* \"@openzeppelin/contracts@4.5.0/token/ERC721/ERC721.sol\":2263:2270  address */\n      0x00\n        /* \"@openzeppelin/contracts@4.5.0/token/ERC721/ERC721.sol\":2282:2295  address owner */\n      dup1\n        /* \"@openzeppelin/contracts@4.5.0/token/ERC721/ERC721.sol\":2298:2305  _owners */\n      0x02\n        /* \"@openzeppelin/contracts@4.5.0/token/ERC721/ERC721.sol\":2298:2314  _owners[tokenId] */\n      0x00\n        /* \"@openzeppelin/contracts@4.5.0/token/ERC721/ERC721.sol\":2306:2313  tokenId */\n      dup5\n        /* \"@openzeppelin/contracts@4.5.0/token/ERC721/ERC721.sol\":2298:2314  _owners[tokenId] */\n      dup2\n      mstore\n      0x20\n      add\n      swap1\n      dup2\n      mstore\n      0x20\n      add\n      0x00\n      keccak256\n      0x00\n      swap1\n      sload\n      swap1\n      0x0100\n      exp\n      swap1\n      div\n      0xffffffffffffffffffffffffffffffffffffffff\n      and\n        /* \"@openzeppelin/contracts@4.5.0/token/ERC721/ERC721.sol\":2282:2314  address owner = _owners[tokenId] */\n      swap1\n      pop\n        /* \"@openzeppelin/contracts@4.5.0/token/ERC721/ERC721.sol\":2349:2350  0 */\n      0x00\n        /* \"@openzeppelin/contracts@4.5.0/token/ERC721/ERC721.sol\":2332:2351  owner != address(0) */\n      0xffffffffffffffffffffffffffffffffffffffff\n      and\n        /* \"@openzeppelin/contracts@4.5.0/token/ERC721/ERC721.sol\":2332:2337  owner */\n      dup2\n        /* \"@openzeppelin/contracts@4.5.0/token/ERC721/ERC721.sol\":2332:2351  owner != address(0) */\n      0xffffffffffffffffffffffffffffffffffffffff\n      and\n      eq\n      iszero\n        /* \"@openzeppelin/contracts@4.5.0/token/ERC721/ERC721.sol\":2324:2397  require(owner != address(0), \"ERC721: owner query for nonexistent token\") */\n      tag_132\n      jumpi\n      mload(0x40)\n      0x08c379a000000000000000000000000000000000000000000000000000000000\n      dup2\n      mstore\n      0x04\n      add\n      tag_133\n      swap1\n      tag_134\n      jump\t// in\n    tag_133:\n      mload(0x40)\n      dup1\n      swap2\n      sub\n      swap1\n      revert\n    tag_132:\n        /* \"@openzeppelin/contracts@4.5.0/token/ERC721/ERC721.sol\":2414:2419  owner */\n      dup1\n        /* \"@openzeppelin/contracts@4.5.0/token/ERC721/ERC721.sol\":2407:2419  return owner */\n      swap2\n      pop\n      pop\n        /* \"@openzeppelin/contracts@4.5.0/token/ERC721/ERC721.sol\":2191:2426  function ownerOf(uint256 tokenId) public view virtual override returns (address) {... */\n      swap2\n      swap1\n      pop\n      jump\t// out\n        /* \"@openzeppelin/contracts@4.5.0/token/ERC721/ERC721.sol\":1929:2134  function balanceOf(address owner) public view virtual override returns (uint256) {... */\n    tag_57:\n        /* \"@openzeppelin/contracts@4.5.0/token/ERC721/ERC721.sol\":2001:2008  uint256 */\n      0x00\n        /* \"@openzeppelin/contracts@4.5.0/token/ERC721/ERC721.sol\":2045:2046  0 */\n      dup1\n        /* \"@openzeppelin/contracts@4.5.0/token/ERC721/ERC721.sol\":2028:2047  owner != address(0) */\n      0xffffffffffffffffffffffffffffffffffffffff\n      and\n        /* \"@openzeppelin/contracts@4.5.0/token/ERC721/ERC721.sol\":2028:2033  owner */\n      dup3\n        /* \"@openzeppelin/contracts@4.5.0/token/ERC721/ERC721.sol\":2028:2047  owner != address(0) */\n      0xffffffffffffffffffffffffffffffffffffffff\n      and\n      eq\n      iszero\n        /* \"@openzeppelin/contracts@4.5.0/token/ERC721/ERC721.sol\":2020:2094  require(owner != address(0), \"ERC721: balance query for the zero address\") */\n      tag_136\n      jumpi\n      mload(0x40)\n      0x08c379a000000000000000000000000000000000000000000000000000000000\n      dup2\n      mstore\n      0x04\n      add\n      tag_137\n      swap1\n      tag_138\n      jump\t// in\n    tag_137:\n      mload(0x40)\n      dup1\n      swap2\n      sub\n      swap1\n      revert\n    tag_136:\n        /* \"@openzeppelin/contracts@4.5.0/token/ERC721/ERC721.sol\":2111:2120  _balances */\n      0x03\n        /* \"@openzeppelin/contracts@4.5.0/token/ERC721/ERC721.sol\":2111:2127  _balances[owner] */\n      0x00\n        /* \"@openzeppelin/contracts@4.5.0/token/ERC721/ERC721.sol\":2121:2126  owner */\n      dup4\n        /* \"@openzeppelin/contracts@4.5.0/token/ERC721/ERC721.sol\":2111:2127  _balances[owner] */\n      0xffffffffffffffffffffffffffffffffffffffff\n      and\n      0xffffffffffffffffffffffffffffffffffffffff\n      and\n      dup2\n      mstore\n      0x20\n      add\n      swap1\n      dup2\n      mstore\n      0x20\n      add\n      0x00\n      keccak256\n      sload\n        /* \"@openzeppelin/contracts@4.5.0/token/ERC721/ERC721.sol\":2104:2127  return _balances[owner] */\n      swap1\n      pop\n        /* \"@openzeppelin/contracts@4.5.0/token/ERC721/ERC721.sol\":1929:2134  function balanceOf(address owner) public view virtual override returns (uint256) {... */\n      swap2\n      swap1\n      pop\n      jump\t// out\n        /* \"@openzeppelin/contracts@4.5.0/token/ERC721/ERC721.sol\":2650:2752  function symbol() public view virtual override returns (string memory) {... */\n    tag_61:\n        /* \"@openzeppelin/contracts@4.5.0/token/ERC721/ERC721.sol\":2706:2719  string memory */\n      0x60\n        /* \"@openzeppelin/contracts@4.5.0/token/ERC721/ERC721.sol\":2738:2745  _symbol */\n      0x01\n        /* \"@openzeppelin/contracts@4.5.0/token/ERC721/ERC721.sol\":2731:2745  return _symbol */\n      dup1\n      sload\n      tag_140\n      swap1\n      tag_87\n      jump\t// in\n    tag_140:\n      dup1\n      0x1f\n      add\n      0x20\n      dup1\n      swap2\n      div\n      mul\n      0x20\n      add\n      mload(0x40)\n      swap1\n      dup2\n      add\n      0x40\n      mstore\n      dup1\n      swap3\n      swap2\n      swap1\n      dup2\n      dup2\n      mstore\n      0x20\n      add\n      dup3\n      dup1\n      sload\n      tag_141\n      swap1\n      tag_87\n      jump\t// in\n    tag_141:\n      dup1\n      iszero\n      tag_142\n      jumpi\n      dup1\n      0x1f\n      lt\n      tag_143\n      jumpi\n      0x0100\n      dup1\n      dup4\n      sload\n      div\n      mul\n      dup4\n      mstore\n      swap2\n      0x20\n      add\n      swap2\n      jump(tag_142)\n    tag_143:\n      dup3\n      add\n      swap2\n      swap1\n      0x00\n      mstore\n      keccak256(0x00, 0x20)\n      swap1\n    tag_144:\n      dup2\n      sload\n      dup2\n      mstore\n      swap1\n      0x01\n      add\n      swap1\n      0x20\n      add\n      dup1\n      dup4\n      gt\n      tag_144\n      jumpi\n      dup3\n      swap1\n      sub\n      0x1f\n      and\n      dup3\n      add\n      swap2\n    tag_142:\n      pop\n      pop\n      pop\n      pop\n      pop\n      swap1\n      pop\n        /* \"@openzeppelin/contracts@4.5.0/token/ERC721/ERC721.sol\":2650:2752  function symbol() public view virtual override returns (string memory) {... */\n      swap1\n      jump\t// out\n        /* \"@openzeppelin/contracts@4.5.0/token/ERC721/ERC721.sol\":4283:4436  function setApprovalForAll(address operator, bool approved) public virtual override {... */\n    tag_66:\n        /* \"@openzeppelin/contracts@4.5.0/token/ERC721/ERC721.sol\":4377:4429  _setApprovalForAll(_msgSender(), operator, approved) */\n      tag_146\n        /* \"@openzeppelin/contracts@4.5.0/token/ERC721/ERC721.sol\":4396:4408  _msgSender() */\n      tag_147\n        /* \"@openzeppelin/contracts@4.5.0/token/ERC721/ERC721.sol\":4396:4406  _msgSender */\n      tag_104\n        /* \"@openzeppelin/contracts@4.5.0/token/ERC721/ERC721.sol\":4396:4408  _msgSender() */\n      jump\t// in\n    tag_147:\n        /* \"@openzeppelin/contracts@4.5.0/token/ERC721/ERC721.sol\":4410:4418  operator */\n      dup4\n        /* \"@openzeppelin/contracts@4.5.0/token/ERC721/ERC721.sol\":4420:4428  approved */\n      dup4\n        /* \"@openzeppelin/contracts@4.5.0/token/ERC721/ERC721.sol\":4377:4395  _setApprovalForAll */\n      tag_148\n        /* \"@openzeppelin/contracts@4.5.0/token/ERC721/ERC721.sol\":4377:4429  _setApprovalForAll(_msgSender(), operator, approved) */\n      jump\t// in\n    tag_146:\n        /* \"@openzeppelin/contracts@4.5.0/token/ERC721/ERC721.sol\":4283:4436  function setApprovalForAll(address operator, bool approved) public virtual override {... */\n      pop\n      pop\n      jump\t// out\n        /* \"@openzeppelin/contracts@4.5.0/token/ERC721/ERC721.sol\":5367:5687  function safeTransferFrom(... */\n    tag_70:\n        /* \"@openzeppelin/contracts@4.5.0/token/ERC721/ERC721.sol\":5536:5577  _isApprovedOrOwner(_msgSender(), tokenId) */\n      tag_150\n        /* \"@openzeppelin/contracts@4.5.0/token/ERC721/ERC721.sol\":5555:5567  _msgSender() */\n      tag_151\n        /* \"@openzeppelin/contracts@4.5.0/token/ERC721/ERC721.sol\":5555:5565  _msgSender */\n      tag_104\n        /* \"@openzeppelin/contracts@4.5.0/token/ERC721/ERC721.sol\":5555:5567  _msgSender() */\n      jump\t// in\n    tag_151:\n        /* \"@openzeppelin/contracts@4.5.0/token/ERC721/ERC721.sol\":5569:5576  tokenId */\n      dup4\n        /* \"@openzeppelin/contracts@4.5.0/token/ERC721/ERC721.sol\":5536:5554  _isApprovedOrOwner */\n      tag_116\n        /* \"@openzeppelin/contracts@4.5.0/token/ERC721/ERC721.sol\":5536:5577  _isApprovedOrOwner(_msgSender(), tokenId) */\n      jump\t// in\n    tag_150:\n        /* \"@openzeppelin/contracts@4.5.0/token/ERC721/ERC721.sol\":5528:5631  require(_isApprovedOrOwner(_msgSender(), tokenId), \"ERC721: transfer caller is not owner nor approved\") */\n      tag_152\n      jumpi\n      mload(0x40)\n      0x08c379a000000000000000000000000000000000000000000000000000000000\n      dup2\n      mstore\n      0x04\n      add\n      tag_153\n      swap1\n      tag_119\n      jump\t// in\n    tag_153:\n      mload(0x40)\n      dup1\n      swap2\n      sub\n      swap1\n      revert\n    tag_152:\n        /* \"@openzeppelin/contracts@4.5.0/token/ERC721/ERC721.sol\":5641:5680  _safeTransfer(from, to, tokenId, _data) */\n      tag_154\n        /* \"@openzeppelin/contracts@4.5.0/token/ERC721/ERC721.sol\":5655:5659  from */\n      dup5\n        /* \"@openzeppelin/contracts@4.5.0/token/ERC721/ERC721.sol\":5661:5663  to */\n      dup5\n        /* \"@openzeppelin/contracts@4.5.0/token/ERC721/ERC721.sol\":5665:5672  tokenId */\n      dup5\n        /* \"@openzeppelin/contracts@4.5.0/token/ERC721/ERC721.sol\":5674:5679  _data */\n      dup5\n        /* \"@openzeppelin/contracts@4.5.0/token/ERC721/ERC721.sol\":5641:5654  _safeTransfer */\n      tag_155\n        /* \"@openzeppelin/contracts@4.5.0/token/ERC721/ERC721.sol\":5641:5680  _safeTransfer(from, to, tokenId, _data) */\n      jump\t// in\n    tag_154:\n        /* \"@openzeppelin/contracts@4.5.0/token/ERC721/ERC721.sol\":5367:5687  function safeTransferFrom(... */\n      pop\n      pop\n      pop\n      pop\n      jump\t// out\n        /* \"@openzeppelin/contracts@4.5.0/token/ERC721/ERC721.sol\":2818:3147  function tokenURI(uint256 tokenId) public view virtual override returns (string memory) {... */\n    tag_73:\n        /* \"@openzeppelin/contracts@4.5.0/token/ERC721/ERC721.sol\":2891:2904  string memory */\n      0x60\n        /* \"@openzeppelin/contracts@4.5.0/token/ERC721/ERC721.sol\":2924:2940  _exists(tokenId) */\n      tag_157\n        /* \"@openzeppelin/contracts@4.5.0/token/ERC721/ERC721.sol\":2932:2939  tokenId */\n      dup3\n        /* \"@openzeppelin/contracts@4.5.0/token/ERC721/ERC721.sol\":2924:2931  _exists */\n      tag_94\n        /* \"@openzeppelin/contracts@4.5.0/token/ERC721/ERC721.sol\":2924:2940  _exists(tokenId) */\n      jump\t// in\n    tag_157:\n        /* \"@openzeppelin/contracts@4.5.0/token/ERC721/ERC721.sol\":2916:2992  require(_exists(tokenId), \"ERC721Metadata: URI query for nonexistent token\") */\n      tag_158\n      jumpi\n      mload(0x40)\n      0x08c379a000000000000000000000000000000000000000000000000000000000\n      dup2\n      mstore\n      0x04\n      add\n      tag_159\n      swap1\n      tag_160\n      jump\t// in\n    tag_159:\n      mload(0x40)\n      dup1\n      swap2\n      sub\n      swap1\n      revert\n    tag_158:\n        /* \"@openzeppelin/contracts@4.5.0/token/ERC721/ERC721.sol\":3003:3024  string memory baseURI */\n      0x00\n        /* \"@openzeppelin/contracts@4.5.0/token/ERC721/ERC721.sol\":3027:3037  _baseURI() */\n      tag_161\n        /* \"@openzeppelin/contracts@4.5.0/token/ERC721/ERC721.sol\":3027:3035  _baseURI */\n      tag_162\n        /* \"@openzeppelin/contracts@4.5.0/token/ERC721/ERC721.sol\":3027:3037  _baseURI() */\n      jump\t// in\n    tag_161:\n        /* \"@openzeppelin/contracts@4.5.0/token/ERC721/ERC721.sol\":3003:3037  string memory baseURI = _baseURI() */\n      swap1\n      pop\n        /* \"@openzeppelin/contracts@4.5.0/token/ERC721/ERC721.sol\":3078:3079  0 */\n      0x00\n        /* \"@openzeppelin/contracts@4.5.0/token/ERC721/ERC721.sol\":3060:3067  baseURI */\n      dup2\n        /* \"@openzeppelin/contracts@4.5.0/token/ERC721/ERC721.sol\":3054:3075  bytes(baseURI).length */\n      mload\n        /* \"@openzeppelin/contracts@4.5.0/token/ERC721/ERC721.sol\":3054:3079  bytes(baseURI).length > 0 */\n      gt\n        /* \"@openzeppelin/contracts@4.5.0/token/ERC721/ERC721.sol\":3054:3140  bytes(baseURI).length > 0 ? string(abi.encodePacked(baseURI, tokenId.toString())) : \"\" */\n      tag_163\n      jumpi\n      mload(0x40)\n      dup1\n      0x20\n      add\n      0x40\n      mstore\n      dup1\n      0x00\n      dup2\n      mstore\n      pop\n      jump(tag_164)\n    tag_163:\n        /* \"@openzeppelin/contracts@4.5.0/token/ERC721/ERC721.sol\":3106:3113  baseURI */\n      dup1\n        /* \"@openzeppelin/contracts@4.5.0/token/ERC721/ERC721.sol\":3115:3133  tokenId.toString() */\n      tag_165\n        /* \"@openzeppelin/contracts@4.5.0/token/ERC721/ERC721.sol\":3115:3122  tokenId */\n      dup5\n        /* \"@openzeppelin/contracts@4.5.0/token/ERC721/ERC721.sol\":3115:3131  tokenId.toString */\n      tag_166\n        /* \"@openzeppelin/contracts@4.5.0/token/ERC721/ERC721.sol\":3115:3133  tokenId.toString() */\n      jump\t// in\n    tag_165:\n        /* \"@openzeppelin/contracts@4.5.0/token/ERC721/ERC721.sol\":3089:3134  abi.encodePacked(baseURI, tokenId.toString()) */\n      add(0x20, mload(0x40))\n      tag_167\n      swap3\n      swap2\n      swap1\n      tag_168\n      jump\t// in\n    tag_167:\n      mload(0x40)\n      0x20\n      dup2\n      dup4\n      sub\n      sub\n      dup2\n      mstore\n      swap1\n      0x40\n      mstore\n        /* \"@openzeppelin/contracts@4.5.0/token/ERC721/ERC721.sol\":3054:3140  bytes(baseURI).length > 0 ? string(abi.encodePacked(baseURI, tokenId.toString())) : \"\" */\n    tag_164:\n        /* \"@openzeppelin/contracts@4.5.0/token/ERC721/ERC721.sol\":3047:3140  return bytes(baseURI).length > 0 ? string(abi.encodePacked(baseURI, tokenId.toString())) : \"\" */\n      swap2\n      pop\n      pop\n        /* \"@openzeppelin/contracts@4.5.0/token/ERC721/ERC721.sol\":2818:3147  function tokenURI(uint256 tokenId) public view virtual override returns (string memory) {... */\n      swap2\n      swap1\n      pop\n      jump\t// out\n        /* \"@openzeppelin/contracts@4.5.0/token/ERC721/ERC721.sol\":4502:4664  function isApprovedForAll(address owner, address operator) public view virtual override returns (bool) {... */\n    tag_78:\n        /* \"@openzeppelin/contracts@4.5.0/token/ERC721/ERC721.sol\":4599:4603  bool */\n      0x00\n        /* \"@openzeppelin/contracts@4.5.0/token/ERC721/ERC721.sol\":4622:4640  _operatorApprovals */\n      0x05\n        /* \"@openzeppelin/contracts@4.5.0/token/ERC721/ERC721.sol\":4622:4647  _operatorApprovals[owner] */\n      0x00\n        /* \"@openzeppelin/contracts@4.5.0/token/ERC721/ERC721.sol\":4641:4646  owner */\n      dup5\n        /* \"@openzeppelin/contracts@4.5.0/token/ERC721/ERC721.sol\":4622:4647  _operatorApprovals[owner] */\n      0xffffffffffffffffffffffffffffffffffffffff\n      and\n      0xffffffffffffffffffffffffffffffffffffffff\n      and\n      dup2\n      mstore\n      0x20\n      add\n      swap1\n      dup2\n      mstore\n      0x20\n      add\n      0x00\n      keccak256\n        /* \"@openzeppelin/contracts@4.5.0/token/ERC721/ERC721.sol\":4622:4657  _operatorApprovals[owner][operator] */\n      0x00\n        /* \"@openzeppelin/contracts@4.5.0/token/ERC721/ERC721.sol\":4648:4656  operator */\n      dup4\n        /* \"@openzeppelin/contracts@4.5.0/token/ERC721/ERC721.sol\":4622:4657  _operatorApprovals[owner][operator] */\n      0xffffffffffffffffffffffffffffffffffffffff\n      and\n      0xffffffffffffffffffffffffffffffffffffffff\n      and\n      dup2\n      mstore\n      0x20\n      add\n      swap1\n      dup2\n      mstore\n      0x20\n      add\n      0x00\n      keccak256\n      0x00\n      swap1\n      sload\n      swap1\n      0x0100\n      exp\n      swap1\n      div\n      0xff\n      and\n        /* \"@openzeppelin/contracts@4.5.0/token/ERC721/ERC721.sol\":4615:4657  return _operatorApprovals[owner][operator] */\n      swap1\n      pop\n        /* \"@openzeppelin/contracts@4.5.0/token/ERC721/ERC721.sol\":4502:4664  function isApprovedForAll(address owner, address operator) public view virtual override returns (bool) {... */\n      swap3\n      swap2\n      pop\n      pop\n      jump\t// out\n        /* \"@openzeppelin/contracts@4.5.0/utils/introspection/ERC165.sol\":829:984  function supportsInterface(bytes4 interfaceId) public view virtual override returns (bool) {... */\n    tag_84:\n        /* \"@openzeppelin/contracts@4.5.0/utils/introspection/ERC165.sol\":914:918  bool */\n      0x00\n        /* \"@openzeppelin/contracts@4.5.0/utils/introspection/ERC165.sol\":952:977  type(IERC165).interfaceId */\n      0x01ffc9a700000000000000000000000000000000000000000000000000000000\n        /* \"@openzeppelin/contracts@4.5.0/utils/introspection/ERC165.sol\":937:977  interfaceId == type(IERC165).interfaceId */\n      not(0xffffffffffffffffffffffffffffffffffffffffffffffffffffffff)\n      and\n        /* \"@openzeppelin/contracts@4.5.0/utils/introspection/ERC165.sol\":937:948  interfaceId */\n      dup3\n        /* \"@openzeppelin/contracts@4.5.0/utils/introspection/ERC165.sol\":937:977  interfaceId == type(IERC165).interfaceId */\n      not(0xffffffffffffffffffffffffffffffffffffffffffffffffffffffff)\n      and\n      eq\n        /* \"@openzeppelin/contracts@4.5.0/utils/introspection/ERC165.sol\":930:977  return interfaceId == type(IERC165).interfaceId */\n      swap1\n      pop\n        /* \"@openzeppelin/contracts@4.5.0/utils/introspection/ERC165.sol\":829:984  function supportsInterface(bytes4 interfaceId) public view virtual override returns (bool) {... */\n      swap2\n      swap1\n      pop\n      jump\t// out\n        /* \"@openzeppelin/contracts@4.5.0/token/ERC721/ERC721.sol\":7159:7284  function _exists(uint256 tokenId) internal view virtual returns (bool) {... */\n    tag_94:\n        /* \"@openzeppelin/contracts@4.5.0/token/ERC721/ERC721.sol\":7224:7228  bool */\n      0x00\n        /* \"@openzeppelin/contracts@4.5.0/token/ERC721/ERC721.sol\":7275:7276  0 */\n      dup1\n        /* \"@openzeppelin/contracts@4.5.0/token/ERC721/ERC721.sol\":7247:7277  _owners[tokenId] != address(0) */\n      0xffffffffffffffffffffffffffffffffffffffff\n      and\n        /* \"@openzeppelin/contracts@4.5.0/token/ERC721/ERC721.sol\":7247:7254  _owners */\n      0x02\n        /* \"@openzeppelin/contracts@4.5.0/token/ERC721/ERC721.sol\":7247:7263  _owners[tokenId] */\n      0x00\n        /* \"@openzeppelin/contracts@4.5.0/token/ERC721/ERC721.sol\":7255:7262  tokenId */\n      dup5\n        /* \"@openzeppelin/contracts@4.5.0/token/ERC721/ERC721.sol\":7247:7263  _owners[tokenId] */\n      dup2\n      mstore\n      0x20\n      add\n      swap1\n      dup2\n      mstore\n      0x20\n      add\n      0x00\n      keccak256\n      0x00\n      swap1\n      sload\n      swap1\n      0x0100\n      exp\n      swap1\n      div\n      0xffffffffffffffffffffffffffffffffffffffff\n      and\n        /* \"@openzeppelin/contracts@4.5.0/token/ERC721/ERC721.sol\":7247:7277  _owners[tokenId] != address(0) */\n      0xffffffffffffffffffffffffffffffffffffffff\n      and\n      eq\n      iszero\n        /* \"@openzeppelin/contracts@4.5.0/token/ERC721/ERC721.sol\":7240:7277  return _owners[tokenId] != address(0) */\n      swap1\n      pop\n        /* \"@openzeppelin/contracts@4.5.0/token/ERC721/ERC721.sol\":7159:7284  function _exists(uint256 tokenId) internal view virtual returns (bool) {... */\n      swap2\n      swap1\n      pop\n      jump\t// out\n        /* \"@openzeppelin/contracts@4.5.0/utils/Context.sol\":640:736  function _msgSender() internal view virtual returns (address) {... */\n    tag_104:\n        /* \"@openzeppelin/contracts@4.5.0/utils/Context.sol\":693:700  address */\n      0x00\n        /* \"@openzeppelin/contracts@4.5.0/utils/Context.sol\":719:729  msg.sender */\n      caller\n        /* \"@openzeppelin/contracts@4.5.0/utils/Context.sol\":712:729  return msg.sender */\n      swap1\n      pop\n        /* \"@openzeppelin/contracts@4.5.0/utils/Context.sol\":640:736  function _msgSender() internal view virtual returns (address) {... */\n      swap1\n      jump\t// out\n        /* \"@openzeppelin/contracts@4.5.0/token/ERC721/ERC721.sol\":11168:11339  function _approve(address to, uint256 tokenId) internal virtual {... */\n    tag_112:\n        /* \"@openzeppelin/contracts@4.5.0/token/ERC721/ERC721.sol\":11269:11271  to */\n      dup2\n        /* \"@openzeppelin/contracts@4.5.0/token/ERC721/ERC721.sol\":11242:11257  _tokenApprovals */\n      0x04\n        /* \"@openzeppelin/contracts@4.5.0/token/ERC721/ERC721.sol\":11242:11266  _tokenApprovals[tokenId] */\n      0x00\n        /* \"@openzeppelin/contracts@4.5.0/token/ERC721/ERC721.sol\":11258:11265  tokenId */\n      dup4\n        /* \"@openzeppelin/contracts@4.5.0/token/ERC721/ERC721.sol\":11242:11266  _tokenApprovals[tokenId] */\n      dup2\n      mstore\n      0x20\n      add\n      swap1\n      dup2\n      mstore\n      0x20\n      add\n      0x00\n      keccak256\n      0x00\n        /* \"@openzeppelin/contracts@4.5.0/token/ERC721/ERC721.sol\":11242:11271  _tokenApprovals[tokenId] = to */\n      0x0100\n      exp\n      dup2\n      sload\n      dup2\n      0xffffffffffffffffffffffffffffffffffffffff\n      mul\n      not\n      and\n      swap1\n      dup4\n      0xffffffffffffffffffffffffffffffffffffffff\n      and\n      mul\n      or\n      swap1\n      sstore\n      pop\n        /* \"@openzeppelin/contracts@4.5.0/token/ERC721/ERC721.sol\":11324:11331  tokenId */\n      dup1\n        /* \"@openzeppelin/contracts@4.5.0/token/ERC721/ERC721.sol\":11320:11322  to */\n      dup3\n        /* \"@openzeppelin/contracts@4.5.0/token/ERC721/ERC721.sol\":11286:11332  Approval(ERC721.ownerOf(tokenId), to, tokenId) */\n      0xffffffffffffffffffffffffffffffffffffffff\n      and\n        /* \"@openzeppelin/contracts@4.5.0/token/ERC721/ERC721.sol\":11295:11318  ERC721.ownerOf(tokenId) */\n      tag_174\n        /* \"@openzeppelin/contracts@4.5.0/token/ERC721/ERC721.sol\":11310:11317  tokenId */\n      dup4\n        /* \"@openzeppelin/contracts@4.5.0/token/ERC721/ERC721.sol\":11295:11309  ERC721.ownerOf */\n      tag_53\n        /* \"@openzeppelin/contracts@4.5.0/token/ERC721/ERC721.sol\":11295:11318  ERC721.ownerOf(tokenId) */\n      jump\t// in\n    tag_174:\n        /* \"@openzeppelin/contracts@4.5.0/token/ERC721/ERC721.sol\":11286:11332  Approval(ERC721.ownerOf(tokenId), to, tokenId) */\n      0xffffffffffffffffffffffffffffffffffffffff\n      and\n      0x8c5be1e5ebec7d5bd14f71427d1e84f3dd0314c0f7b2291e5b200ac8c7c3b925\n      mload(0x40)\n      mload(0x40)\n      dup1\n      swap2\n      sub\n      swap1\n      log4\n        /* \"@openzeppelin/contracts@4.5.0/token/ERC721/ERC721.sol\":11168:11339  function _approve(address to, uint256 tokenId) internal virtual {... */\n      pop\n      pop\n      jump\t// out\n        /* \"@openzeppelin/contracts@4.5.0/token/ERC721/ERC721.sol\":7442:7786  function _isApprovedOrOwner(address spender, uint256 tokenId) internal view virtual returns (bool) {... */\n    tag_116:\n        /* \"@openzeppelin/contracts@4.5.0/token/ERC721/ERC721.sol\":7535:7539  bool */\n      0x00\n        /* \"@openzeppelin/contracts@4.5.0/token/ERC721/ERC721.sol\":7559:7575  _exists(tokenId) */\n      tag_176\n        /* \"@openzeppelin/contracts@4.5.0/token/ERC721/ERC721.sol\":7567:7574  tokenId */\n      dup3\n        /* \"@openzeppelin/contracts@4.5.0/token/ERC721/ERC721.sol\":7559:7566  _exists */\n      tag_94\n        /* \"@openzeppelin/contracts@4.5.0/token/ERC721/ERC721.sol\":7559:7575  _exists(tokenId) */\n      jump\t// in\n    tag_176:\n        /* \"@openzeppelin/contracts@4.5.0/token/ERC721/ERC721.sol\":7551:7624  require(_exists(tokenId), \"ERC721: operator query for nonexistent token\") */\n      tag_177\n      jumpi\n      mload(0x40)\n      0x08c379a000000000000000000000000000000000000000000000000000000000\n      dup2\n      mstore\n      0x04\n      add\n      tag_178\n      swap1\n      tag_179\n      jump\t// in\n    tag_178:\n      mload(0x40)\n      dup1\n      swap2\n      sub\n      swap1\n      revert\n    tag_177:\n        /* \"@openzeppelin/contracts@4.5.0/token/ERC721/ERC721.sol\":7634:7647  address owner */\n      0x00\n        /* \"@openzeppelin/contracts@4.5.0/token/ERC721/ERC721.sol\":7650:7673  ERC721.ownerOf(tokenId) */\n      tag_180\n        /* \"@openzeppelin/contracts@4.5.0/token/ERC721/ERC721.sol\":7665:7672  tokenId */\n      dup4\n        /* \"@openzeppelin/contracts@4.5.0/token/ERC721/ERC721.sol\":7650:7664  ERC721.ownerOf */\n      tag_53\n        /* \"@openzeppelin/contracts@4.5.0/token/ERC721/ERC721.sol\":7650:7673  ERC721.ownerOf(tokenId) */\n      jump\t// in\n    tag_180:\n        /* \"@openzeppelin/contracts@4.5.0/token/ERC721/ERC721.sol\":7634:7673  address owner = ERC721.ownerOf(tokenId) */\n      swap1\n      pop\n        /* \"@openzeppelin/contracts@4.5.0/token/ERC721/ERC721.sol\":7702:7707  owner */\n      dup1\n        /* \"@openzeppelin/contracts@4.5.0/token/ERC721/ERC721.sol\":7691:7707  spender == owner */\n      0xffffffffffffffffffffffffffffffffffffffff\n      and\n        /* \"@openzeppelin/contracts@4.5.0/token/ERC721/ERC721.sol\":7691:7698  spender */\n      dup5\n        /* \"@openzeppelin/contracts@4.5.0/token/ERC721/ERC721.sol\":7691:7707  spender == owner */\n      0xffffffffffffffffffffffffffffffffffffffff\n      and\n      eq\n        /* \"@openzeppelin/contracts@4.5.0/token/ERC721/ERC721.sol\":7691:7742  spender == owner || getApproved(tokenId) == spender */\n      dup1\n      tag_181\n      jumpi\n      pop\n        /* \"@openzeppelin/contracts@4.5.0/token/ERC721/ERC721.sol\":7735:7742  spender */\n      dup4\n        /* \"@openzeppelin/contracts@4.5.0/token/ERC721/ERC721.sol\":7711:7742  getApproved(tokenId) == spender */\n      0xffffffffffffffffffffffffffffffffffffffff\n      and\n        /* \"@openzeppelin/contracts@4.5.0/token/ERC721/ERC721.sol\":7711:7731  getApproved(tokenId) */\n      tag_182\n        /* \"@openzeppelin/contracts@4.5.0/token/ERC721/ERC721.sol\":7723:7730  tokenId */\n      dup5\n        /* \"@openzeppelin/contracts@4.5.0/token/ERC721/ERC721.sol\":7711:7722  getApproved */\n      tag_33\n        /* \"@openzeppelin/contracts@4.5.0/token/ERC721/ERC721.sol\":7711:7731  getApproved(tokenId) */\n      jump\t// in\n    tag_182:\n        /* \"@openzeppelin/contracts@4.5.0/token/ERC721/ERC721.sol\":7711:7742  getApproved(tokenId) == spender */\n      0xffffffffffffffffffffffffffffffffffffffff\n      and\n      eq\n        /* \"@openzeppelin/contracts@4.5.0/token/ERC721/ERC721.sol\":7691:7742  spender == owner || getApproved(tokenId) == spender */\n    tag_181:\n        /* \"@openzeppelin/contracts@4.5.0/token/ERC721/ERC721.sol\":7691:7778  spender == owner || getApproved(tokenId) == spender || isApprovedForAll(owner, spender) */\n      dup1\n      tag_183\n      jumpi\n      pop\n        /* \"@openzeppelin/contracts@4.5.0/token/ERC721/ERC721.sol\":7746:7778  isApprovedForAll(owner, spender) */\n      tag_184\n        /* \"@openzeppelin/contracts@4.5.0/token/ERC721/ERC721.sol\":7763:7768  owner */\n      dup2\n        /* \"@openzeppelin/contracts@4.5.0/token/ERC721/ERC721.sol\":7770:7777  spender */\n      dup6\n        /* \"@openzeppelin/contracts@4.5.0/token/ERC721/ERC721.sol\":7746:7762  isApprovedForAll */\n      tag_78\n        /* \"@openzeppelin/contracts@4.5.0/token/ERC721/ERC721.sol\":7746:7778  isApprovedForAll(owner, spender) */\n      jump\t// in\n    tag_184:\n        /* \"@openzeppelin/contracts@4.5.0/token/ERC721/ERC721.sol\":7691:7778  spender == owner || getApproved(tokenId) == spender || isApprovedForAll(owner, spender) */\n    tag_183:\n        /* \"@openzeppelin/contracts@4.5.0/token/ERC721/ERC721.sol\":7683:7779  return (spender == owner || getApproved(tokenId) == spender || isApprovedForAll(owner, spender)) */\n      swap2\n      pop\n      pop\n        /* \"@openzeppelin/contracts@4.5.0/token/ERC721/ERC721.sol\":7442:7786  function _isApprovedOrOwner(address spender, uint256 tokenId) internal view virtual returns (bool) {... */\n      swap3\n      swap2\n      pop\n      pop\n      jump\t// out\n        /* \"@openzeppelin/contracts@4.5.0/token/ERC721/ERC721.sol\":10452:11057  function _transfer(... */\n    tag_121:\n        /* \"@openzeppelin/contracts@4.5.0/token/ERC721/ERC721.sol\":10606:10610  from */\n      dup3\n        /* \"@openzeppelin/contracts@4.5.0/token/ERC721/ERC721.sol\":10579:10610  ERC721.ownerOf(tokenId) == from */\n      0xffffffffffffffffffffffffffffffffffffffff\n      and\n        /* \"@openzeppelin/contracts@4.5.0/token/ERC721/ERC721.sol\":10579:10602  ERC721.ownerOf(tokenId) */\n      tag_186\n        /* \"@openzeppelin/contracts@4.5.0/token/ERC721/ERC721.sol\":10594:10601  tokenId */\n      dup3\n        /* \"@openzeppelin/contracts@4.5.0/token/ERC721/ERC721.sol\":10579:10593  ERC721.ownerOf */\n      tag_53\n        /* \"@openzeppelin/contracts@4.5.0/token/ERC721/ERC721.sol\":10579:10602  ERC721.ownerOf(tokenId) */\n      jump\t// in\n    tag_186:\n        /* \"@openzeppelin/contracts@4.5.0/token/ERC721/ERC721.sol\":10579:10610  ERC721.ownerOf(tokenId) == from */\n      0xffffffffffffffffffffffffffffffffffffffff\n      and\n      eq\n        /* \"@openzeppelin/contracts@4.5.0/token/ERC721/ERC721.sol\":10571:10652  require(ERC721.ownerOf(tokenId) == from, \"ERC721: transfer from incorrect owner\") */\n      tag_187\n      jumpi\n      mload(0x40)\n      0x08c379a000000000000000000000000000000000000000000000000000000000\n      dup2\n      mstore\n      0x04\n      add\n      tag_188\n      swap1\n      tag_189\n      jump\t// in\n    tag_188:\n      mload(0x40)\n      dup1\n      swap2\n      sub\n      swap1\n      revert\n    tag_187:\n        /* \"@openzeppelin/contracts@4.5.0/token/ERC721/ERC721.sol\":10684:10685  0 */\n      0x00\n        /* \"@openzeppelin/contracts@4.5.0/token/ERC721/ERC721.sol\":10670:10686  to != address(0) */\n      0xffffffffffffffffffffffffffffffffffffffff\n      and\n        /* \"@openzeppelin/contracts@4.5.0/token/ERC721/ERC721.sol\":10670:10672  to */\n      dup3\n        /* \"@openzeppelin/contracts@4.5.0/token/ERC721/ERC721.sol\":10670:10686  to != address(0) */\n      0xffffffffffffffffffffffffffffffffffffffff\n      and\n      eq\n      iszero\n        /* \"@openzeppelin/contracts@4.5.0/token/ERC721/ERC721.sol\":10662:10727  require(to != address(0), \"ERC721: transfer to the zero address\") */\n      tag_190\n      jumpi\n      mload(0x40)\n      0x08c379a000000000000000000000000000000000000000000000000000000000\n      dup2\n      mstore\n      0x04\n      add\n      tag_191\n      swap1\n      tag_192\n      jump\t// in\n    tag_191:\n      mload(0x40)\n      dup1\n      swap2\n      sub\n      swap1\n      revert\n    tag_190:\n        /* \"@openzeppelin/contracts@4.5.0/token/ERC721/ERC721.sol\":10738:10777  _beforeTokenTransfer(from, to, tokenId) */\n      tag_193\n        /* \"@openzeppelin/contracts@4.5.0/token/ERC721/ERC721.sol\":10759:10763  from */\n      dup4\n        /* \"@openzeppelin/contracts@4.5.0/token/ERC721/ERC721.sol\":10765:10767  to */\n      dup4\n        /* \"@openzeppelin/contracts@4.5.0/token/ERC721/ERC721.sol\":10769:10776  tokenId */\n      dup4\n        /* \"@openzeppelin/contracts@4.5.0/token/ERC721/ERC721.sol\":10738:10758  _beforeTokenTransfer */\n      tag_194\n        /* \"@openzeppelin/contracts@4.5.0/token/ERC721/ERC721.sol\":10738:10777  _beforeTokenTransfer(from, to, tokenId) */\n      jump\t// in\n    tag_193:\n        /* \"@openzeppelin/contracts@4.5.0/token/ERC721/ERC721.sol\":10839:10868  _approve(address(0), tokenId) */\n      tag_195\n        /* \"@openzeppelin/contracts@4.5.0/token/ERC721/ERC721.sol\":10856:10857  0 */\n      0x00\n        /* \"@openzeppelin/contracts@4.5.0/token/ERC721/ERC721.sol\":10860:10867  tokenId */\n      dup3\n        /* \"@openzeppelin/contracts@4.5.0/token/ERC721/ERC721.sol\":10839:10847  _approve */\n      tag_112\n        /* \"@openzeppelin/contracts@4.5.0/token/ERC721/ERC721.sol\":10839:10868  _approve(address(0), tokenId) */\n      jump\t// in\n    tag_195:\n        /* \"@openzeppelin/contracts@4.5.0/token/ERC721/ERC721.sol\":10898:10899  1 */\n      0x01\n        /* \"@openzeppelin/contracts@4.5.0/token/ERC721/ERC721.sol\":10879:10888  _balances */\n      0x03\n        /* \"@openzeppelin/contracts@4.5.0/token/ERC721/ERC721.sol\":10879:10894  _balances[from] */\n      0x00\n        /* \"@openzeppelin/contracts@4.5.0/token/ERC721/ERC721.sol\":10889:10893  from */\n      dup6\n        /* \"@openzeppelin/contracts@4.5.0/token/ERC721/ERC721.sol\":10879:10894  _balances[from] */\n      0xffffffffffffffffffffffffffffffffffffffff\n      and\n      0xffffffffffffffffffffffffffffffffffffffff\n      and\n      dup2\n      mstore\n      0x20\n      add\n      swap1\n      dup2\n      mstore\n      0x20\n      add\n      0x00\n      keccak256\n      0x00\n        /* \"@openzeppelin/contracts@4.5.0/token/ERC721/ERC721.sol\":10879:10899  _balances[from] -= 1 */\n      dup3\n      dup3\n      sload\n      tag_196\n      swap2\n      swap1\n      tag_197\n      jump\t// in\n    tag_196:\n      swap3\n      pop\n      pop\n      dup2\n      swap1\n      sstore\n      pop\n        /* \"@openzeppelin/contracts@4.5.0/token/ERC721/ERC721.sol\":10926:10927  1 */\n      0x01\n        /* \"@openzeppelin/contracts@4.5.0/token/ERC721/ERC721.sol\":10909:10918  _balances */\n      0x03\n        /* \"@openzeppelin/contracts@4.5.0/token/ERC721/ERC721.sol\":10909:10922  _balances[to] */\n      0x00\n        /* \"@openzeppelin/contracts@4.5.0/token/ERC721/ERC721.sol\":10919:10921  to */\n      dup5\n        /* \"@openzeppelin/contracts@4.5.0/token/ERC721/ERC721.sol\":10909:10922  _balances[to] */\n      0xffffffffffffffffffffffffffffffffffffffff\n      and\n      0xffffffffffffffffffffffffffffffffffffffff\n      and\n      dup2\n      mstore\n      0x20\n      add\n      swap1\n      dup2\n      mstore\n      0x20\n      add\n      0x00\n      keccak256\n      0x00\n        /* \"@openzeppelin/contracts@4.5.0/token/ERC721/ERC721.sol\":10909:10927  _balances[to] += 1 */\n      dup3\n      dup3\n      sload\n      tag_198\n      swap2\n      swap1\n      tag_199\n      jump\t// in\n    tag_198:\n      swap3\n      pop\n      pop\n      dup2\n      swap1\n      sstore\n      pop\n        /* \"@openzeppelin/contracts@4.5.0/token/ERC721/ERC721.sol\":10956:10958  to */\n      dup2\n        /* \"@openzeppelin/contracts@4.5.0/token/ERC721/ERC721.sol\":10937:10944  _owners */\n      0x02\n        /* \"@openzeppelin/contracts@4.5.0/token/ERC721/ERC721.sol\":10937:10953  _owners[tokenId] */\n      0x00\n        /* \"@openzeppelin/contracts@4.5.0/token/ERC721/ERC721.sol\":10945:10952  tokenId */\n      dup4\n        /* \"@openzeppelin/contracts@4.5.0/token/ERC721/ERC721.sol\":10937:10953  _owners[tokenId] */\n      dup2\n      mstore\n      0x20\n      add\n      swap1\n      dup2\n      mstore\n      0x20\n      add\n      0x00\n      keccak256\n      0x00\n        /* \"@openzeppelin/contracts@4.5.0/token/ERC721/ERC721.sol\":10937:10958  _owners[tokenId] = to */\n      0x0100\n      exp\n      dup2\n      sload\n      dup2\n      0xffffffffffffffffffffffffffffffffffffffff\n      mul\n      not\n      and\n      swap1\n      dup4\n      0xffffffffffffffffffffffffffffffffffffffff\n      and\n      mul\n      or\n      swap1\n      sstore\n      pop\n        /* \"@openzeppelin/contracts@4.5.0/token/ERC721/ERC721.sol\":10993:11000  tokenId */\n      dup1\n        /* \"@openzeppelin/contracts@4.5.0/token/ERC721/ERC721.sol\":10989:10991  to */\n      dup3\n        /* \"@openzeppelin/contracts@4.5.0/token/ERC721/ERC721.sol\":10974:11001  Transfer(from, to, tokenId) */\n      0xffffffffffffffffffffffffffffffffffffffff\n      and\n        /* \"@openzeppelin/contracts@4.5.0/token/ERC721/ERC721.sol\":10983:10987  from */\n      dup5\n        /* \"@openzeppelin/contracts@4.5.0/token/ERC721/ERC721.sol\":10974:11001  Transfer(from, to, tokenId) */\n      0xffffffffffffffffffffffffffffffffffffffff\n      and\n      0xddf252ad1be2c89b69c2b068fc378daa952ba7f163c4a11628f55a4df523b3ef\n      mload(0x40)\n      mload(0x40)\n      dup1\n      swap2\n      sub\n      swap1\n      log4\n        /* \"@openzeppelin/contracts@4.5.0/token/ERC721/ERC721.sol\":11012:11050  _afterTokenTransfer(from, to, tokenId) */\n      tag_200\n        /* \"@openzeppelin/contracts@4.5.0/token/ERC721/ERC721.sol\":11032:11036  from */\n      dup4\n        /* \"@openzeppelin/contracts@4.5.0/token/ERC721/ERC721.sol\":11038:11040  to */\n      dup4\n        /* \"@openzeppelin/contracts@4.5.0/token/ERC721/ERC721.sol\":11042:11049  tokenId */\n      dup4\n        /* \"@openzeppelin/contracts@4.5.0/token/ERC721/ERC721.sol\":11012:11031  _afterTokenTransfer */\n      tag_201\n        /* \"@openzeppelin/contracts@4.5.0/token/ERC721/ERC721.sol\":11012:11050  _afterTokenTransfer(from, to, tokenId) */\n      jump\t// in\n    tag_200:\n        /* \"@openzeppelin/contracts@4.5.0/token/ERC721/ERC721.sol\":10452:11057  function _transfer(... */\n      pop\n      pop\n      pop\n      jump\t// out\n        /* \"@openzeppelin/contracts@4.5.0/utils/Counters.sol\":945:1068  function increment(Counter storage counter) internal {... */\n    tag_124:\n        /* \"@openzeppelin/contracts@4.5.0/utils/Counters.sol\":1050:1051  1 */\n      0x01\n        /* \"@openzeppelin/contracts@4.5.0/utils/Counters.sol\":1032:1039  counter */\n      dup2\n        /* \"@openzeppelin/contracts@4.5.0/utils/Counters.sol\":1032:1046  counter._value */\n      0x00\n      add\n      0x00\n        /* \"@openzeppelin/contracts@4.5.0/utils/Counters.sol\":1032:1051  counter._value += 1 */\n      dup3\n      dup3\n      sload\n      add\n      swap3\n      pop\n      pop\n      dup2\n      swap1\n      sstore\n      pop\n        /* \"@openzeppelin/contracts@4.5.0/utils/Counters.sol\":945:1068  function increment(Counter storage counter) internal {... */\n      pop\n      jump\t// out\n        /* \"@openzeppelin/contracts@4.5.0/utils/Counters.sol\":827:939  function current(Counter storage counter) internal view returns (uint256) {... */\n    tag_126:\n        /* \"@openzeppelin/contracts@4.5.0/utils/Counters.sol\":892:899  uint256 */\n      0x00\n        /* \"@openzeppelin/contracts@4.5.0/utils/Counters.sol\":918:925  counter */\n      dup2\n        /* \"@openzeppelin/contracts@4.5.0/utils/Counters.sol\":918:932  counter._value */\n      0x00\n      add\n      sload\n        /* \"@openzeppelin/contracts@4.5.0/utils/Counters.sol\":911:932  return counter._value */\n      swap1\n      pop\n        /* \"@openzeppelin/contracts@4.5.0/utils/Counters.sol\":827:939  function current(Counter storage counter) internal view returns (uint256) {... */\n      swap2\n      swap1\n      pop\n      jump\t// out\n        /* \"@openzeppelin/contracts@4.5.0/token/ERC721/ERC721.sol\":8116:8224  function _safeMint(address to, uint256 tokenId) internal virtual {... */\n    tag_128:\n        /* \"@openzeppelin/contracts@4.5.0/token/ERC721/ERC721.sol\":8191:8217  _safeMint(to, tokenId, \"\") */\n      tag_205\n        /* \"@openzeppelin/contracts@4.5.0/token/ERC721/ERC721.sol\":8201:8203  to */\n      dup3\n        /* \"@openzeppelin/contracts@4.5.0/token/ERC721/ERC721.sol\":8205:8212  tokenId */\n      dup3\n        /* \"@openzeppelin/contracts@4.5.0/token/ERC721/ERC721.sol\":8191:8217  _safeMint(to, tokenId, \"\") */\n      mload(0x40)\n      dup1\n      0x20\n      add\n      0x40\n      mstore\n      dup1\n      0x00\n      dup2\n      mstore\n      pop\n        /* \"@openzeppelin/contracts@4.5.0/token/ERC721/ERC721.sol\":8191:8200  _safeMint */\n      tag_206\n        /* \"@openzeppelin/contracts@4.5.0/token/ERC721/ERC721.sol\":8191:8217  _safeMint(to, tokenId, \"\") */\n      jump\t// in\n    tag_205:\n        /* \"@openzeppelin/contracts@4.5.0/token/ERC721/ERC721.sol\":8116:8224  function _safeMint(address to, uint256 tokenId) internal virtual {... */\n      pop\n      pop\n      jump\t// out\n        /* \"@openzeppelin/contracts@4.5.0/token/ERC721/ERC721.sol\":11474:11781  function _setApprovalForAll(... */\n    tag_148:\n        /* \"@openzeppelin/contracts@4.5.0/token/ERC721/ERC721.sol\":11624:11632  operator */\n      dup2\n        /* \"@openzeppelin/contracts@4.5.0/token/ERC721/ERC721.sol\":11615:11632  owner != operator */\n      0xffffffffffffffffffffffffffffffffffffffff\n      and\n        /* \"@openzeppelin/contracts@4.5.0/token/ERC721/ERC721.sol\":11615:11620  owner */\n      dup4\n        /* \"@openzeppelin/contracts@4.5.0/token/ERC721/ERC721.sol\":11615:11632  owner != operator */\n      0xffffffffffffffffffffffffffffffffffffffff\n      and\n      eq\n      iszero\n        /* \"@openzeppelin/contracts@4.5.0/token/ERC721/ERC721.sol\":11607:11662  require(owner != operator, \"ERC721: approve to caller\") */\n      tag_208\n      jumpi\n      mload(0x40)\n      0x08c379a000000000000000000000000000000000000000000000000000000000\n      dup2\n      mstore\n      0x04\n      add\n      tag_209\n      swap1\n      tag_210\n      jump\t// in\n    tag_209:\n      mload(0x40)\n      dup1\n      swap2\n      sub\n      swap1\n      revert\n    tag_208:\n        /* \"@openzeppelin/contracts@4.5.0/token/ERC721/ERC721.sol\":11710:11718  approved */\n      dup1\n        /* \"@openzeppelin/contracts@4.5.0/token/ERC721/ERC721.sol\":11672:11690  _operatorApprovals */\n      0x05\n        /* \"@openzeppelin/contracts@4.5.0/token/ERC721/ERC721.sol\":11672:11697  _operatorApprovals[owner] */\n      0x00\n        /* \"@openzeppelin/contracts@4.5.0/token/ERC721/ERC721.sol\":11691:11696  owner */\n      dup6\n        /* \"@openzeppelin/contracts@4.5.0/token/ERC721/ERC721.sol\":11672:11697  _operatorApprovals[owner] */\n      0xffffffffffffffffffffffffffffffffffffffff\n      and\n      0xffffffffffffffffffffffffffffffffffffffff\n      and\n      dup2\n      mstore\n      0x20\n      add\n      swap1\n      dup2\n      mstore\n      0x20\n      add\n      0x00\n      keccak256\n        /* \"@openzeppelin/contracts@4.5.0/token/ERC721/ERC721.sol\":11672:11707  _operatorApprovals[owner][operator] */\n      0x00\n        /* \"@openzeppelin/contracts@4.5.0/token/ERC721/ERC721.sol\":11698:11706  operator */\n      dup5\n        /* \"@openzeppelin/contracts@4.5.0/token/ERC721/ERC721.sol\":11672:11707  _operatorApprovals[owner][operator] */\n      0xffffffffffffffffffffffffffffffffffffffff\n      and\n      0xffffffffffffffffffffffffffffffffffffffff\n      and\n      dup2\n      mstore\n      0x20\n      add\n      swap1\n      dup2\n      mstore\n      0x20\n      add\n      0x00\n      keccak256\n      0x00\n        /* \"@openzeppelin/contracts@4.5.0/token/ERC721/ERC721.sol\":11672:11718  _operatorApprovals[owner][operator] = approved */\n      0x0100\n      exp\n      dup2\n      sload\n      dup2\n      0xff\n      mul\n      not\n      and\n      swap1\n      dup4\n      iszero\n      iszero\n      mul\n      or\n      swap1\n      sstore\n      pop\n        /* \"@openzeppelin/contracts@4.5.0/token/ERC721/ERC721.sol\":11755:11763  operator */\n      dup2\n        /* \"@openzeppelin/contracts@4.5.0/token/ERC721/ERC721.sol\":11733:11774  ApprovalForAll(owner, operator, approved) */\n      0xffffffffffffffffffffffffffffffffffffffff\n      and\n        /* \"@openzeppelin/contracts@4.5.0/token/ERC721/ERC721.sol\":11748:11753  owner */\n      dup4\n        /* \"@openzeppelin/contracts@4.5.0/token/ERC721/ERC721.sol\":11733:11774  ApprovalForAll(owner, operator, approved) */\n      0xffffffffffffffffffffffffffffffffffffffff\n      and\n      0x17307eab39ab6107e8899845ad3d59bd9653f200f220920489ca2b5937696c31\n        /* \"@openzeppelin/contracts@4.5.0/token/ERC721/ERC721.sol\":11765:11773  approved */\n      dup4\n        /* \"@openzeppelin/contracts@4.5.0/token/ERC721/ERC721.sol\":11733:11774  ApprovalForAll(owner, operator, approved) */\n      mload(0x40)\n      tag_211\n      swap2\n      swap1\n      tag_25\n      jump\t// in\n    tag_211:\n      mload(0x40)\n      dup1\n      swap2\n      sub\n      swap1\n      log3\n        /* \"@openzeppelin/contracts@4.5.0/token/ERC721/ERC721.sol\":11474:11781  function _setApprovalForAll(... */\n      pop\n      pop\n      pop\n      jump\t// out\n        /* \"@openzeppelin/contracts@4.5.0/token/ERC721/ERC721.sol\":6549:6856  function _safeTransfer(... */\n    tag_155:\n        /* \"@openzeppelin/contracts@4.5.0/token/ERC721/ERC721.sol\":6700:6728  _transfer(from, to, tokenId) */\n      tag_213\n        /* \"@openzeppelin/contracts@4.5.0/token/ERC721/ERC721.sol\":6710:6714  from */\n      dup5\n        /* \"@openzeppelin/contracts@4.5.0/token/ERC721/ERC721.sol\":6716:6718  to */\n      dup5\n        /* \"@openzeppelin/contracts@4.5.0/token/ERC721/ERC721.sol\":6720:6727  tokenId */\n      dup5\n        /* \"@openzeppelin/contracts@4.5.0/token/ERC721/ERC721.sol\":6700:6709  _transfer */\n      tag_121\n        /* \"@openzeppelin/contracts@4.5.0/token/ERC721/ERC721.sol\":6700:6728  _transfer(from, to, tokenId) */\n      jump\t// in\n    tag_213:\n        /* \"@openzeppelin/contracts@4.5.0/token/ERC721/ERC721.sol\":6746:6794  _checkOnERC721Received(from, to, tokenId, _data) */\n      tag_214\n        /* \"@openzeppelin/contracts@4.5.0/token/ERC721/ERC721.sol\":6769:6773  from */\n      dup5\n        /* \"@openzeppelin/contracts@4.5.0/token/ERC721/ERC721.sol\":6775:6777  to */\n      dup5\n        /* \"@openzeppelin/contracts@4.5.0/token/ERC721/ERC721.sol\":6779:6786  tokenId */\n      dup5\n        /* \"@openzeppelin/contracts@4.5.0/token/ERC721/ERC721.sol\":6788:6793  _data */\n      dup5\n        /* \"@openzeppelin/contracts@4.5.0/token/ERC721/ERC721.sol\":6746:6768  _checkOnERC721Received */\n      tag_215\n        /* \"@openzeppelin/contracts@4.5.0/token/ERC721/ERC721.sol\":6746:6794  _checkOnERC721Received(from, to, tokenId, _data) */\n      jump\t// in\n    tag_214:\n        /* \"@openzeppelin/contracts@4.5.0/token/ERC721/ERC721.sol\":6738:6849  require(_checkOnERC721Received(from, to, tokenId, _data), \"ERC721: transfer to non ERC721Receiver implementer\") */\n      tag_216\n      jumpi\n      mload(0x40)\n      0x08c379a000000000000000000000000000000000000000000000000000000000\n      dup2\n      mstore\n      0x04\n      add\n      tag_217\n      swap1\n      tag_218\n      jump\t// in\n    tag_217:\n      mload(0x40)\n      dup1\n      swap2\n      sub\n      swap1\n      revert\n    tag_216:\n        /* \"@openzeppelin/contracts@4.5.0/token/ERC721/ERC721.sol\":6549:6856  function _safeTransfer(... */\n      pop\n      pop\n      pop\n      pop\n      jump\t// out\n        /* \"@openzeppelin/contracts@4.5.0/token/ERC721/ERC721.sol\":3388:3480  function _baseURI() internal view virtual returns (string memory) {... */\n    tag_162:\n        /* \"@openzeppelin/contracts@4.5.0/token/ERC721/ERC721.sol\":3439:3452  string memory */\n      0x60\n        /* \"@openzeppelin/contracts@4.5.0/token/ERC721/ERC721.sol\":3464:3473  return \"\" */\n      mload(0x40)\n      dup1\n      0x20\n      add\n      0x40\n      mstore\n      dup1\n      0x00\n      dup2\n      mstore\n      pop\n      swap1\n      pop\n        /* \"@openzeppelin/contracts@4.5.0/token/ERC721/ERC721.sol\":3388:3480  function _baseURI() internal view virtual returns (string memory) {... */\n      swap1\n      jump\t// out\n        /* \"@openzeppelin/contracts@4.5.0/utils/Strings.sol\":328:1031  function toString(uint256 value) internal pure returns (string memory) {... */\n    tag_166:\n        /* \"@openzeppelin/contracts@4.5.0/utils/Strings.sol\":384:397  string memory */\n      0x60\n        /* \"@openzeppelin/contracts@4.5.0/utils/Strings.sol\":610:611  0 */\n      0x00\n        /* \"@openzeppelin/contracts@4.5.0/utils/Strings.sol\":601:606  value */\n      dup3\n        /* \"@openzeppelin/contracts@4.5.0/utils/Strings.sol\":601:611  value == 0 */\n      eq\n        /* \"@openzeppelin/contracts@4.5.0/utils/Strings.sol\":597:648  if (value == 0) {... */\n      iszero\n      tag_221\n      jumpi\n        /* \"@openzeppelin/contracts@4.5.0/utils/Strings.sol\":627:637  return \"0\" */\n      mload(0x40)\n      dup1\n      0x40\n      add\n      0x40\n      mstore\n      dup1\n      0x01\n      dup2\n      mstore\n      0x20\n      add\n      0x3000000000000000000000000000000000000000000000000000000000000000\n      dup2\n      mstore\n      pop\n      swap1\n      pop\n      jump(tag_220)\n        /* \"@openzeppelin/contracts@4.5.0/utils/Strings.sol\":597:648  if (value == 0) {... */\n    tag_221:\n        /* \"@openzeppelin/contracts@4.5.0/utils/Strings.sol\":657:669  uint256 temp */\n      0x00\n        /* \"@openzeppelin/contracts@4.5.0/utils/Strings.sol\":672:677  value */\n      dup3\n        /* \"@openzeppelin/contracts@4.5.0/utils/Strings.sol\":657:677  uint256 temp = value */\n      swap1\n      pop\n        /* \"@openzeppelin/contracts@4.5.0/utils/Strings.sol\":687:701  uint256 digits */\n      0x00\n        /* \"@openzeppelin/contracts@4.5.0/utils/Strings.sol\":711:786  while (temp != 0) {... */\n    tag_222:\n        /* \"@openzeppelin/contracts@4.5.0/utils/Strings.sol\":726:727  0 */\n      0x00\n        /* \"@openzeppelin/contracts@4.5.0/utils/Strings.sol\":718:722  temp */\n      dup3\n        /* \"@openzeppelin/contracts@4.5.0/utils/Strings.sol\":718:727  temp != 0 */\n      eq\n        /* \"@openzeppelin/contracts@4.5.0/utils/Strings.sol\":711:786  while (temp != 0) {... */\n      tag_223\n      jumpi\n        /* \"@openzeppelin/contracts@4.5.0/utils/Strings.sol\":743:751  digits++ */\n      dup1\n      dup1\n      tag_224\n      swap1\n      tag_225\n      jump\t// in\n    tag_224:\n      swap2\n      pop\n      pop\n        /* \"@openzeppelin/contracts@4.5.0/utils/Strings.sol\":773:775  10 */\n      0x0a\n        /* \"@openzeppelin/contracts@4.5.0/utils/Strings.sol\":765:775  temp /= 10 */\n      dup3\n      tag_226\n      swap2\n      swap1\n      tag_227\n      jump\t// in\n    tag_226:\n      swap2\n      pop\n        /* \"@openzeppelin/contracts@4.5.0/utils/Strings.sol\":711:786  while (temp != 0) {... */\n      jump(tag_222)\n    tag_223:\n        /* \"@openzeppelin/contracts@4.5.0/utils/Strings.sol\":795:814  bytes memory buffer */\n      0x00\n        /* \"@openzeppelin/contracts@4.5.0/utils/Strings.sol\":827:833  digits */\n      dup2\n        /* \"@openzeppelin/contracts@4.5.0/utils/Strings.sol\":817:834  new bytes(digits) */\n      0xffffffffffffffff\n      dup2\n      gt\n      iszero\n      tag_228\n      jumpi\n      mstore(0x00, 0x4e487b7100000000000000000000000000000000000000000000000000000000)\n      mstore(0x04, 0x41)\n      revert(0x00, 0x24)\n    tag_228:\n      mload(0x40)\n      swap1\n      dup1\n      dup3\n      mstore\n      dup1\n      0x1f\n      add\n      not(0x1f)\n      and\n      0x20\n      add\n      dup3\n      add\n      0x40\n      mstore\n      dup1\n      iszero\n      tag_229\n      jumpi\n      dup2\n      0x20\n      add\n      0x01\n      dup3\n      mul\n      dup1\n      calldatasize\n      dup4\n      calldatacopy\n      dup1\n      dup3\n      add\n      swap2\n      pop\n      pop\n      swap1\n      pop\n    tag_229:\n      pop\n        /* \"@openzeppelin/contracts@4.5.0/utils/Strings.sol\":795:834  bytes memory buffer = new bytes(digits) */\n      swap1\n      pop\n        /* \"@openzeppelin/contracts@4.5.0/utils/Strings.sol\":844:994  while (value != 0) {... */\n    tag_230:\n        /* \"@openzeppelin/contracts@4.5.0/utils/Strings.sol\":860:861  0 */\n      0x00\n        /* \"@openzeppelin/contracts@4.5.0/utils/Strings.sol\":851:856  value */\n      dup6\n        /* \"@openzeppelin/contracts@4.5.0/utils/Strings.sol\":851:861  value != 0 */\n      eq\n        /* \"@openzeppelin/contracts@4.5.0/utils/Strings.sol\":844:994  while (value != 0) {... */\n      tag_231\n      jumpi\n        /* \"@openzeppelin/contracts@4.5.0/utils/Strings.sol\":887:888  1 */\n      0x01\n        /* \"@openzeppelin/contracts@4.5.0/utils/Strings.sol\":877:888  digits -= 1 */\n      dup3\n      tag_232\n      swap2\n      swap1\n      tag_197\n      jump\t// in\n    tag_232:\n      swap2\n      pop\n        /* \"@openzeppelin/contracts@4.5.0/utils/Strings.sol\":953:955  10 */\n      0x0a\n        /* \"@openzeppelin/contracts@4.5.0/utils/Strings.sol\":945:950  value */\n      dup6\n        /* \"@openzeppelin/contracts@4.5.0/utils/Strings.sol\":945:955  value % 10 */\n      tag_233\n      swap2\n      swap1\n      tag_234\n      jump\t// in\n    tag_233:\n        /* \"@openzeppelin/contracts@4.5.0/utils/Strings.sol\":932:934  48 */\n      0x30\n        /* \"@openzeppelin/contracts@4.5.0/utils/Strings.sol\":932:956  48 + uint256(value % 10) */\n      tag_235\n      swap2\n      swap1\n      tag_199\n      jump\t// in\n    tag_235:\n        /* \"@openzeppelin/contracts@4.5.0/utils/Strings.sol\":919:958  bytes1(uint8(48 + uint256(value % 10))) */\n      0xf8\n      shl\n        /* \"@openzeppelin/contracts@4.5.0/utils/Strings.sol\":902:908  buffer */\n      dup2\n        /* \"@openzeppelin/contracts@4.5.0/utils/Strings.sol\":909:915  digits */\n      dup4\n        /* \"@openzeppelin/contracts@4.5.0/utils/Strings.sol\":902:916  buffer[digits] */\n      dup2\n      mload\n      dup2\n      lt\n      tag_236\n      jumpi\n      mstore(0x00, 0x4e487b7100000000000000000000000000000000000000000000000000000000)\n      mstore(0x04, 0x32)\n      revert(0x00, 0x24)\n    tag_236:\n      0x20\n      add\n      add\n        /* \"@openzeppelin/contracts@4.5.0/utils/Strings.sol\":902:958  buffer[digits] = bytes1(uint8(48 + uint256(value % 10))) */\n      swap1\n      not(0xffffffffffffffffffffffffffffffffffffffffffffffffffffffffffffff)\n      and\n      swap1\n      dup2\n      0x00\n      byte\n      swap1\n      mstore8\n      pop\n        /* \"@openzeppelin/contracts@4.5.0/utils/Strings.sol\":981:983  10 */\n      0x0a\n        /* \"@openzeppelin/contracts@4.5.0/utils/Strings.sol\":972:983  value /= 10 */\n      dup6\n      tag_237\n      swap2\n      swap1\n      tag_227\n      jump\t// in\n    tag_237:\n      swap5\n      pop\n        /* \"@openzeppelin/contracts@4.5.0/utils/Strings.sol\":844:994  while (value != 0) {... */\n      jump(tag_230)\n    tag_231:\n        /* \"@openzeppelin/contracts@4.5.0/utils/Strings.sol\":1017:1023  buffer */\n      dup1\n        /* \"@openzeppelin/contracts@4.5.0/utils/Strings.sol\":1003:1024  return string(buffer) */\n      swap4\n      pop\n      pop\n      pop\n      pop\n        /* \"@openzeppelin/contracts@4.5.0/utils/Strings.sol\":328:1031  function toString(uint256 value) internal pure returns (string memory) {... */\n    tag_220:\n      swap2\n      swap1\n      pop\n      jump\t// out\n        /* \"@openzeppelin/contracts@4.5.0/token/ERC721/ERC721.sol\":13668:13790  function _beforeTokenTransfer(... */\n    tag_194:\n      pop\n      pop\n      pop\n      jump\t// out\n        /* \"@openzeppelin/contracts@4.5.0/token/ERC721/ERC721.sol\":14162:14283  function _afterTokenTransfer(... */\n    tag_201:\n      pop\n      pop\n      pop\n      jump\t// out\n        /* \"@openzeppelin/contracts@4.5.0/token/ERC721/ERC721.sol\":8445:8756  function _safeMint(... */\n    tag_206:\n        /* \"@openzeppelin/contracts@4.5.0/token/ERC721/ERC721.sol\":8570:8588  _mint(to, tokenId) */\n      tag_241\n        /* \"@openzeppelin/contracts@4.5.0/token/ERC721/ERC721.sol\":8576:8578  to */\n      dup4\n        /* \"@openzeppelin/contracts@4.5.0/token/ERC721/ERC721.sol\":8580:8587  tokenId */\n      dup4\n        /* \"@openzeppelin/contracts@4.5.0/token/ERC721/ERC721.sol\":8570:8575  _mint */\n      tag_242\n        /* \"@openzeppelin/contracts@4.5.0/token/ERC721/ERC721.sol\":8570:8588  _mint(to, tokenId) */\n      jump\t// in\n    tag_241:\n        /* \"@openzeppelin/contracts@4.5.0/token/ERC721/ERC721.sol\":8619:8673  _checkOnERC721Received(address(0), to, tokenId, _data) */\n      tag_243\n        /* \"@openzeppelin/contracts@4.5.0/token/ERC721/ERC721.sol\":8650:8651  0 */\n      0x00\n        /* \"@openzeppelin/contracts@4.5.0/token/ERC721/ERC721.sol\":8654:8656  to */\n      dup5\n        /* \"@openzeppelin/contracts@4.5.0/token/ERC721/ERC721.sol\":8658:8665  tokenId */\n      dup5\n        /* \"@openzeppelin/contracts@4.5.0/token/ERC721/ERC721.sol\":8667:8672  _data */\n      dup5\n        /* \"@openzeppelin/contracts@4.5.0/token/ERC721/ERC721.sol\":8619:8641  _checkOnERC721Received */\n      tag_215\n        /* \"@openzeppelin/contracts@4.5.0/token/ERC721/ERC721.sol\":8619:8673  _checkOnERC721Received(address(0), to, tokenId, _data) */\n      jump\t// in\n    tag_243:\n        /* \"@openzeppelin/contracts@4.5.0/token/ERC721/ERC721.sol\":8598:8749  require(... */\n      tag_244\n      jumpi\n      mload(0x40)\n      0x08c379a000000000000000000000000000000000000000000000000000000000\n      dup2\n      mstore\n      0x04\n      add\n      tag_245\n      swap1\n      tag_218\n      jump\t// in\n    tag_245:\n      mload(0x40)\n      dup1\n      swap2\n      sub\n      swap1\n      revert\n    tag_244:\n        /* \"@openzeppelin/contracts@4.5.0/token/ERC721/ERC721.sol\":8445:8756  function _safeMint(... */\n      pop\n      pop\n      pop\n      jump\t// out\n        /* \"@openzeppelin/contracts@4.5.0/token/ERC721/ERC721.sol\":12334:13112  function _checkOnERC721Received(... */\n    tag_215:\n        /* \"@openzeppelin/contracts@4.5.0/token/ERC721/ERC721.sol\":12484:12488  bool */\n      0x00\n        /* \"@openzeppelin/contracts@4.5.0/token/ERC721/ERC721.sol\":12504:12519  to.isContract() */\n      tag_247\n        /* \"@openzeppelin/contracts@4.5.0/token/ERC721/ERC721.sol\":12504:12506  to */\n      dup5\n        /* \"@openzeppelin/contracts@4.5.0/token/ERC721/ERC721.sol\":12504:12517  to.isContract */\n      0xffffffffffffffffffffffffffffffffffffffff\n      and\n      tag_248\n        /* \"@openzeppelin/contracts@4.5.0/token/ERC721/ERC721.sol\":12504:12519  to.isContract() */\n      jump\t// in\n    tag_247:\n        /* \"@openzeppelin/contracts@4.5.0/token/ERC721/ERC721.sol\":12500:13106  if (to.isContract()) {... */\n      iszero\n      tag_249\n      jumpi\n        /* \"@openzeppelin/contracts@4.5.0/token/ERC721/ERC721.sol\":12555:12557  to */\n      dup4\n        /* \"@openzeppelin/contracts@4.5.0/token/ERC721/ERC721.sol\":12539:12575  IERC721Receiver(to).onERC721Received */\n      0xffffffffffffffffffffffffffffffffffffffff\n      and\n      0x150b7a02\n        /* \"@openzeppelin/contracts@4.5.0/token/ERC721/ERC721.sol\":12576:12588  _msgSender() */\n      tag_250\n        /* \"@openzeppelin/contracts@4.5.0/token/ERC721/ERC721.sol\":12576:12586  _msgSender */\n      tag_104\n        /* \"@openzeppelin/contracts@4.5.0/token/ERC721/ERC721.sol\":12576:12588  _msgSender() */\n      jump\t// in\n    tag_250:\n        /* \"@openzeppelin/contracts@4.5.0/token/ERC721/ERC721.sol\":12590:12594  from */\n      dup8\n        /* \"@openzeppelin/contracts@4.5.0/token/ERC721/ERC721.sol\":12596:12603  tokenId */\n      dup7\n        /* \"@openzeppelin/contracts@4.5.0/token/ERC721/ERC721.sol\":12605:12610  _data */\n      dup7\n        /* \"@openzeppelin/contracts@4.5.0/token/ERC721/ERC721.sol\":12539:12611  IERC721Receiver(to).onERC721Received(_msgSender(), from, tokenId, _data) */\n      mload(0x40)\n      dup6\n      0xffffffff\n      and\n      0xe0\n      shl\n      dup2\n      mstore\n      0x04\n      add\n      tag_251\n      swap5\n      swap4\n      swap3\n      swap2\n      swap1\n      tag_252\n      jump\t// in\n    tag_251:\n      0x20\n      mload(0x40)\n      dup1\n      dup4\n      sub\n      dup2\n      0x00\n      dup8\n      dup1\n      extcodesize\n      iszero\n      dup1\n      iszero\n      tag_253\n      jumpi\n      0x00\n      dup1\n      revert\n    tag_253:\n      pop\n      gas\n      call\n      swap3\n      pop\n      pop\n      pop\n      dup1\n      iszero\n      tag_254\n      jumpi\n      pop\n      mload(0x40)\n      returndatasize\n      not(0x1f)\n      0x1f\n      dup3\n      add\n      and\n      dup3\n      add\n      dup1\n      0x40\n      mstore\n      pop\n      dup2\n      add\n      swap1\n      tag_255\n      swap2\n      swap1\n      tag_256\n      jump\t// in\n    tag_255:\n      0x01\n    tag_254:\n        /* \"@openzeppelin/contracts@4.5.0/token/ERC721/ERC721.sol\":12535:13054  try IERC721Receiver(to).onERC721Received(_msgSender(), from, tokenId, _data) returns (bytes4 retval) {... */\n      tag_257\n      jumpi\n      returndatasize\n      dup1\n      0x00\n      dup2\n      eq\n      tag_262\n      jumpi\n      mload(0x40)\n      swap2\n      pop\n      and(add(returndatasize, 0x3f), not(0x1f))\n      dup3\n      add\n      0x40\n      mstore\n      returndatasize\n      dup3\n      mstore\n      returndatasize\n      0x00\n      0x20\n      dup5\n      add\n      returndatacopy\n      jump(tag_261)\n    tag_262:\n      0x60\n      swap2\n      pop\n    tag_261:\n      pop\n        /* \"@openzeppelin/contracts@4.5.0/token/ERC721/ERC721.sol\":12795:12796  0 */\n      0x00\n        /* \"@openzeppelin/contracts@4.5.0/token/ERC721/ERC721.sol\":12778:12784  reason */\n      dup2\n        /* \"@openzeppelin/contracts@4.5.0/token/ERC721/ERC721.sol\":12778:12791  reason.length */\n      mload\n        /* \"@openzeppelin/contracts@4.5.0/token/ERC721/ERC721.sol\":12778:12796  reason.length == 0 */\n      eq\n        /* \"@openzeppelin/contracts@4.5.0/token/ERC721/ERC721.sol\":12774:13040  if (reason.length == 0) {... */\n      iszero\n      tag_263\n      jumpi\n        /* \"@openzeppelin/contracts@4.5.0/token/ERC721/ERC721.sol\":12820:12880  revert(\"ERC721: transfer to non ERC721Receiver implementer\") */\n      mload(0x40)\n      0x08c379a000000000000000000000000000000000000000000000000000000000\n      dup2\n      mstore\n      0x04\n      add\n      tag_264\n      swap1\n      tag_218\n      jump\t// in\n    tag_264:\n      mload(0x40)\n      dup1\n      swap2\n      sub\n      swap1\n      revert\n        /* \"@openzeppelin/contracts@4.5.0/token/ERC721/ERC721.sol\":12774:13040  if (reason.length == 0) {... */\n    tag_263:\n        /* \"@openzeppelin/contracts@4.5.0/token/ERC721/ERC721.sol\":12992:12998  reason */\n      dup1\n        /* \"@openzeppelin/contracts@4.5.0/token/ERC721/ERC721.sol\":12986:12999  mload(reason) */\n      mload\n        /* \"@openzeppelin/contracts@4.5.0/token/ERC721/ERC721.sol\":12977:12983  reason */\n      dup2\n        /* \"@openzeppelin/contracts@4.5.0/token/ERC721/ERC721.sol\":12973:12975  32 */\n      0x20\n        /* \"@openzeppelin/contracts@4.5.0/token/ERC721/ERC721.sol\":12969:12984  add(32, reason) */\n      add\n        /* \"@openzeppelin/contracts@4.5.0/token/ERC721/ERC721.sol\":12962:13000  revert(add(32, reason), mload(reason)) */\n      revert\n        /* \"@openzeppelin/contracts@4.5.0/token/ERC721/ERC721.sol\":12535:13054  try IERC721Receiver(to).onERC721Received(_msgSender(), from, tokenId, _data) returns (bytes4 retval) {... */\n    tag_257:\n        /* \"@openzeppelin/contracts@4.5.0/token/ERC721/ERC721.sol\":12671:12712  IERC721Receiver.onERC721Received.selector */\n      shl(0xe0, 0x150b7a02)\n        /* \"@openzeppelin/contracts@4.5.0/token/ERC721/ERC721.sol\":12661:12712  retval == IERC721Receiver.onERC721Received.selector */\n      not(0xffffffffffffffffffffffffffffffffffffffffffffffffffffffff)\n      and\n        /* \"@openzeppelin/contracts@4.5.0/token/ERC721/ERC721.sol\":12661:12667  retval */\n      dup2\n        /* \"@openzeppelin/contracts@4.5.0/token/ERC721/ERC721.sol\":12661:12712  retval == IERC721Receiver.onERC721Received.selector */\n      not(0xffffffffffffffffffffffffffffffffffffffffffffffffffffffff)\n      and\n      eq\n        /* \"@openzeppelin/contracts@4.5.0/token/ERC721/ERC721.sol\":12654:12712  return retval == IERC721Receiver.onERC721Received.selector */\n      swap2\n      pop\n      pop\n      jump(tag_246)\n        /* \"@openzeppelin/contracts@4.5.0/token/ERC721/ERC721.sol\":12500:13106  if (to.isContract()) {... */\n    tag_249:\n        /* \"@openzeppelin/contracts@4.5.0/token/ERC721/ERC721.sol\":13091:13095  true */\n      0x01\n        /* \"@openzeppelin/contracts@4.5.0/token/ERC721/ERC721.sol\":13084:13095  return true */\n      swap1\n      pop\n        /* \"@openzeppelin/contracts@4.5.0/token/ERC721/ERC721.sol\":12334:13112  function _checkOnERC721Received(... */\n    tag_246:\n      swap5\n      swap4\n      pop\n      pop\n      pop\n      pop\n      jump\t// out\n        /* \"@openzeppelin/contracts@4.5.0/token/ERC721/ERC721.sol\":9078:9505  function _mint(address to, uint256 tokenId) internal virtual {... */\n    tag_242:\n        /* \"@openzeppelin/contracts@4.5.0/token/ERC721/ERC721.sol\":9171:9172  0 */\n      0x00\n        /* \"@openzeppelin/contracts@4.5.0/token/ERC721/ERC721.sol\":9157:9173  to != address(0) */\n      0xffffffffffffffffffffffffffffffffffffffff\n      and\n        /* \"@openzeppelin/contracts@4.5.0/token/ERC721/ERC721.sol\":9157:9159  to */\n      dup3\n        /* \"@openzeppelin/contracts@4.5.0/token/ERC721/ERC721.sol\":9157:9173  to != address(0) */\n      0xffffffffffffffffffffffffffffffffffffffff\n      and\n      eq\n      iszero\n        /* \"@openzeppelin/contracts@4.5.0/token/ERC721/ERC721.sol\":9149:9210  require(to != address(0), \"ERC721: mint to the zero address\") */\n      tag_269\n      jumpi\n      mload(0x40)\n      0x08c379a000000000000000000000000000000000000000000000000000000000\n      dup2\n      mstore\n      0x04\n      add\n      tag_270\n      swap1\n      tag_271\n      jump\t// in\n    tag_270:\n      mload(0x40)\n      dup1\n      swap2\n      sub\n      swap1\n      revert\n    tag_269:\n        /* \"@openzeppelin/contracts@4.5.0/token/ERC721/ERC721.sol\":9229:9245  _exists(tokenId) */\n      tag_272\n        /* \"@openzeppelin/contracts@4.5.0/token/ERC721/ERC721.sol\":9237:9244  tokenId */\n      dup2\n        /* \"@openzeppelin/contracts@4.5.0/token/ERC721/ERC721.sol\":9229:9236  _exists */\n      tag_94\n        /* \"@openzeppelin/contracts@4.5.0/token/ERC721/ERC721.sol\":9229:9245  _exists(tokenId) */\n      jump\t// in\n    tag_272:\n        /* \"@openzeppelin/contracts@4.5.0/token/ERC721/ERC721.sol\":9228:9245  !_exists(tokenId) */\n      iszero\n        /* \"@openzeppelin/contracts@4.5.0/token/ERC721/ERC721.sol\":9220:9278  require(!_exists(tokenId), \"ERC721: token already minted\") */\n      tag_273\n      jumpi\n      mload(0x40)\n      0x08c379a000000000000000000000000000000000000000000000000000000000\n      dup2\n      mstore\n      0x04\n      add\n      tag_274\n      swap1\n      tag_275\n      jump\t// in\n    tag_274:\n      mload(0x40)\n      dup1\n      swap2\n      sub\n      swap1\n      revert\n    tag_273:\n        /* \"@openzeppelin/contracts@4.5.0/token/ERC721/ERC721.sol\":9289:9334  _beforeTokenTransfer(address(0), to, tokenId) */\n      tag_276\n        /* \"@openzeppelin/contracts@4.5.0/token/ERC721/ERC721.sol\":9318:9319  0 */\n      0x00\n        /* \"@openzeppelin/contracts@4.5.0/token/ERC721/ERC721.sol\":9322:9324  to */\n      dup4\n        /* \"@openzeppelin/contracts@4.5.0/token/ERC721/ERC721.sol\":9326:9333  tokenId */\n      dup4\n        /* \"@openzeppelin/contracts@4.5.0/token/ERC721/ERC721.sol\":9289:9309  _beforeTokenTransfer */\n      tag_194\n        /* \"@openzeppelin/contracts@4.5.0/token/ERC721/ERC721.sol\":9289:9334  _beforeTokenTransfer(address(0), to, tokenId) */\n      jump\t// in\n    tag_276:\n        /* \"@openzeppelin/contracts@4.5.0/token/ERC721/ERC721.sol\":9362:9363  1 */\n      0x01\n        /* \"@openzeppelin/contracts@4.5.0/token/ERC721/ERC721.sol\":9345:9354  _balances */\n      0x03\n        /* \"@openzeppelin/contracts@4.5.0/token/ERC721/ERC721.sol\":9345:9358  _balances[to] */\n      0x00\n        /* \"@openzeppelin/contracts@4.5.0/token/ERC721/ERC721.sol\":9355:9357  to */\n      dup5\n        /* \"@openzeppelin/contracts@4.5.0/token/ERC721/ERC721.sol\":9345:9358  _balances[to] */\n      0xffffffffffffffffffffffffffffffffffffffff\n      and\n      0xffffffffffffffffffffffffffffffffffffffff\n      and\n      dup2\n      mstore\n      0x20\n      add\n      swap1\n      dup2\n      mstore\n      0x20\n      add\n      0x00\n      keccak256\n      0x00\n        /* \"@openzeppelin/contracts@4.5.0/token/ERC721/ERC721.sol\":9345:9363  _balances[to] += 1 */\n      dup3\n      dup3\n      sload\n      tag_277\n      swap2\n      swap1\n      tag_199\n      jump\t// in\n    tag_277:\n      swap3\n      pop\n      pop\n      dup2\n      swap1\n      sstore\n      pop\n        /* \"@openzeppelin/contracts@4.5.0/token/ERC721/ERC721.sol\":9392:9394  to */\n      dup2\n        /* \"@openzeppelin/contracts@4.5.0/token/ERC721/ERC721.sol\":9373:9380  _owners */\n      0x02\n        /* \"@openzeppelin/contracts@4.5.0/token/ERC721/ERC721.sol\":9373:9389  _owners[tokenId] */\n      0x00\n        /* \"@openzeppelin/contracts@4.5.0/token/ERC721/ERC721.sol\":9381:9388  tokenId */\n      dup4\n        /* \"@openzeppelin/contracts@4.5.0/token/ERC721/ERC721.sol\":9373:9389  _owners[tokenId] */\n      dup2\n      mstore\n      0x20\n      add\n      swap1\n      dup2\n      mstore\n      0x20\n      add\n      0x00\n      keccak256\n      0x00\n        /* \"@openzeppelin/contracts@4.5.0/token/ERC721/ERC721.sol\":9373:9394  _owners[tokenId] = to */\n      0x0100\n      exp\n      dup2\n      sload\n      dup2\n      0xffffffffffffffffffffffffffffffffffffffff\n      mul\n      not\n      and\n      swap1\n      dup4\n      0xffffffffffffffffffffffffffffffffffffffff\n      and\n      mul\n      or\n      swap1\n      sstore\n      pop\n        /* \"@openzeppelin/contracts@4.5.0/token/ERC721/ERC721.sol\":9435:9442  tokenId */\n      dup1\n        /* \"@openzeppelin/contracts@4.5.0/token/ERC721/ERC721.sol\":9431:9433  to */\n      dup3\n        /* \"@openzeppelin/contracts@4.5.0/token/ERC721/ERC721.sol\":9410:9443  Transfer(address(0), to, tokenId) */\n      0xffffffffffffffffffffffffffffffffffffffff\n      and\n        /* \"@openzeppelin/contracts@4.5.0/token/ERC721/ERC721.sol\":9427:9428  0 */\n      0x00\n        /* \"@openzeppelin/contracts@4.5.0/token/ERC721/ERC721.sol\":9410:9443  Transfer(address(0), to, tokenId) */\n      0xffffffffffffffffffffffffffffffffffffffff\n      and\n      0xddf252ad1be2c89b69c2b068fc378daa952ba7f163c4a11628f55a4df523b3ef\n      mload(0x40)\n      mload(0x40)\n      dup1\n      swap2\n      sub\n      swap1\n      log4\n        /* \"@openzeppelin/contracts@4.5.0/token/ERC721/ERC721.sol\":9454:9498  _afterTokenTransfer(address(0), to, tokenId) */\n      tag_278\n        /* \"@openzeppelin/contracts@4.5.0/token/ERC721/ERC721.sol\":9482:9483  0 */\n      0x00\n        /* \"@openzeppelin/contracts@4.5.0/token/ERC721/ERC721.sol\":9486:9488  to */\n      dup4\n        /* \"@openzeppelin/contracts@4.5.0/token/ERC721/ERC721.sol\":9490:9497  tokenId */\n      dup4\n        /* \"@openzeppelin/contracts@4.5.0/token/ERC721/ERC721.sol\":9454:9473  _afterTokenTransfer */\n      tag_201\n        /* \"@openzeppelin/contracts@4.5.0/token/ERC721/ERC721.sol\":9454:9498  _afterTokenTransfer(address(0), to, tokenId) */\n      jump\t// in\n    tag_278:\n        /* \"@openzeppelin/contracts@4.5.0/token/ERC721/ERC721.sol\":9078:9505  function _mint(address to, uint256 tokenId) internal virtual {... */\n      pop\n      pop\n      jump\t// out\n        /* \"@openzeppelin/contracts@4.5.0/utils/Address.sol\":1175:1495  function isContract(address account) internal view returns (bool) {... */\n    tag_248:\n        /* \"@openzeppelin/contracts@4.5.0/utils/Address.sol\":1235:1239  bool */\n      0x00\n        /* \"@openzeppelin/contracts@4.5.0/utils/Address.sol\":1487:1488  0 */\n      dup1\n        /* \"@openzeppelin/contracts@4.5.0/utils/Address.sol\":1465:1472  account */\n      dup3\n        /* \"@openzeppelin/contracts@4.5.0/utils/Address.sol\":1465:1484  account.code.length */\n      0xffffffffffffffffffffffffffffffffffffffff\n      and\n      extcodesize\n        /* \"@openzeppelin/contracts@4.5.0/utils/Address.sol\":1465:1488  account.code.length > 0 */\n      gt\n        /* \"@openzeppelin/contracts@4.5.0/utils/Address.sol\":1458:1488  return account.code.length > 0 */\n      swap1\n      pop\n        /* \"@openzeppelin/contracts@4.5.0/utils/Address.sol\":1175:1495  function isContract(address account) internal view returns (bool) {... */\n      swap2\n      swap1\n      pop\n      jump\t// out\n        /* \"#utility.yul\":7:350   */\n    tag_281:\n      0x00\n        /* \"#utility.yul\":109:174   */\n      tag_283\n        /* \"#utility.yul\":125:173   */\n      tag_284\n        /* \"#utility.yul\":166:172   */\n      dup5\n        /* \"#utility.yul\":125:173   */\n      tag_285\n      jump\t// in\n    tag_284:\n        /* \"#utility.yul\":109:174   */\n      tag_286\n      jump\t// in\n    tag_283:\n        /* \"#utility.yul\":100:174   */\n      swap1\n      pop\n        /* \"#utility.yul\":197:203   */\n      dup3\n        /* \"#utility.yul\":190:195   */\n      dup2\n        /* \"#utility.yul\":183:204   */\n      mstore\n        /* \"#utility.yul\":235:239   */\n      0x20\n        /* \"#utility.yul\":228:233   */\n      dup2\n        /* \"#utility.yul\":224:240   */\n      add\n        /* \"#utility.yul\":273:276   */\n      dup5\n        /* \"#utility.yul\":264:270   */\n      dup5\n        /* \"#utility.yul\":259:262   */\n      dup5\n        /* \"#utility.yul\":255:271   */\n      add\n        /* \"#utility.yul\":252:277   */\n      gt\n        /* \"#utility.yul\":249:251   */\n      iszero\n      tag_287\n      jumpi\n        /* \"#utility.yul\":290:291   */\n      0x00\n        /* \"#utility.yul\":287:288   */\n      dup1\n        /* \"#utility.yul\":280:292   */\n      revert\n        /* \"#utility.yul\":249:251   */\n    tag_287:\n        /* \"#utility.yul\":303:344   */\n      tag_288\n        /* \"#utility.yul\":337:343   */\n      dup5\n        /* \"#utility.yul\":332:335   */\n      dup3\n        /* \"#utility.yul\":327:330   */\n      dup6\n        /* \"#utility.yul\":303:344   */\n      tag_289\n      jump\t// in\n    tag_288:\n        /* \"#utility.yul\":90:350   */\n      pop\n      swap4\n      swap3\n      pop\n      pop\n      pop\n      jump\t// out\n        /* \"#utility.yul\":356:495   */\n    tag_290:\n      0x00\n        /* \"#utility.yul\":440:446   */\n      dup2\n        /* \"#utility.yul\":427:447   */\n      calldataload\n        /* \"#utility.yul\":418:447   */\n      swap1\n      pop\n        /* \"#utility.yul\":456:489   */\n      tag_292\n        /* \"#utility.yul\":483:488   */\n      dup2\n        /* \"#utility.yul\":456:489   */\n      tag_293\n      jump\t// in\n    tag_292:\n        /* \"#utility.yul\":408:495   */\n      swap3\n      swap2\n      pop\n      pop\n      jump\t// out\n        /* \"#utility.yul\":501:634   */\n    tag_294:\n      0x00\n        /* \"#utility.yul\":582:588   */\n      dup2\n        /* \"#utility.yul\":569:589   */\n      calldataload\n        /* \"#utility.yul\":560:589   */\n      swap1\n      pop\n        /* \"#utility.yul\":598:628   */\n      tag_296\n        /* \"#utility.yul\":622:627   */\n      dup2\n        /* \"#utility.yul\":598:628   */\n      tag_297\n      jump\t// in\n    tag_296:\n        /* \"#utility.yul\":550:634   */\n      swap3\n      swap2\n      pop\n      pop\n      jump\t// out\n        /* \"#utility.yul\":640:777   */\n    tag_298:\n      0x00\n        /* \"#utility.yul\":723:729   */\n      dup2\n        /* \"#utility.yul\":710:730   */\n      calldataload\n        /* \"#utility.yul\":701:730   */\n      swap1\n      pop\n        /* \"#utility.yul\":739:771   */\n      tag_300\n        /* \"#utility.yul\":765:770   */\n      dup2\n        /* \"#utility.yul\":739:771   */\n      tag_301\n      jump\t// in\n    tag_300:\n        /* \"#utility.yul\":691:777   */\n      swap3\n      swap2\n      pop\n      pop\n      jump\t// out\n        /* \"#utility.yul\":783:924   */\n    tag_302:\n      0x00\n        /* \"#utility.yul\":870:876   */\n      dup2\n        /* \"#utility.yul\":864:877   */\n      mload\n        /* \"#utility.yul\":855:877   */\n      swap1\n      pop\n        /* \"#utility.yul\":886:918   */\n      tag_304\n        /* \"#utility.yul\":912:917   */\n      dup2\n        /* \"#utility.yul\":886:918   */\n      tag_301\n      jump\t// in\n    tag_304:\n        /* \"#utility.yul\":845:924   */\n      swap3\n      swap2\n      pop\n      pop\n      jump\t// out\n        /* \"#utility.yul\":943:1214   */\n    tag_305:\n      0x00\n        /* \"#utility.yul\":1047:1050   */\n      dup3\n        /* \"#utility.yul\":1040:1044   */\n      0x1f\n        /* \"#utility.yul\":1032:1038   */\n      dup4\n        /* \"#utility.yul\":1028:1045   */\n      add\n        /* \"#utility.yul\":1024:1051   */\n      slt\n        /* \"#utility.yul\":1014:1016   */\n      tag_307\n      jumpi\n        /* \"#utility.yul\":1065:1066   */\n      0x00\n        /* \"#utility.yul\":1062:1063   */\n      dup1\n        /* \"#utility.yul\":1055:1067   */\n      revert\n        /* \"#utility.yul\":1014:1016   */\n    tag_307:\n        /* \"#utility.yul\":1105:1111   */\n      dup2\n        /* \"#utility.yul\":1092:1112   */\n      calldataload\n        /* \"#utility.yul\":1130:1208   */\n      tag_308\n        /* \"#utility.yul\":1204:1207   */\n      dup5\n        /* \"#utility.yul\":1196:1202   */\n      dup3\n        /* \"#utility.yul\":1189:1193   */\n      0x20\n        /* \"#utility.yul\":1181:1187   */\n      dup7\n        /* \"#utility.yul\":1177:1194   */\n      add\n        /* \"#utility.yul\":1130:1208   */\n      tag_281\n      jump\t// in\n    tag_308:\n        /* \"#utility.yul\":1121:1208   */\n      swap2\n      pop\n        /* \"#utility.yul\":1004:1214   */\n      pop\n      swap3\n      swap2\n      pop\n      pop\n      jump\t// out\n        /* \"#utility.yul\":1220:1359   */\n    tag_309:\n      0x00\n        /* \"#utility.yul\":1304:1310   */\n      dup2\n        /* \"#utility.yul\":1291:1311   */\n      calldataload\n        /* \"#utility.yul\":1282:1311   */\n      swap1\n      pop\n        /* \"#utility.yul\":1320:1353   */\n      tag_311\n        /* \"#utility.yul\":1347:1352   */\n      dup2\n        /* \"#utility.yul\":1320:1353   */\n      tag_312\n      jump\t// in\n    tag_311:\n        /* \"#utility.yul\":1272:1359   */\n      swap3\n      swap2\n      pop\n      pop\n      jump\t// out\n        /* \"#utility.yul\":1365:1627   */\n    tag_46:\n      0x00\n        /* \"#utility.yul\":1473:1475   */\n      0x20\n        /* \"#utility.yul\":1461:1470   */\n      dup3\n        /* \"#utility.yul\":1452:1459   */\n      dup5\n        /* \"#utility.yul\":1448:1471   */\n      sub\n        /* \"#utility.yul\":1444:1476   */\n      slt\n        /* \"#utility.yul\":1441:1443   */\n      iszero\n      tag_314\n      jumpi\n        /* \"#utility.yul\":1489:1490   */\n      0x00\n        /* \"#utility.yul\":1486:1487   */\n      dup1\n        /* \"#utility.yul\":1479:1491   */\n      revert\n        /* \"#utility.yul\":1441:1443   */\n    tag_314:\n        /* \"#utility.yul\":1532:1533   */\n      0x00\n        /* \"#utility.yul\":1557:1610   */\n      tag_315\n        /* \"#utility.yul\":1602:1609   */\n      dup5\n        /* \"#utility.yul\":1593:1599   */\n      dup3\n        /* \"#utility.yul\":1582:1591   */\n      dup6\n        /* \"#utility.yul\":1578:1600   */\n      add\n        /* \"#utility.yul\":1557:1610   */\n      tag_290\n      jump\t// in\n    tag_315:\n        /* \"#utility.yul\":1547:1610   */\n      swap2\n      pop\n        /* \"#utility.yul\":1503:1620   */\n      pop\n        /* \"#utility.yul\":1431:1627   */\n      swap3\n      swap2\n      pop\n      pop\n      jump\t// out\n        /* \"#utility.yul\":1633:2040   */\n    tag_77:\n      0x00\n      dup1\n        /* \"#utility.yul\":1758:1760   */\n      0x40\n        /* \"#utility.yul\":1746:1755   */\n      dup4\n        /* \"#utility.yul\":1737:1744   */\n      dup6\n        /* \"#utility.yul\":1733:1756   */\n      sub\n        /* \"#utility.yul\":1729:1761   */\n      slt\n        /* \"#utility.yul\":1726:1728   */\n      iszero\n      tag_317\n      jumpi\n        /* \"#utility.yul\":1774:1775   */\n      0x00\n        /* \"#utility.yul\":1771:1772   */\n      dup1\n        /* \"#utility.yul\":1764:1776   */\n      revert\n        /* \"#utility.yul\":1726:1728   */\n    tag_317:\n        /* \"#utility.yul\":1817:1818   */\n      0x00\n        /* \"#utility.yul\":1842:1895   */\n      tag_318\n        /* \"#utility.yul\":1887:1894   */\n      dup6\n        /* \"#utility.yul\":1878:1884   */\n      dup3\n        /* \"#utility.yul\":1867:1876   */\n      dup7\n        /* \"#utility.yul\":1863:1885   */\n      add\n        /* \"#utility.yul\":1842:1895   */\n      tag_290\n      jump\t// in\n    tag_318:\n        /* \"#utility.yul\":1832:1895   */\n      swap3\n      pop\n        /* \"#utility.yul\":1788:1905   */\n      pop\n        /* \"#utility.yul\":1944:1946   */\n      0x20\n        /* \"#utility.yul\":1970:2023   */\n      tag_319\n        /* \"#utility.yul\":2015:2022   */\n      dup6\n        /* \"#utility.yul\":2006:2012   */\n      dup3\n        /* \"#utility.yul\":1995:2004   */\n      dup7\n        /* \"#utility.yul\":1991:2013   */\n      add\n        /* \"#utility.yul\":1970:2023   */\n      tag_290\n      jump\t// in\n    tag_319:\n        /* \"#utility.yul\":1960:2023   */\n      swap2\n      pop\n        /* \"#utility.yul\":1915:2033   */\n      pop\n        /* \"#utility.yul\":1716:2040   */\n      swap3\n      pop\n      swap3\n      swap1\n      pop\n      jump\t// out\n        /* \"#utility.yul\":2046:2598   */\n    tag_42:\n      0x00\n      dup1\n      0x00\n        /* \"#utility.yul\":2188:2190   */\n      0x60\n        /* \"#utility.yul\":2176:2185   */\n      dup5\n        /* \"#utility.yul\":2167:2174   */\n      dup7\n        /* \"#utility.yul\":2163:2186   */\n      sub\n        /* \"#utility.yul\":2159:2191   */\n      slt\n        /* \"#utility.yul\":2156:2158   */\n      iszero\n      tag_321\n      jumpi\n        /* \"#utility.yul\":2204:2205   */\n      0x00\n        /* \"#utility.yul\":2201:2202   */\n      dup1\n        /* \"#utility.yul\":2194:2206   */\n      revert\n        /* \"#utility.yul\":2156:2158   */\n    tag_321:\n        /* \"#utility.yul\":2247:2248   */\n      0x00\n        /* \"#utility.yul\":2272:2325   */\n      tag_322\n        /* \"#utility.yul\":2317:2324   */\n      dup7\n        /* \"#utility.yul\":2308:2314   */\n      dup3\n        /* \"#utility.yul\":2297:2306   */\n      dup8\n        /* \"#utility.yul\":2293:2315   */\n      add\n        /* \"#utility.yul\":2272:2325   */\n      tag_290\n      jump\t// in\n    tag_322:\n        /* \"#utility.yul\":2262:2325   */\n      swap4\n      pop\n        /* \"#utility.yul\":2218:2335   */\n      pop\n        /* \"#utility.yul\":2374:2376   */\n      0x20\n        /* \"#utility.yul\":2400:2453   */\n      tag_323\n        /* \"#utility.yul\":2445:2452   */\n      dup7\n        /* \"#utility.yul\":2436:2442   */\n      dup3\n        /* \"#utility.yul\":2425:2434   */\n      dup8\n        /* \"#utility.yul\":2421:2443   */\n      add\n        /* \"#utility.yul\":2400:2453   */\n      tag_290\n      jump\t// in\n    tag_323:\n        /* \"#utility.yul\":2390:2453   */\n      swap3\n      pop\n        /* \"#utility.yul\":2345:2463   */\n      pop\n        /* \"#utility.yul\":2502:2504   */\n      0x40\n        /* \"#utility.yul\":2528:2581   */\n      tag_324\n        /* \"#utility.yul\":2573:2580   */\n      dup7\n        /* \"#utility.yul\":2564:2570   */\n      dup3\n        /* \"#utility.yul\":2553:2562   */\n      dup8\n        /* \"#utility.yul\":2549:2571   */\n      add\n        /* \"#utility.yul\":2528:2581   */\n      tag_309\n      jump\t// in\n    tag_324:\n        /* \"#utility.yul\":2518:2581   */\n      swap2\n      pop\n        /* \"#utility.yul\":2473:2591   */\n      pop\n        /* \"#utility.yul\":2146:2598   */\n      swap3\n      pop\n      swap3\n      pop\n      swap3\n      jump\t// out\n        /* \"#utility.yul\":2604:3413   */\n    tag_69:\n      0x00\n      dup1\n      0x00\n      dup1\n        /* \"#utility.yul\":2772:2775   */\n      0x80\n        /* \"#utility.yul\":2760:2769   */\n      dup6\n        /* \"#utility.yul\":2751:2758   */\n      dup8\n        /* \"#utility.yul\":2747:2770   */\n      sub\n        /* \"#utility.yul\":2743:2776   */\n      slt\n        /* \"#utility.yul\":2740:2742   */\n      iszero\n      tag_326\n      jumpi\n        /* \"#utility.yul\":2789:2790   */\n      0x00\n        /* \"#utility.yul\":2786:2787   */\n      dup1\n        /* \"#utility.yul\":2779:2791   */\n      revert\n        /* \"#utility.yul\":2740:2742   */\n    tag_326:\n        /* \"#utility.yul\":2832:2833   */\n      0x00\n        /* \"#utility.yul\":2857:2910   */\n      tag_327\n        /* \"#utility.yul\":2902:2909   */\n      dup8\n        /* \"#utility.yul\":2893:2899   */\n      dup3\n        /* \"#utility.yul\":2882:2891   */\n      dup9\n        /* \"#utility.yul\":2878:2900   */\n      add\n        /* \"#utility.yul\":2857:2910   */\n      tag_290\n      jump\t// in\n    tag_327:\n        /* \"#utility.yul\":2847:2910   */\n      swap5\n      pop\n        /* \"#utility.yul\":2803:2920   */\n      pop\n        /* \"#utility.yul\":2959:2961   */\n      0x20\n        /* \"#utility.yul\":2985:3038   */\n      tag_328\n        /* \"#utility.yul\":3030:3037   */\n      dup8\n        /* \"#utility.yul\":3021:3027   */\n      dup3\n        /* \"#utility.yul\":3010:3019   */\n      dup9\n        /* \"#utility.yul\":3006:3028   */\n      add\n        /* \"#utility.yul\":2985:3038   */\n      tag_290\n      jump\t// in\n    tag_328:\n        /* \"#utility.yul\":2975:3038   */\n      swap4\n      pop\n        /* \"#utility.yul\":2930:3048   */\n      pop\n        /* \"#utility.yul\":3087:3089   */\n      0x40\n        /* \"#utility.yul\":3113:3166   */\n      tag_329\n        /* \"#utility.yul\":3158:3165   */\n      dup8\n        /* \"#utility.yul\":3149:3155   */\n      dup3\n        /* \"#utility.yul\":3138:3147   */\n      dup9\n        /* \"#utility.yul\":3134:3156   */\n      add\n        /* \"#utility.yul\":3113:3166   */\n      tag_309\n      jump\t// in\n    tag_329:\n        /* \"#utility.yul\":3103:3166   */\n      swap3\n      pop\n        /* \"#utility.yul\":3058:3176   */\n      pop\n        /* \"#utility.yul\":3243:3245   */\n      0x60\n        /* \"#utility.yul\":3232:3241   */\n      dup6\n        /* \"#utility.yul\":3228:3246   */\n      add\n        /* \"#utility.yul\":3215:3247   */\n      calldataload\n        /* \"#utility.yul\":3274:3292   */\n      0xffffffffffffffff\n        /* \"#utility.yul\":3266:3272   */\n      dup2\n        /* \"#utility.yul\":3263:3293   */\n      gt\n        /* \"#utility.yul\":3260:3262   */\n      iszero\n      tag_330\n      jumpi\n        /* \"#utility.yul\":3306:3307   */\n      0x00\n        /* \"#utility.yul\":3303:3304   */\n      dup1\n        /* \"#utility.yul\":3296:3308   */\n      revert\n        /* \"#utility.yul\":3260:3262   */\n    tag_330:\n        /* \"#utility.yul\":3334:3396   */\n      tag_331\n        /* \"#utility.yul\":3388:3395   */\n      dup8\n        /* \"#utility.yul\":3379:3385   */\n      dup3\n        /* \"#utility.yul\":3368:3377   */\n      dup9\n        /* \"#utility.yul\":3364:3386   */\n      add\n        /* \"#utility.yul\":3334:3396   */\n      tag_305\n      jump\t// in\n    tag_331:\n        /* \"#utility.yul\":3324:3396   */\n      swap2\n      pop\n        /* \"#utility.yul\":3186:3406   */\n      pop\n        /* \"#utility.yul\":2730:3413   */\n      swap3\n      swap6\n      swap2\n      swap5\n      pop\n      swap3\n      pop\n      jump\t// out\n        /* \"#utility.yul\":3419:3820   */\n    tag_65:\n      0x00\n      dup1\n        /* \"#utility.yul\":3541:3543   */\n      0x40\n        /* \"#utility.yul\":3529:3538   */\n      dup4\n        /* \"#utility.yul\":3520:3527   */\n      dup6\n        /* \"#utility.yul\":3516:3539   */\n      sub\n        /* \"#utility.yul\":3512:3544   */\n      slt\n        /* \"#utility.yul\":3509:3511   */\n      iszero\n      tag_333\n      jumpi\n        /* \"#utility.yul\":3557:3558   */\n      0x00\n        /* \"#utility.yul\":3554:3555   */\n      dup1\n        /* \"#utility.yul\":3547:3559   */\n      revert\n        /* \"#utility.yul\":3509:3511   */\n    tag_333:\n        /* \"#utility.yul\":3600:3601   */\n      0x00\n        /* \"#utility.yul\":3625:3678   */\n      tag_334\n        /* \"#utility.yul\":3670:3677   */\n      dup6\n        /* \"#utility.yul\":3661:3667   */\n      dup3\n        /* \"#utility.yul\":3650:3659   */\n      dup7\n        /* \"#utility.yul\":3646:3668   */\n      add\n        /* \"#utility.yul\":3625:3678   */\n      tag_290\n      jump\t// in\n    tag_334:\n        /* \"#utility.yul\":3615:3678   */\n      swap3\n      pop\n        /* \"#utility.yul\":3571:3688   */\n      pop\n        /* \"#utility.yul\":3727:3729   */\n      0x20\n        /* \"#utility.yul\":3753:3803   */\n      tag_335\n        /* \"#utility.yul\":3795:3802   */\n      dup6\n        /* \"#utility.yul\":3786:3792   */\n      dup3\n        /* \"#utility.yul\":3775:3784   */\n      dup7\n        /* \"#utility.yul\":3771:3793   */\n      add\n        /* \"#utility.yul\":3753:3803   */\n      tag_294\n      jump\t// in\n    tag_335:\n        /* \"#utility.yul\":3743:3803   */\n      swap2\n      pop\n        /* \"#utility.yul\":3698:3813   */\n      pop\n        /* \"#utility.yul\":3499:3820   */\n      swap3\n      pop\n      swap3\n      swap1\n      pop\n      jump\t// out\n        /* \"#utility.yul\":3826:4233   */\n    tag_38:\n      0x00\n      dup1\n        /* \"#utility.yul\":3951:3953   */\n      0x40\n        /* \"#utility.yul\":3939:3948   */\n      dup4\n        /* \"#utility.yul\":3930:3937   */\n      dup6\n        /* \"#utility.yul\":3926:3949   */\n      sub\n        /* \"#utility.yul\":3922:3954   */\n      slt\n        /* \"#utility.yul\":3919:3921   */\n      iszero\n      tag_337\n      jumpi\n        /* \"#utility.yul\":3967:3968   */\n      0x00\n        /* \"#utility.yul\":3964:3965   */\n      dup1\n        /* \"#utility.yul\":3957:3969   */\n      revert\n        /* \"#utility.yul\":3919:3921   */\n    tag_337:\n        /* \"#utility.yul\":4010:4011   */\n      0x00\n        /* \"#utility.yul\":4035:4088   */\n      tag_338\n        /* \"#utility.yul\":4080:4087   */\n      dup6\n        /* \"#utility.yul\":4071:4077   */\n      dup3\n        /* \"#utility.yul\":4060:4069   */\n      dup7\n        /* \"#utility.yul\":4056:4078   */\n      add\n        /* \"#utility.yul\":4035:4088   */\n      tag_290\n      jump\t// in\n    tag_338:\n        /* \"#utility.yul\":4025:4088   */\n      swap3\n      pop\n        /* \"#utility.yul\":3981:4098   */\n      pop\n        /* \"#utility.yul\":4137:4139   */\n      0x20\n        /* \"#utility.yul\":4163:4216   */\n      tag_339\n        /* \"#utility.yul\":4208:4215   */\n      dup6\n        /* \"#utility.yul\":4199:4205   */\n      dup3\n        /* \"#utility.yul\":4188:4197   */\n      dup7\n        /* \"#utility.yul\":4184:4206   */\n      add\n        /* \"#utility.yul\":4163:4216   */\n      tag_309\n      jump\t// in\n    tag_339:\n        /* \"#utility.yul\":4153:4216   */\n      swap2\n      pop\n        /* \"#utility.yul\":4108:4226   */\n      pop\n        /* \"#utility.yul\":3909:4233   */\n      swap3\n      pop\n      swap3\n      swap1\n      pop\n      jump\t// out\n        /* \"#utility.yul\":4239:4499   */\n    tag_22:\n      0x00\n        /* \"#utility.yul\":4346:4348   */\n      0x20\n        /* \"#utility.yul\":4334:4343   */\n      dup3\n        /* \"#utility.yul\":4325:4332   */\n      dup5\n        /* \"#utility.yul\":4321:4344   */\n      sub\n        /* \"#utility.yul\":4317:4349   */\n      slt\n        /* \"#utility.yul\":4314:4316   */\n      iszero\n      tag_341\n      jumpi\n        /* \"#utility.yul\":4362:4363   */\n      0x00\n        /* \"#utility.yul\":4359:4360   */\n      dup1\n        /* \"#utility.yul\":4352:4364   */\n      revert\n        /* \"#utility.yul\":4314:4316   */\n    tag_341:\n        /* \"#utility.yul\":4405:4406   */\n      0x00\n        /* \"#utility.yul\":4430:4482   */\n      tag_342\n        /* \"#utility.yul\":4474:4481   */\n      dup5\n        /* \"#utility.yul\":4465:4471   */\n      dup3\n        /* \"#utility.yul\":4454:4463   */\n      dup6\n        /* \"#utility.yul\":4450:4472   */\n      add\n        /* \"#utility.yul\":4430:4482   */\n      tag_298\n      jump\t// in\n    tag_342:\n        /* \"#utility.yul\":4420:4482   */\n      swap2\n      pop\n        /* \"#utility.yul\":4376:4492   */\n      pop\n        /* \"#utility.yul\":4304:4499   */\n      swap3\n      swap2\n      pop\n      pop\n      jump\t// out\n        /* \"#utility.yul\":4505:4787   */\n    tag_256:\n      0x00\n        /* \"#utility.yul\":4623:4625   */\n      0x20\n        /* \"#utility.yul\":4611:4620   */\n      dup3\n        /* \"#utility.yul\":4602:4609   */\n      dup5\n        /* \"#utility.yul\":4598:4621   */\n      sub\n        /* \"#utility.yul\":4594:4626   */\n      slt\n        /* \"#utility.yul\":4591:4593   */\n      iszero\n      tag_344\n      jumpi\n        /* \"#utility.yul\":4639:4640   */\n      0x00\n        /* \"#utility.yul\":4636:4637   */\n      dup1\n        /* \"#utility.yul\":4629:4641   */\n      revert\n        /* \"#utility.yul\":4591:4593   */\n    tag_344:\n        /* \"#utility.yul\":4682:4683   */\n      0x00\n        /* \"#utility.yul\":4707:4770   */\n      tag_345\n        /* \"#utility.yul\":4762:4769   */\n      dup5\n        /* \"#utility.yul\":4753:4759   */\n      dup3\n        /* \"#utility.yul\":4742:4751   */\n      dup6\n        /* \"#utility.yul\":4738:4760   */\n      add\n        /* \"#utility.yul\":4707:4770   */\n      tag_302\n      jump\t// in\n    tag_345:\n        /* \"#utility.yul\":4697:4770   */\n      swap2\n      pop\n        /* \"#utility.yul\":4653:4780   */\n      pop\n        /* \"#utility.yul\":4581:4787   */\n      swap3\n      swap2\n      pop\n      pop\n      jump\t// out\n        /* \"#utility.yul\":4793:5055   */\n    tag_32:\n      0x00\n        /* \"#utility.yul\":4901:4903   */\n      0x20\n        /* \"#utility.yul\":4889:4898   */\n      dup3\n        /* \"#utility.yul\":4880:4887   */\n      dup5\n        /* \"#utility.yul\":4876:4899   */\n      sub\n        /* \"#utility.yul\":4872:4904   */\n      slt\n        /* \"#utility.yul\":4869:4871   */\n      iszero\n      tag_347\n      jumpi\n        /* \"#utility.yul\":4917:4918   */\n      0x00\n        /* \"#utility.yul\":4914:4915   */\n      dup1\n        /* \"#utility.yul\":4907:4919   */\n      revert\n        /* \"#utility.yul\":4869:4871   */\n    tag_347:\n        /* \"#utility.yul\":4960:4961   */\n      0x00\n        /* \"#utility.yul\":4985:5038   */\n      tag_348\n        /* \"#utility.yul\":5030:5037   */\n      dup5\n        /* \"#utility.yul\":5021:5027   */\n      dup3\n        /* \"#utility.yul\":5010:5019   */\n      dup6\n        /* \"#utility.yul\":5006:5028   */\n      add\n        /* \"#utility.yul\":4985:5038   */\n      tag_309\n      jump\t// in\n    tag_348:\n        /* \"#utility.yul\":4975:5038   */\n      swap2\n      pop\n        /* \"#utility.yul\":4931:5048   */\n      pop\n        /* \"#utility.yul\":4859:5055   */\n      swap3\n      swap2\n      pop\n      pop\n      jump\t// out\n        /* \"#utility.yul\":5061:5179   */\n    tag_349:\n        /* \"#utility.yul\":5148:5172   */\n      tag_351\n        /* \"#utility.yul\":5166:5171   */\n      dup2\n        /* \"#utility.yul\":5148:5172   */\n      tag_352\n      jump\t// in\n    tag_351:\n        /* \"#utility.yul\":5143:5146   */\n      dup3\n        /* \"#utility.yul\":5136:5173   */\n      mstore\n        /* \"#utility.yul\":5126:5179   */\n      pop\n      pop\n      jump\t// out\n        /* \"#utility.yul\":5185:5294   */\n    tag_353:\n        /* \"#utility.yul\":5266:5287   */\n      tag_355\n        /* \"#utility.yul\":5281:5286   */\n      dup2\n        /* \"#utility.yul\":5266:5287   */\n      tag_356\n      jump\t// in\n    tag_355:\n        /* \"#utility.yul\":5261:5264   */\n      dup3\n        /* \"#utility.yul\":5254:5288   */\n      mstore\n        /* \"#utility.yul\":5244:5294   */\n      pop\n      pop\n      jump\t// out\n        /* \"#utility.yul\":5300:5660   */\n    tag_357:\n      0x00\n        /* \"#utility.yul\":5414:5452   */\n      tag_359\n        /* \"#utility.yul\":5446:5451   */\n      dup3\n        /* \"#utility.yul\":5414:5452   */\n      tag_360\n      jump\t// in\n    tag_359:\n        /* \"#utility.yul\":5468:5538   */\n      tag_361\n        /* \"#utility.yul\":5531:5537   */\n      dup2\n        /* \"#utility.yul\":5526:5529   */\n      dup6\n        /* \"#utility.yul\":5468:5538   */\n      tag_362\n      jump\t// in\n    tag_361:\n        /* \"#utility.yul\":5461:5538   */\n      swap4\n      pop\n        /* \"#utility.yul\":5547:5599   */\n      tag_363\n        /* \"#utility.yul\":5592:5598   */\n      dup2\n        /* \"#utility.yul\":5587:5590   */\n      dup6\n        /* \"#utility.yul\":5580:5584   */\n      0x20\n        /* \"#utility.yul\":5573:5578   */\n      dup7\n        /* \"#utility.yul\":5569:5585   */\n      add\n        /* \"#utility.yul\":5547:5599   */\n      tag_364\n      jump\t// in\n    tag_363:\n        /* \"#utility.yul\":5624:5653   */\n      tag_365\n        /* \"#utility.yul\":5646:5652   */\n      dup2\n        /* \"#utility.yul\":5624:5653   */\n      tag_366\n      jump\t// in\n    tag_365:\n        /* \"#utility.yul\":5619:5622   */\n      dup5\n        /* \"#utility.yul\":5615:5654   */\n      add\n        /* \"#utility.yul\":5608:5654   */\n      swap2\n      pop\n        /* \"#utility.yul\":5390:5660   */\n      pop\n      swap3\n      swap2\n      pop\n      pop\n      jump\t// out\n        /* \"#utility.yul\":5666:6030   */\n    tag_367:\n      0x00\n        /* \"#utility.yul\":5782:5821   */\n      tag_369\n        /* \"#utility.yul\":5815:5820   */\n      dup3\n        /* \"#utility.yul\":5782:5821   */\n      tag_370\n      jump\t// in\n    tag_369:\n        /* \"#utility.yul\":5837:5908   */\n      tag_371\n        /* \"#utility.yul\":5901:5907   */\n      dup2\n        /* \"#utility.yul\":5896:5899   */\n      dup6\n        /* \"#utility.yul\":5837:5908   */\n      tag_372\n      jump\t// in\n    tag_371:\n        /* \"#utility.yul\":5830:5908   */\n      swap4\n      pop\n        /* \"#utility.yul\":5917:5969   */\n      tag_373\n        /* \"#utility.yul\":5962:5968   */\n      dup2\n        /* \"#utility.yul\":5957:5960   */\n      dup6\n        /* \"#utility.yul\":5950:5954   */\n      0x20\n        /* \"#utility.yul\":5943:5948   */\n      dup7\n        /* \"#utility.yul\":5939:5955   */\n      add\n        /* \"#utility.yul\":5917:5969   */\n      tag_364\n      jump\t// in\n    tag_373:\n        /* \"#utility.yul\":5994:6023   */\n      tag_374\n        /* \"#utility.yul\":6016:6022   */\n      dup2\n        /* \"#utility.yul\":5994:6023   */\n      tag_366\n      jump\t// in\n    tag_374:\n        /* \"#utility.yul\":5989:5992   */\n      dup5\n        /* \"#utility.yul\":5985:6024   */\n      add\n        /* \"#utility.yul\":5978:6024   */\n      swap2\n      pop\n        /* \"#utility.yul\":5758:6030   */\n      pop\n      swap3\n      swap2\n      pop\n      pop\n      jump\t// out\n        /* \"#utility.yul\":6036:6413   */\n    tag_375:\n      0x00\n        /* \"#utility.yul\":6170:6209   */\n      tag_377\n        /* \"#utility.yul\":6203:6208   */\n      dup3\n        /* \"#utility.yul\":6170:6209   */\n      tag_370\n      jump\t// in\n    tag_377:\n        /* \"#utility.yul\":6225:6314   */\n      tag_378\n        /* \"#utility.yul\":6307:6313   */\n      dup2\n        /* \"#utility.yul\":6302:6305   */\n      dup6\n        /* \"#utility.yul\":6225:6314   */\n      tag_379\n      jump\t// in\n    tag_378:\n        /* \"#utility.yul\":6218:6314   */\n      swap4\n      pop\n        /* \"#utility.yul\":6323:6375   */\n      tag_380\n        /* \"#utility.yul\":6368:6374   */\n      dup2\n        /* \"#utility.yul\":6363:6366   */\n      dup6\n        /* \"#utility.yul\":6356:6360   */\n      0x20\n        /* \"#utility.yul\":6349:6354   */\n      dup7\n        /* \"#utility.yul\":6345:6361   */\n      add\n        /* \"#utility.yul\":6323:6375   */\n      tag_364\n      jump\t// in\n    tag_380:\n        /* \"#utility.yul\":6400:6406   */\n      dup1\n        /* \"#utility.yul\":6395:6398   */\n      dup5\n        /* \"#utility.yul\":6391:6407   */\n      add\n        /* \"#utility.yul\":6384:6407   */\n      swap2\n      pop\n        /* \"#utility.yul\":6146:6413   */\n      pop\n      swap3\n      swap2\n      pop\n      pop\n      jump\t// out\n        /* \"#utility.yul\":6419:6785   */\n    tag_381:\n      0x00\n        /* \"#utility.yul\":6582:6649   */\n      tag_383\n        /* \"#utility.yul\":6646:6648   */\n      0x32\n        /* \"#utility.yul\":6641:6644   */\n      dup4\n        /* \"#utility.yul\":6582:6649   */\n      tag_372\n      jump\t// in\n    tag_383:\n        /* \"#utility.yul\":6575:6649   */\n      swap2\n      pop\n        /* \"#utility.yul\":6658:6751   */\n      tag_384\n        /* \"#utility.yul\":6747:6750   */\n      dup3\n        /* \"#utility.yul\":6658:6751   */\n      tag_385\n      jump\t// in\n    tag_384:\n        /* \"#utility.yul\":6776:6778   */\n      0x40\n        /* \"#utility.yul\":6771:6774   */\n      dup3\n        /* \"#utility.yul\":6767:6779   */\n      add\n        /* \"#utility.yul\":6760:6779   */\n      swap1\n      pop\n        /* \"#utility.yul\":6565:6785   */\n      swap2\n      swap1\n      pop\n      jump\t// out\n        /* \"#utility.yul\":6791:7157   */\n    tag_386:\n      0x00\n        /* \"#utility.yul\":6954:7021   */\n      tag_388\n        /* \"#utility.yul\":7018:7020   */\n      0x25\n        /* \"#utility.yul\":7013:7016   */\n      dup4\n        /* \"#utility.yul\":6954:7021   */\n      tag_372\n      jump\t// in\n    tag_388:\n        /* \"#utility.yul\":6947:7021   */\n      swap2\n      pop\n        /* \"#utility.yul\":7030:7123   */\n      tag_389\n        /* \"#utility.yul\":7119:7122   */\n      dup3\n        /* \"#utility.yul\":7030:7123   */\n      tag_390\n      jump\t// in\n    tag_389:\n        /* \"#utility.yul\":7148:7150   */\n      0x40\n        /* \"#utility.yul\":7143:7146   */\n      dup3\n        /* \"#utility.yul\":7139:7151   */\n      add\n        /* \"#utility.yul\":7132:7151   */\n      swap1\n      pop\n        /* \"#utility.yul\":6937:7157   */\n      swap2\n      swap1\n      pop\n      jump\t// out\n        /* \"#utility.yul\":7163:7529   */\n    tag_391:\n      0x00\n        /* \"#utility.yul\":7326:7393   */\n      tag_393\n        /* \"#utility.yul\":7390:7392   */\n      0x1c\n        /* \"#utility.yul\":7385:7388   */\n      dup4\n        /* \"#utility.yul\":7326:7393   */\n      tag_372\n      jump\t// in\n    tag_393:\n        /* \"#utility.yul\":7319:7393   */\n      swap2\n      pop\n        /* \"#utility.yul\":7402:7495   */\n      tag_394\n        /* \"#utility.yul\":7491:7494   */\n      dup3\n        /* \"#utility.yul\":7402:7495   */\n      tag_395\n      jump\t// in\n    tag_394:\n        /* \"#utility.yul\":7520:7522   */\n      0x20\n        /* \"#utility.yul\":7515:7518   */\n      dup3\n        /* \"#utility.yul\":7511:7523   */\n      add\n        /* \"#utility.yul\":7504:7523   */\n      swap1\n      pop\n        /* \"#utility.yul\":7309:7529   */\n      swap2\n      swap1\n      pop\n      jump\t// out\n        /* \"#utility.yul\":7535:7901   */\n    tag_396:\n      0x00\n        /* \"#utility.yul\":7698:7765   */\n      tag_398\n        /* \"#utility.yul\":7762:7764   */\n      0x24\n        /* \"#utility.yul\":7757:7760   */\n      dup4\n        /* \"#utility.yul\":7698:7765   */\n      tag_372\n      jump\t// in\n    tag_398:\n        /* \"#utility.yul\":7691:7765   */\n      swap2\n      pop\n        /* \"#utility.yul\":7774:7867   */\n      tag_399\n        /* \"#utility.yul\":7863:7866   */\n      dup3\n        /* \"#utility.yul\":7774:7867   */\n      tag_400\n      jump\t// in\n    tag_399:\n        /* \"#utility.yul\":7892:7894   */\n      0x40\n        /* \"#utility.yul\":7887:7890   */\n      dup3\n        /* \"#utility.yul\":7883:7895   */\n      add\n        /* \"#utility.yul\":7876:7895   */\n      swap1\n      pop\n        /* \"#utility.yul\":7681:7901   */\n      swap2\n      swap1\n      pop\n      jump\t// out\n        /* \"#utility.yul\":7907:8273   */\n    tag_401:\n      0x00\n        /* \"#utility.yul\":8070:8137   */\n      tag_403\n        /* \"#utility.yul\":8134:8136   */\n      0x19\n        /* \"#utility.yul\":8129:8132   */\n      dup4\n        /* \"#utility.yul\":8070:8137   */\n      tag_372\n      jump\t// in\n    tag_403:\n        /* \"#utility.yul\":8063:8137   */\n      swap2\n      pop\n        /* \"#utility.yul\":8146:8239   */\n      tag_404\n        /* \"#utility.yul\":8235:8238   */\n      dup3\n        /* \"#utility.yul\":8146:8239   */\n      tag_405\n      jump\t// in\n    tag_404:\n        /* \"#utility.yul\":8264:8266   */\n      0x20\n        /* \"#utility.yul\":8259:8262   */\n      dup3\n        /* \"#utility.yul\":8255:8267   */\n      add\n        /* \"#utility.yul\":8248:8267   */\n      swap1\n      pop\n        /* \"#utility.yul\":8053:8273   */\n      swap2\n      swap1\n      pop\n      jump\t// out\n        /* \"#utility.yul\":8279:8645   */\n    tag_406:\n      0x00\n        /* \"#utility.yul\":8442:8509   */\n      tag_408\n        /* \"#utility.yul\":8506:8508   */\n      0x2c\n        /* \"#utility.yul\":8501:8504   */\n      dup4\n        /* \"#utility.yul\":8442:8509   */\n      tag_372\n      jump\t// in\n    tag_408:\n        /* \"#utility.yul\":8435:8509   */\n      swap2\n      pop\n        /* \"#utility.yul\":8518:8611   */\n      tag_409\n        /* \"#utility.yul\":8607:8610   */\n      dup3\n        /* \"#utility.yul\":8518:8611   */\n      tag_410\n      jump\t// in\n    tag_409:\n        /* \"#utility.yul\":8636:8638   */\n      0x40\n        /* \"#utility.yul\":8631:8634   */\n      dup3\n        /* \"#utility.yul\":8627:8639   */\n      add\n        /* \"#utility.yul\":8620:8639   */\n      swap1\n      pop\n        /* \"#utility.yul\":8425:8645   */\n      swap2\n      swap1\n      pop\n      jump\t// out\n        /* \"#utility.yul\":8651:9017   */\n    tag_411:\n      0x00\n        /* \"#utility.yul\":8814:8881   */\n      tag_413\n        /* \"#utility.yul\":8878:8880   */\n      0x38\n        /* \"#utility.yul\":8873:8876   */\n      dup4\n        /* \"#utility.yul\":8814:8881   */\n      tag_372\n      jump\t// in\n    tag_413:\n        /* \"#utility.yul\":8807:8881   */\n      swap2\n      pop\n        /* \"#utility.yul\":8890:8983   */\n      tag_414\n        /* \"#utility.yul\":8979:8982   */\n      dup3\n        /* \"#utility.yul\":8890:8983   */\n      tag_415\n      jump\t// in\n    tag_414:\n        /* \"#utility.yul\":9008:9010   */\n      0x40\n        /* \"#utility.yul\":9003:9006   */\n      dup3\n        /* \"#utility.yul\":8999:9011   */\n      add\n        /* \"#utility.yul\":8992:9011   */\n      swap1\n      pop\n        /* \"#utility.yul\":8797:9017   */\n      swap2\n      swap1\n      pop\n      jump\t// out\n        /* \"#utility.yul\":9023:9389   */\n    tag_416:\n      0x00\n        /* \"#utility.yul\":9186:9253   */\n      tag_418\n        /* \"#utility.yul\":9250:9252   */\n      0x2a\n        /* \"#utility.yul\":9245:9248   */\n      dup4\n        /* \"#utility.yul\":9186:9253   */\n      tag_372\n      jump\t// in\n    tag_418:\n        /* \"#utility.yul\":9179:9253   */\n      swap2\n      pop\n        /* \"#utility.yul\":9262:9355   */\n      tag_419\n        /* \"#utility.yul\":9351:9354   */\n      dup3\n        /* \"#utility.yul\":9262:9355   */\n      tag_420\n      jump\t// in\n    tag_419:\n        /* \"#utility.yul\":9380:9382   */\n      0x40\n        /* \"#utility.yul\":9375:9378   */\n      dup3\n        /* \"#utility.yul\":9371:9383   */\n      add\n        /* \"#utility.yul\":9364:9383   */\n      swap1\n      pop\n        /* \"#utility.yul\":9169:9389   */\n      swap2\n      swap1\n      pop\n      jump\t// out\n        /* \"#utility.yul\":9395:9761   */\n    tag_421:\n      0x00\n        /* \"#utility.yul\":9558:9625   */\n      tag_423\n        /* \"#utility.yul\":9622:9624   */\n      0x29\n        /* \"#utility.yul\":9617:9620   */\n      dup4\n        /* \"#utility.yul\":9558:9625   */\n      tag_372\n      jump\t// in\n    tag_423:\n        /* \"#utility.yul\":9551:9625   */\n      swap2\n      pop\n        /* \"#utility.yul\":9634:9727   */\n      tag_424\n        /* \"#utility.yul\":9723:9726   */\n      dup3\n        /* \"#utility.yul\":9634:9727   */\n      tag_425\n      jump\t// in\n    tag_424:\n        /* \"#utility.yul\":9752:9754   */\n      0x40\n        /* \"#utility.yul\":9747:9750   */\n      dup3\n        /* \"#utility.yul\":9743:9755   */\n      add\n        /* \"#utility.yul\":9736:9755   */\n      swap1\n      pop\n        /* \"#utility.yul\":9541:9761   */\n      swap2\n      swap1\n      pop\n      jump\t// out\n        /* \"#utility.yul\":9767:10133   */\n    tag_426:\n      0x00\n        /* \"#utility.yul\":9930:9997   */\n      tag_428\n        /* \"#utility.yul\":9994:9996   */\n      0x20\n        /* \"#utility.yul\":9989:9992   */\n      dup4\n        /* \"#utility.yul\":9930:9997   */\n      tag_372\n      jump\t// in\n    tag_428:\n        /* \"#utility.yul\":9923:9997   */\n      swap2\n      pop\n        /* \"#utility.yul\":10006:10099   */\n      tag_429\n        /* \"#utility.yul\":10095:10098   */\n      dup3\n        /* \"#utility.yul\":10006:10099   */\n      tag_430\n      jump\t// in\n    tag_429:\n        /* \"#utility.yul\":10124:10126   */\n      0x20\n        /* \"#utility.yul\":10119:10122   */\n      dup3\n        /* \"#utility.yul\":10115:10127   */\n      add\n        /* \"#utility.yul\":10108:10127   */\n      swap1\n      pop\n        /* \"#utility.yul\":9913:10133   */\n      swap2\n      swap1\n      pop\n      jump\t// out\n        /* \"#utility.yul\":10139:10505   */\n    tag_431:\n      0x00\n        /* \"#utility.yul\":10302:10369   */\n      tag_433\n        /* \"#utility.yul\":10366:10368   */\n      0x2c\n        /* \"#utility.yul\":10361:10364   */\n      dup4\n        /* \"#utility.yul\":10302:10369   */\n      tag_372\n      jump\t// in\n    tag_433:\n        /* \"#utility.yul\":10295:10369   */\n      swap2\n      pop\n        /* \"#utility.yul\":10378:10471   */\n      tag_434\n        /* \"#utility.yul\":10467:10470   */\n      dup3\n        /* \"#utility.yul\":10378:10471   */\n      tag_435\n      jump\t// in\n    tag_434:\n        /* \"#utility.yul\":10496:10498   */\n      0x40\n        /* \"#utility.yul\":10491:10494   */\n      dup3\n        /* \"#utility.yul\":10487:10499   */\n      add\n        /* \"#utility.yul\":10480:10499   */\n      swap1\n      pop\n        /* \"#utility.yul\":10285:10505   */\n      swap2\n      swap1\n      pop\n      jump\t// out\n        /* \"#utility.yul\":10511:10877   */\n    tag_436:\n      0x00\n        /* \"#utility.yul\":10674:10741   */\n      tag_438\n        /* \"#utility.yul\":10738:10740   */\n      0x2f\n        /* \"#utility.yul\":10733:10736   */\n      dup4\n        /* \"#utility.yul\":10674:10741   */\n      tag_372\n      jump\t// in\n    tag_438:\n        /* \"#utility.yul\":10667:10741   */\n      swap2\n      pop\n        /* \"#utility.yul\":10750:10843   */\n      tag_439\n        /* \"#utility.yul\":10839:10842   */\n      dup3\n        /* \"#utility.yul\":10750:10843   */\n      tag_440\n      jump\t// in\n    tag_439:\n        /* \"#utility.yul\":10868:10870   */\n      0x40\n        /* \"#utility.yul\":10863:10866   */\n      dup3\n        /* \"#utility.yul\":10859:10871   */\n      add\n        /* \"#utility.yul\":10852:10871   */\n      swap1\n      pop\n        /* \"#utility.yul\":10657:10877   */\n      swap2\n      swap1\n      pop\n      jump\t// out\n        /* \"#utility.yul\":10883:11249   */\n    tag_441:\n      0x00\n        /* \"#utility.yul\":11046:11113   */\n      tag_443\n        /* \"#utility.yul\":11110:11112   */\n      0x21\n        /* \"#utility.yul\":11105:11108   */\n      dup4\n        /* \"#utility.yul\":11046:11113   */\n      tag_372\n      jump\t// in\n    tag_443:\n        /* \"#utility.yul\":11039:11113   */\n      swap2\n      pop\n        /* \"#utility.yul\":11122:11215   */\n      tag_444\n        /* \"#utility.yul\":11211:11214   */\n      dup3\n        /* \"#utility.yul\":11122:11215   */\n      tag_445\n      jump\t// in\n    tag_444:\n        /* \"#utility.yul\":11240:11242   */\n      0x40\n        /* \"#utility.yul\":11235:11238   */\n      dup3\n        /* \"#utility.yul\":11231:11243   */\n      add\n        /* \"#utility.yul\":11224:11243   */\n      swap1\n      pop\n        /* \"#utility.yul\":11029:11249   */\n      swap2\n      swap1\n      pop\n      jump\t// out\n        /* \"#utility.yul\":11255:11621   */\n    tag_446:\n      0x00\n        /* \"#utility.yul\":11418:11485   */\n      tag_448\n        /* \"#utility.yul\":11482:11484   */\n      0x31\n        /* \"#utility.yul\":11477:11480   */\n      dup4\n        /* \"#utility.yul\":11418:11485   */\n      tag_372\n      jump\t// in\n    tag_448:\n        /* \"#utility.yul\":11411:11485   */\n      swap2\n      pop\n        /* \"#utility.yul\":11494:11587   */\n      tag_449\n        /* \"#utility.yul\":11583:11586   */\n      dup3\n        /* \"#utility.yul\":11494:11587   */\n      tag_450\n      jump\t// in\n    tag_449:\n        /* \"#utility.yul\":11612:11614   */\n      0x40\n        /* \"#utility.yul\":11607:11610   */\n      dup3\n        /* \"#utility.yul\":11603:11615   */\n      add\n        /* \"#utility.yul\":11596:11615   */\n      swap1\n      pop\n        /* \"#utility.yul\":11401:11621   */\n      swap2\n      swap1\n      pop\n      jump\t// out\n        /* \"#utility.yul\":11627:11745   */\n    tag_451:\n        /* \"#utility.yul\":11714:11738   */\n      tag_453\n        /* \"#utility.yul\":11732:11737   */\n      dup2\n        /* \"#utility.yul\":11714:11738   */\n      tag_454\n      jump\t// in\n    tag_453:\n        /* \"#utility.yul\":11709:11712   */\n      dup3\n        /* \"#utility.yul\":11702:11739   */\n      mstore\n        /* \"#utility.yul\":11692:11745   */\n      pop\n      pop\n      jump\t// out\n        /* \"#utility.yul\":11751:12186   */\n    tag_168:\n      0x00\n        /* \"#utility.yul\":11953:12048   */\n      tag_456\n        /* \"#utility.yul\":12044:12047   */\n      dup3\n        /* \"#utility.yul\":12035:12041   */\n      dup6\n        /* \"#utility.yul\":11953:12048   */\n      tag_375\n      jump\t// in\n    tag_456:\n        /* \"#utility.yul\":11946:12048   */\n      swap2\n      pop\n        /* \"#utility.yul\":12065:12160   */\n      tag_457\n        /* \"#utility.yul\":12156:12159   */\n      dup3\n        /* \"#utility.yul\":12147:12153   */\n      dup5\n        /* \"#utility.yul\":12065:12160   */\n      tag_375\n      jump\t// in\n    tag_457:\n        /* \"#utility.yul\":12058:12160   */\n      swap2\n      pop\n        /* \"#utility.yul\":12177:12180   */\n      dup2\n        /* \"#utility.yul\":12170:12180   */\n      swap1\n      pop\n        /* \"#utility.yul\":11935:12186   */\n      swap4\n      swap3\n      pop\n      pop\n      pop\n      jump\t// out\n        /* \"#utility.yul\":12192:12414   */\n    tag_35:\n      0x00\n        /* \"#utility.yul\":12323:12325   */\n      0x20\n        /* \"#utility.yul\":12312:12321   */\n      dup3\n        /* \"#utility.yul\":12308:12326   */\n      add\n        /* \"#utility.yul\":12300:12326   */\n      swap1\n      pop\n        /* \"#utility.yul\":12336:12407   */\n      tag_459\n        /* \"#utility.yul\":12404:12405   */\n      0x00\n        /* \"#utility.yul\":12393:12402   */\n      dup4\n        /* \"#utility.yul\":12389:12406   */\n      add\n        /* \"#utility.yul\":12380:12386   */\n      dup5\n        /* \"#utility.yul\":12336:12407   */\n      tag_349\n      jump\t// in\n    tag_459:\n        /* \"#utility.yul\":12290:12414   */\n      swap3\n      swap2\n      pop\n      pop\n      jump\t// out\n        /* \"#utility.yul\":12420:13060   */\n    tag_252:\n      0x00\n        /* \"#utility.yul\":12653:12656   */\n      0x80\n        /* \"#utility.yul\":12642:12651   */\n      dup3\n        /* \"#utility.yul\":12638:12657   */\n      add\n        /* \"#utility.yul\":12630:12657   */\n      swap1\n      pop\n        /* \"#utility.yul\":12667:12738   */\n      tag_461\n        /* \"#utility.yul\":12735:12736   */\n      0x00\n        /* \"#utility.yul\":12724:12733   */\n      dup4\n        /* \"#utility.yul\":12720:12737   */\n      add\n        /* \"#utility.yul\":12711:12717   */\n      dup8\n        /* \"#utility.yul\":12667:12738   */\n      tag_349\n      jump\t// in\n    tag_461:\n        /* \"#utility.yul\":12748:12820   */\n      tag_462\n        /* \"#utility.yul\":12816:12818   */\n      0x20\n        /* \"#utility.yul\":12805:12814   */\n      dup4\n        /* \"#utility.yul\":12801:12819   */\n      add\n        /* \"#utility.yul\":12792:12798   */\n      dup7\n        /* \"#utility.yul\":12748:12820   */\n      tag_349\n      jump\t// in\n    tag_462:\n        /* \"#utility.yul\":12830:12902   */\n      tag_463\n        /* \"#utility.yul\":12898:12900   */\n      0x40\n        /* \"#utility.yul\":12887:12896   */\n      dup4\n        /* \"#utility.yul\":12883:12901   */\n      add\n        /* \"#utility.yul\":12874:12880   */\n      dup6\n        /* \"#utility.yul\":12830:12902   */\n      tag_451\n      jump\t// in\n    tag_463:\n        /* \"#utility.yul\":12949:12958   */\n      dup2\n        /* \"#utility.yul\":12943:12947   */\n      dup2\n        /* \"#utility.yul\":12939:12959   */\n      sub\n        /* \"#utility.yul\":12934:12936   */\n      0x60\n        /* \"#utility.yul\":12923:12932   */\n      dup4\n        /* \"#utility.yul\":12919:12937   */\n      add\n        /* \"#utility.yul\":12912:12960   */\n      mstore\n        /* \"#utility.yul\":12977:13053   */\n      tag_464\n        /* \"#utility.yul\":13048:13052   */\n      dup2\n        /* \"#utility.yul\":13039:13045   */\n      dup5\n        /* \"#utility.yul\":12977:13053   */\n      tag_357\n      jump\t// in\n    tag_464:\n        /* \"#utility.yul\":12969:13053   */\n      swap1\n      pop\n        /* \"#utility.yul\":12620:13060   */\n      swap6\n      swap5\n      pop\n      pop\n      pop\n      pop\n      pop\n      jump\t// out\n        /* \"#utility.yul\":13066:13276   */\n    tag_25:\n      0x00\n        /* \"#utility.yul\":13191:13193   */\n      0x20\n        /* \"#utility.yul\":13180:13189   */\n      dup3\n        /* \"#utility.yul\":13176:13194   */\n      add\n        /* \"#utility.yul\":13168:13194   */\n      swap1\n      pop\n        /* \"#utility.yul\":13204:13269   */\n      tag_466\n        /* \"#utility.yul\":13266:13267   */\n      0x00\n        /* \"#utility.yul\":13255:13264   */\n      dup4\n        /* \"#utility.yul\":13251:13268   */\n      add\n        /* \"#utility.yul\":13242:13248   */\n      dup5\n        /* \"#utility.yul\":13204:13269   */\n      tag_353\n      jump\t// in\n    tag_466:\n        /* \"#utility.yul\":13158:13276   */\n      swap3\n      swap2\n      pop\n      pop\n      jump\t// out\n        /* \"#utility.yul\":13282:13595   */\n    tag_29:\n      0x00\n        /* \"#utility.yul\":13433:13435   */\n      0x20\n        /* \"#utility.yul\":13422:13431   */\n      dup3\n        /* \"#utility.yul\":13418:13436   */\n      add\n        /* \"#utility.yul\":13410:13436   */\n      swap1\n      pop\n        /* \"#utility.yul\":13482:13491   */\n      dup2\n        /* \"#utility.yul\":13476:13480   */\n      dup2\n        /* \"#utility.yul\":13472:13492   */\n      sub\n        /* \"#utility.yul\":13468:13469   */\n      0x00\n        /* \"#utility.yul\":13457:13466   */\n      dup4\n        /* \"#utility.yul\":13453:13470   */\n      add\n        /* \"#utility.yul\":13446:13493   */\n      mstore\n        /* \"#utility.yul\":13510:13588   */\n      tag_468\n        /* \"#utility.yul\":13583:13587   */\n      dup2\n        /* \"#utility.yul\":13574:13580   */\n      dup5\n        /* \"#utility.yul\":13510:13588   */\n      tag_367\n      jump\t// in\n    tag_468:\n        /* \"#utility.yul\":13502:13588   */\n      swap1\n      pop\n        /* \"#utility.yul\":13400:13595   */\n      swap3\n      swap2\n      pop\n      pop\n      jump\t// out\n        /* \"#utility.yul\":13601:14020   */\n    tag_218:\n      0x00\n        /* \"#utility.yul\":13805:13807   */\n      0x20\n        /* \"#utility.yul\":13794:13803   */\n      dup3\n        /* \"#utility.yul\":13790:13808   */\n      add\n        /* \"#utility.yul\":13782:13808   */\n      swap1\n      pop\n        /* \"#utility.yul\":13854:13863   */\n      dup2\n        /* \"#utility.yul\":13848:13852   */\n      dup2\n        /* \"#utility.yul\":13844:13864   */\n      sub\n        /* \"#utility.yul\":13840:13841   */\n      0x00\n        /* \"#utility.yul\":13829:13838   */\n      dup4\n        /* \"#utility.yul\":13825:13842   */\n      add\n        /* \"#utility.yul\":13818:13865   */\n      mstore\n        /* \"#utility.yul\":13882:14013   */\n      tag_470\n        /* \"#utility.yul\":14008:14012   */\n      dup2\n        /* \"#utility.yul\":13882:14013   */\n      tag_381\n      jump\t// in\n    tag_470:\n        /* \"#utility.yul\":13874:14013   */\n      swap1\n      pop\n        /* \"#utility.yul\":13772:14020   */\n      swap2\n      swap1\n      pop\n      jump\t// out\n        /* \"#utility.yul\":14026:14445   */\n    tag_189:\n      0x00\n        /* \"#utility.yul\":14230:14232   */\n      0x20\n        /* \"#utility.yul\":14219:14228   */\n      dup3\n        /* \"#utility.yul\":14215:14233   */\n      add\n        /* \"#utility.yul\":14207:14233   */\n      swap1\n      pop\n        /* \"#utility.yul\":14279:14288   */\n      dup2\n        /* \"#utility.yul\":14273:14277   */\n      dup2\n        /* \"#utility.yul\":14269:14289   */\n      sub\n        /* \"#utility.yul\":14265:14266   */\n      0x00\n        /* \"#utility.yul\":14254:14263   */\n      dup4\n        /* \"#utility.yul\":14250:14267   */\n      add\n        /* \"#utility.yul\":14243:14290   */\n      mstore\n        /* \"#utility.yul\":14307:14438   */\n      tag_472\n        /* \"#utility.yul\":14433:14437   */\n      dup2\n        /* \"#utility.yul\":14307:14438   */\n      tag_386\n      jump\t// in\n    tag_472:\n        /* \"#utility.yul\":14299:14438   */\n      swap1\n      pop\n        /* \"#utility.yul\":14197:14445   */\n      swap2\n      swap1\n      pop\n      jump\t// out\n        /* \"#utility.yul\":14451:14870   */\n    tag_275:\n      0x00\n        /* \"#utility.yul\":14655:14657   */\n      0x20\n        /* \"#utility.yul\":14644:14653   */\n      dup3\n        /* \"#utility.yul\":14640:14658   */\n      add\n        /* \"#utility.yul\":14632:14658   */\n      swap1\n      pop\n        /* \"#utility.yul\":14704:14713   */\n      dup2\n        /* \"#utility.yul\":14698:14702   */\n      dup2\n        /* \"#utility.yul\":14694:14714   */\n      sub\n        /* \"#utility.yul\":14690:14691   */\n      0x00\n        /* \"#utility.yul\":14679:14688   */\n      dup4\n        /* \"#utility.yul\":14675:14692   */\n      add\n        /* \"#utility.yul\":14668:14715   */\n      mstore\n        /* \"#utility.yul\":14732:14863   */\n      tag_474\n        /* \"#utility.yul\":14858:14862   */\n      dup2\n        /* \"#utility.yul\":14732:14863   */\n      tag_391\n      jump\t// in\n    tag_474:\n        /* \"#utility.yul\":14724:14863   */\n      swap1\n      pop\n        /* \"#utility.yul\":14622:14870   */\n      swap2\n      swap1\n      pop\n      jump\t// out\n        /* \"#utility.yul\":14876:15295   */\n    tag_192:\n      0x00\n        /* \"#utility.yul\":15080:15082   */\n      0x20\n        /* \"#utility.yul\":15069:15078   */\n      dup3\n        /* \"#utility.yul\":15065:15083   */\n      add\n        /* \"#utility.yul\":15057:15083   */\n      swap1\n      pop\n        /* \"#utility.yul\":15129:15138   */\n      dup2\n        /* \"#utility.yul\":15123:15127   */\n      dup2\n        /* \"#utility.yul\":15119:15139   */\n      sub\n        /* \"#utility.yul\":15115:15116   */\n      0x00\n        /* \"#utility.yul\":15104:15113   */\n      dup4\n        /* \"#utility.yul\":15100:15117   */\n      add\n        /* \"#utility.yul\":15093:15140   */\n      mstore\n        /* \"#utility.yul\":15157:15288   */\n      tag_476\n        /* \"#utility.yul\":15283:15287   */\n      dup2\n        /* \"#utility.yul\":15157:15288   */\n      tag_396\n      jump\t// in\n    tag_476:\n        /* \"#utility.yul\":15149:15288   */\n      swap1\n      pop\n        /* \"#utility.yul\":15047:15295   */\n      swap2\n      swap1\n      pop\n      jump\t// out\n        /* \"#utility.yul\":15301:15720   */\n    tag_210:\n      0x00\n        /* \"#utility.yul\":15505:15507   */\n      0x20\n        /* \"#utility.yul\":15494:15503   */\n      dup3\n        /* \"#utility.yul\":15490:15508   */\n      add\n        /* \"#utility.yul\":15482:15508   */\n      swap1\n      pop\n        /* \"#utility.yul\":15554:15563   */\n      dup2\n        /* \"#utility.yul\":15548:15552   */\n      dup2\n        /* \"#utility.yul\":15544:15564   */\n      sub\n        /* \"#utility.yul\":15540:15541   */\n      0x00\n        /* \"#utility.yul\":15529:15538   */\n      dup4\n        /* \"#utility.yul\":15525:15542   */\n      add\n        /* \"#utility.yul\":15518:15565   */\n      mstore\n        /* \"#utility.yul\":15582:15713   */\n      tag_478\n        /* \"#utility.yul\":15708:15712   */\n      dup2\n        /* \"#utility.yul\":15582:15713   */\n      tag_401\n      jump\t// in\n    tag_478:\n        /* \"#utility.yul\":15574:15713   */\n      swap1\n      pop\n        /* \"#utility.yul\":15472:15720   */\n      swap2\n      swap1\n      pop\n      jump\t// out\n        /* \"#utility.yul\":15726:16145   */\n    tag_179:\n      0x00\n        /* \"#utility.yul\":15930:15932   */\n      0x20\n        /* \"#utility.yul\":15919:15928   */\n      dup3\n        /* \"#utility.yul\":15915:15933   */\n      add\n        /* \"#utility.yul\":15907:15933   */\n      swap1\n      pop\n        /* \"#utility.yul\":15979:15988   */\n      dup2\n        /* \"#utility.yul\":15973:15977   */\n      dup2\n        /* \"#utility.yul\":15969:15989   */\n      sub\n        /* \"#utility.yul\":15965:15966   */\n      0x00\n        /* \"#utility.yul\":15954:15963   */\n      dup4\n        /* \"#utility.yul\":15950:15967   */\n      add\n        /* \"#utility.yul\":15943:15990   */\n      mstore\n        /* \"#utility.yul\":16007:16138   */\n      tag_480\n        /* \"#utility.yul\":16133:16137   */\n      dup2\n        /* \"#utility.yul\":16007:16138   */\n      tag_406\n      jump\t// in\n    tag_480:\n        /* \"#utility.yul\":15999:16138   */\n      swap1\n      pop\n        /* \"#utility.yul\":15897:16145   */\n      swap2\n      swap1\n      pop\n      jump\t// out\n        /* \"#utility.yul\":16151:16570   */\n    tag_110:\n      0x00\n        /* \"#utility.yul\":16355:16357   */\n      0x20\n        /* \"#utility.yul\":16344:16353   */\n      dup3\n        /* \"#utility.yul\":16340:16358   */\n      add\n        /* \"#utility.yul\":16332:16358   */\n      swap1\n      pop\n        /* \"#utility.yul\":16404:16413   */\n      dup2\n        /* \"#utility.yul\":16398:16402   */\n      dup2\n        /* \"#utility.yul\":16394:16414   */\n      sub\n        /* \"#utility.yul\":16390:16391   */\n      0x00\n        /* \"#utility.yul\":16379:16388   */\n      dup4\n        /* \"#utility.yul\":16375:16392   */\n      add\n        /* \"#utility.yul\":16368:16415   */\n      mstore\n        /* \"#utility.yul\":16432:16563   */\n      tag_482\n        /* \"#utility.yul\":16558:16562   */\n      dup2\n        /* \"#utility.yul\":16432:16563   */\n      tag_411\n      jump\t// in\n    tag_482:\n        /* \"#utility.yul\":16424:16563   */\n      swap1\n      pop\n        /* \"#utility.yul\":16322:16570   */\n      swap2\n      swap1\n      pop\n      jump\t// out\n        /* \"#utility.yul\":16576:16995   */\n    tag_138:\n      0x00\n        /* \"#utility.yul\":16780:16782   */\n      0x20\n        /* \"#utility.yul\":16769:16778   */\n      dup3\n        /* \"#utility.yul\":16765:16783   */\n      add\n        /* \"#utility.yul\":16757:16783   */\n      swap1\n      pop\n        /* \"#utility.yul\":16829:16838   */\n      dup2\n        /* \"#utility.yul\":16823:16827   */\n      dup2\n        /* \"#utility.yul\":16819:16839   */\n      sub\n        /* \"#utility.yul\":16815:16816   */\n      0x00\n        /* \"#utility.yul\":16804:16813   */\n      dup4\n        /* \"#utility.yul\":16800:16817   */\n      add\n        /* \"#utility.yul\":16793:16840   */\n      mstore\n        /* \"#utility.yul\":16857:16988   */\n      tag_484\n        /* \"#utility.yul\":16983:16987   */\n      dup2\n        /* \"#utility.yul\":16857:16988   */\n      tag_416\n      jump\t// in\n    tag_484:\n        /* \"#utility.yul\":16849:16988   */\n      swap1\n      pop\n        /* \"#utility.yul\":16747:16995   */\n      swap2\n      swap1\n      pop\n      jump\t// out\n        /* \"#utility.yul\":17001:17420   */\n    tag_134:\n      0x00\n        /* \"#utility.yul\":17205:17207   */\n      0x20\n        /* \"#utility.yul\":17194:17203   */\n      dup3\n        /* \"#utility.yul\":17190:17208   */\n      add\n        /* \"#utility.yul\":17182:17208   */\n      swap1\n      pop\n        /* \"#utility.yul\":17254:17263   */\n      dup2\n        /* \"#utility.yul\":17248:17252   */\n      dup2\n        /* \"#utility.yul\":17244:17264   */\n      sub\n        /* \"#utility.yul\":17240:17241   */\n      0x00\n        /* \"#utility.yul\":17229:17238   */\n      dup4\n        /* \"#utility.yul\":17225:17242   */\n      add\n        /* \"#utility.yul\":17218:17265   */\n      mstore\n        /* \"#utility.yul\":17282:17413   */\n      tag_486\n        /* \"#utility.yul\":17408:17412   */\n      dup2\n        /* \"#utility.yul\":17282:17413   */\n      tag_421\n      jump\t// in\n    tag_486:\n        /* \"#utility.yul\":17274:17413   */\n      swap1\n      pop\n        /* \"#utility.yul\":17172:17420   */\n      swap2\n      swap1\n      pop\n      jump\t// out\n        /* \"#utility.yul\":17426:17845   */\n    tag_271:\n      0x00\n        /* \"#utility.yul\":17630:17632   */\n      0x20\n        /* \"#utility.yul\":17619:17628   */\n      dup3\n        /* \"#utility.yul\":17615:17633   */\n      add\n        /* \"#utility.yul\":17607:17633   */\n      swap1\n      pop\n        /* \"#utility.yul\":17679:17688   */\n      dup2\n        /* \"#utility.yul\":17673:17677   */\n      dup2\n        /* \"#utility.yul\":17669:17689   */\n      sub\n        /* \"#utility.yul\":17665:17666   */\n      0x00\n        /* \"#utility.yul\":17654:17663   */\n      dup4\n        /* \"#utility.yul\":17650:17667   */\n      add\n        /* \"#utility.yul\":17643:17690   */\n      mstore\n        /* \"#utility.yul\":17707:17838   */\n      tag_488\n        /* \"#utility.yul\":17833:17837   */\n      dup2\n        /* \"#utility.yul\":17707:17838   */\n      tag_426\n      jump\t// in\n    tag_488:\n        /* \"#utility.yul\":17699:17838   */\n      swap1\n      pop\n        /* \"#utility.yul\":17597:17845   */\n      swap2\n      swap1\n      pop\n      jump\t// out\n        /* \"#utility.yul\":17851:18270   */\n    tag_97:\n      0x00\n        /* \"#utility.yul\":18055:18057   */\n      0x20\n        /* \"#utility.yul\":18044:18053   */\n      dup3\n        /* \"#utility.yul\":18040:18058   */\n      add\n        /* \"#utility.yul\":18032:18058   */\n      swap1\n      pop\n        /* \"#utility.yul\":18104:18113   */\n      dup2\n        /* \"#utility.yul\":18098:18102   */\n      dup2\n        /* \"#utility.yul\":18094:18114   */\n      sub\n        /* \"#utility.yul\":18090:18091   */\n      0x00\n        /* \"#utility.yul\":18079:18088   */\n      dup4\n        /* \"#utility.yul\":18075:18092   */\n      add\n        /* \"#utility.yul\":18068:18115   */\n      mstore\n        /* \"#utility.yul\":18132:18263   */\n      tag_490\n        /* \"#utility.yul\":18258:18262   */\n      dup2\n        /* \"#utility.yul\":18132:18263   */\n      tag_431\n      jump\t// in\n    tag_490:\n        /* \"#utility.yul\":18124:18263   */\n      swap1\n      pop\n        /* \"#utility.yul\":18022:18270   */\n      swap2\n      swap1\n      pop\n      jump\t// out\n        /* \"#utility.yul\":18276:18695   */\n    tag_160:\n      0x00\n        /* \"#utility.yul\":18480:18482   */\n      0x20\n        /* \"#utility.yul\":18469:18478   */\n      dup3\n        /* \"#utility.yul\":18465:18483   */\n      add\n        /* \"#utility.yul\":18457:18483   */\n      swap1\n      pop\n        /* \"#utility.yul\":18529:18538   */\n      dup2\n        /* \"#utility.yul\":18523:18527   */\n      dup2\n        /* \"#utility.yul\":18519:18539   */\n      sub\n        /* \"#utility.yul\":18515:18516   */\n      0x00\n        /* \"#utility.yul\":18504:18513   */\n      dup4\n        /* \"#utility.yul\":18500:18517   */\n      add\n        /* \"#utility.yul\":18493:18540   */\n      mstore\n        /* \"#utility.yul\":18557:18688   */\n      tag_492\n        /* \"#utility.yul\":18683:18687   */\n      dup2\n        /* \"#utility.yul\":18557:18688   */\n      tag_436\n      jump\t// in\n    tag_492:\n        /* \"#utility.yul\":18549:18688   */\n      swap1\n      pop\n        /* \"#utility.yul\":18447:18695   */\n      swap2\n      swap1\n      pop\n      jump\t// out\n        /* \"#utility.yul\":18701:19120   */\n    tag_102:\n      0x00\n        /* \"#utility.yul\":18905:18907   */\n      0x20\n        /* \"#utility.yul\":18894:18903   */\n      dup3\n        /* \"#utility.yul\":18890:18908   */\n      add\n        /* \"#utility.yul\":18882:18908   */\n      swap1\n      pop\n        /* \"#utility.yul\":18954:18963   */\n      dup2\n        /* \"#utility.yul\":18948:18952   */\n      dup2\n        /* \"#utility.yul\":18944:18964   */\n      sub\n        /* \"#utility.yul\":18940:18941   */\n      0x00\n        /* \"#utility.yul\":18929:18938   */\n      dup4\n        /* \"#utility.yul\":18925:18942   */\n      add\n        /* \"#utility.yul\":18918:18965   */\n      mstore\n        /* \"#utility.yul\":18982:19113   */\n      tag_494\n        /* \"#utility.yul\":19108:19112   */\n      dup2\n        /* \"#utility.yul\":18982:19113   */\n      tag_441\n      jump\t// in\n    tag_494:\n        /* \"#utility.yul\":18974:19113   */\n      swap1\n      pop\n        /* \"#utility.yul\":18872:19120   */\n      swap2\n      swap1\n      pop\n      jump\t// out\n        /* \"#utility.yul\":19126:19545   */\n    tag_119:\n      0x00\n        /* \"#utility.yul\":19330:19332   */\n      0x20\n        /* \"#utility.yul\":19319:19328   */\n      dup3\n        /* \"#utility.yul\":19315:19333   */\n      add\n        /* \"#utility.yul\":19307:19333   */\n      swap1\n      pop\n        /* \"#utility.yul\":19379:19388   */\n      dup2\n        /* \"#utility.yul\":19373:19377   */\n      dup2\n        /* \"#utility.yul\":19369:19389   */\n      sub\n        /* \"#utility.yul\":19365:19366   */\n      0x00\n        /* \"#utility.yul\":19354:19363   */\n      dup4\n        /* \"#utility.yul\":19350:19367   */\n      add\n        /* \"#utility.yul\":19343:19390   */\n      mstore\n        /* \"#utility.yul\":19407:19538   */\n      tag_496\n        /* \"#utility.yul\":19533:19537   */\n      dup2\n        /* \"#utility.yul\":19407:19538   */\n      tag_446\n      jump\t// in\n    tag_496:\n        /* \"#utility.yul\":19399:19538   */\n      swap1\n      pop\n        /* \"#utility.yul\":19297:19545   */\n      swap2\n      swap1\n      pop\n      jump\t// out\n        /* \"#utility.yul\":19551:19773   */\n    tag_59:\n      0x00\n        /* \"#utility.yul\":19682:19684   */\n      0x20\n        /* \"#utility.yul\":19671:19680   */\n      dup3\n        /* \"#utility.yul\":19667:19685   */\n      add\n        /* \"#utility.yul\":19659:19685   */\n      swap1\n      pop\n        /* \"#utility.yul\":19695:19766   */\n      tag_498\n        /* \"#utility.yul\":19763:19764   */\n      0x00\n        /* \"#utility.yul\":19752:19761   */\n      dup4\n        /* \"#utility.yul\":19748:19765   */\n      add\n        /* \"#utility.yul\":19739:19745   */\n      dup5\n        /* \"#utility.yul\":19695:19766   */\n      tag_451\n      jump\t// in\n    tag_498:\n        /* \"#utility.yul\":19649:19773   */\n      swap3\n      swap2\n      pop\n      pop\n      jump\t// out\n        /* \"#utility.yul\":19779:19908   */\n    tag_286:\n      0x00\n        /* \"#utility.yul\":19840:19860   */\n      tag_500\n      tag_501\n      jump\t// in\n    tag_500:\n        /* \"#utility.yul\":19830:19860   */\n      swap1\n      pop\n        /* \"#utility.yul\":19869:19902   */\n      tag_502\n        /* \"#utility.yul\":19897:19901   */\n      dup3\n        /* \"#utility.yul\":19889:19895   */\n      dup3\n        /* \"#utility.yul\":19869:19902   */\n      tag_503\n      jump\t// in\n    tag_502:\n        /* \"#utility.yul\":19820:19908   */\n      swap2\n      swap1\n      pop\n      jump\t// out\n        /* \"#utility.yul\":19914:19989   */\n    tag_501:\n      0x00\n        /* \"#utility.yul\":19980:19982   */\n      0x40\n        /* \"#utility.yul\":19974:19983   */\n      mload\n        /* \"#utility.yul\":19964:19983   */\n      swap1\n      pop\n        /* \"#utility.yul\":19954:19989   */\n      swap1\n      jump\t// out\n        /* \"#utility.yul\":19995:20302   */\n    tag_285:\n      0x00\n        /* \"#utility.yul\":20146:20164   */\n      0xffffffffffffffff\n        /* \"#utility.yul\":20138:20144   */\n      dup3\n        /* \"#utility.yul\":20135:20165   */\n      gt\n        /* \"#utility.yul\":20132:20134   */\n      iszero\n      tag_506\n      jumpi\n        /* \"#utility.yul\":20168:20186   */\n      tag_507\n      tag_508\n      jump\t// in\n    tag_507:\n        /* \"#utility.yul\":20132:20134   */\n    tag_506:\n        /* \"#utility.yul\":20206:20235   */\n      tag_509\n        /* \"#utility.yul\":20228:20234   */\n      dup3\n        /* \"#utility.yul\":20206:20235   */\n      tag_366\n      jump\t// in\n    tag_509:\n        /* \"#utility.yul\":20198:20235   */\n      swap1\n      pop\n        /* \"#utility.yul\":20290:20294   */\n      0x20\n        /* \"#utility.yul\":20284:20288   */\n      dup2\n        /* \"#utility.yul\":20280:20295   */\n      add\n        /* \"#utility.yul\":20272:20295   */\n      swap1\n      pop\n        /* \"#utility.yul\":20061:20302   */\n      swap2\n      swap1\n      pop\n      jump\t// out\n        /* \"#utility.yul\":20308:20406   */\n    tag_360:\n      0x00\n        /* \"#utility.yul\":20393:20398   */\n      dup2\n        /* \"#utility.yul\":20387:20399   */\n      mload\n        /* \"#utility.yul\":20377:20399   */\n      swap1\n      pop\n        /* \"#utility.yul\":20366:20406   */\n      swap2\n      swap1\n      pop\n      jump\t// out\n        /* \"#utility.yul\":20412:20511   */\n    tag_370:\n      0x00\n        /* \"#utility.yul\":20498:20503   */\n      dup2\n        /* \"#utility.yul\":20492:20504   */\n      mload\n        /* \"#utility.yul\":20482:20504   */\n      swap1\n      pop\n        /* \"#utility.yul\":20471:20511   */\n      swap2\n      swap1\n      pop\n      jump\t// out\n        /* \"#utility.yul\":20517:20685   */\n    tag_362:\n      0x00\n        /* \"#utility.yul\":20634:20640   */\n      dup3\n        /* \"#utility.yul\":20629:20632   */\n      dup3\n        /* \"#utility.yul\":20622:20641   */\n      mstore\n        /* \"#utility.yul\":20674:20678   */\n      0x20\n        /* \"#utility.yul\":20669:20672   */\n      dup3\n        /* \"#utility.yul\":20665:20679   */\n      add\n        /* \"#utility.yul\":20650:20679   */\n      swap1\n      pop\n        /* \"#utility.yul\":20612:20685   */\n      swap3\n      swap2\n      pop\n      pop\n      jump\t// out\n        /* \"#utility.yul\":20691:20860   */\n    tag_372:\n      0x00\n        /* \"#utility.yul\":20809:20815   */\n      dup3\n        /* \"#utility.yul\":20804:20807   */\n      dup3\n        /* \"#utility.yul\":20797:20816   */\n      mstore\n        /* \"#utility.yul\":20849:20853   */\n      0x20\n        /* \"#utility.yul\":20844:20847   */\n      dup3\n        /* \"#utility.yul\":20840:20854   */\n      add\n        /* \"#utility.yul\":20825:20854   */\n      swap1\n      pop\n        /* \"#utility.yul\":20787:20860   */\n      swap3\n      swap2\n      pop\n      pop\n      jump\t// out\n        /* \"#utility.yul\":20866:21014   */\n    tag_379:\n      0x00\n        /* \"#utility.yul\":21005:21008   */\n      dup2\n        /* \"#utility.yul\":20990:21008   */\n      swap1\n      pop\n        /* \"#utility.yul\":20980:21014   */\n      swap3\n      swap2\n      pop\n      pop\n      jump\t// out\n        /* \"#utility.yul\":21020:21325   */\n    tag_199:\n      0x00\n        /* \"#utility.yul\":21079:21099   */\n      tag_516\n        /* \"#utility.yul\":21097:21098   */\n      dup3\n        /* \"#utility.yul\":21079:21099   */\n      tag_454\n      jump\t// in\n    tag_516:\n        /* \"#utility.yul\":21074:21099   */\n      swap2\n      pop\n        /* \"#utility.yul\":21113:21133   */\n      tag_517\n        /* \"#utility.yul\":21131:21132   */\n      dup4\n        /* \"#utility.yul\":21113:21133   */\n      tag_454\n      jump\t// in\n    tag_517:\n        /* \"#utility.yul\":21108:21133   */\n      swap3\n      pop\n        /* \"#utility.yul\":21267:21268   */\n      dup3\n        /* \"#utility.yul\":21199:21265   */\n      0xffffffffffffffffffffffffffffffffffffffffffffffffffffffffffffffff\n        /* \"#utility.yul\":21195:21269   */\n      sub\n        /* \"#utility.yul\":21192:21193   */\n      dup3\n        /* \"#utility.yul\":21189:21270   */\n      gt\n        /* \"#utility.yul\":21186:21188   */\n      iszero\n      tag_518\n      jumpi\n        /* \"#utility.yul\":21273:21291   */\n      tag_519\n      tag_520\n      jump\t// in\n    tag_519:\n        /* \"#utility.yul\":21186:21188   */\n    tag_518:\n        /* \"#utility.yul\":21317:21318   */\n      dup3\n        /* \"#utility.yul\":21314:21315   */\n      dup3\n        /* \"#utility.yul\":21310:21319   */\n      add\n        /* \"#utility.yul\":21303:21319   */\n      swap1\n      pop\n        /* \"#utility.yul\":21064:21325   */\n      swap3\n      swap2\n      pop\n      pop\n      jump\t// out\n        /* \"#utility.yul\":21331:21516   */\n    tag_227:\n      0x00\n        /* \"#utility.yul\":21388:21408   */\n      tag_522\n        /* \"#utility.yul\":21406:21407   */\n      dup3\n        /* \"#utility.yul\":21388:21408   */\n      tag_454\n      jump\t// in\n    tag_522:\n        /* \"#utility.yul\":21383:21408   */\n      swap2\n      pop\n        /* \"#utility.yul\":21422:21442   */\n      tag_523\n        /* \"#utility.yul\":21440:21441   */\n      dup4\n        /* \"#utility.yul\":21422:21442   */\n      tag_454\n      jump\t// in\n    tag_523:\n        /* \"#utility.yul\":21417:21442   */\n      swap3\n      pop\n        /* \"#utility.yul\":21461:21462   */\n      dup3\n        /* \"#utility.yul\":21451:21453   */\n      tag_524\n      jumpi\n        /* \"#utility.yul\":21466:21484   */\n      tag_525\n      tag_526\n      jump\t// in\n    tag_525:\n        /* \"#utility.yul\":21451:21453   */\n    tag_524:\n        /* \"#utility.yul\":21508:21509   */\n      dup3\n        /* \"#utility.yul\":21505:21506   */\n      dup3\n        /* \"#utility.yul\":21501:21510   */\n      div\n        /* \"#utility.yul\":21496:21510   */\n      swap1\n      pop\n        /* \"#utility.yul\":21373:21516   */\n      swap3\n      swap2\n      pop\n      pop\n      jump\t// out\n        /* \"#utility.yul\":21522:21713   */\n    tag_197:\n      0x00\n        /* \"#utility.yul\":21582:21602   */\n      tag_528\n        /* \"#utility.yul\":21600:21601   */\n      dup3\n        /* \"#utility.yul\":21582:21602   */\n      tag_454\n      jump\t// in\n    tag_528:\n        /* \"#utility.yul\":21577:21602   */\n      swap2\n      pop\n        /* \"#utility.yul\":21616:21636   */\n      tag_529\n        /* \"#utility.yul\":21634:21635   */\n      dup4\n        /* \"#utility.yul\":21616:21636   */\n      tag_454\n      jump\t// in\n    tag_529:\n        /* \"#utility.yul\":21611:21636   */\n      swap3\n      pop\n        /* \"#utility.yul\":21655:21656   */\n      dup3\n        /* \"#utility.yul\":21652:21653   */\n      dup3\n        /* \"#utility.yul\":21649:21657   */\n      lt\n        /* \"#utility.yul\":21646:21648   */\n      iszero\n      tag_530\n      jumpi\n        /* \"#utility.yul\":21660:21678   */\n      tag_531\n      tag_520\n      jump\t// in\n    tag_531:\n        /* \"#utility.yul\":21646:21648   */\n    tag_530:\n        /* \"#utility.yul\":21705:21706   */\n      dup3\n        /* \"#utility.yul\":21702:21703   */\n      dup3\n        /* \"#utility.yul\":21698:21707   */\n      sub\n        /* \"#utility.yul\":21690:21707   */\n      swap1\n      pop\n        /* \"#utility.yul\":21567:21713   */\n      swap3\n      swap2\n      pop\n      pop\n      jump\t// out\n        /* \"#utility.yul\":21719:21815   */\n    tag_352:\n      0x00\n        /* \"#utility.yul\":21785:21809   */\n      tag_533\n        /* \"#utility.yul\":21803:21808   */\n      dup3\n        /* \"#utility.yul\":21785:21809   */\n      tag_534\n      jump\t// in\n    tag_533:\n        /* \"#utility.yul\":21774:21809   */\n      swap1\n      pop\n        /* \"#utility.yul\":21764:21815   */\n      swap2\n      swap1\n      pop\n      jump\t// out\n        /* \"#utility.yul\":21821:21911   */\n    tag_356:\n      0x00\n        /* \"#utility.yul\":21898:21903   */\n      dup2\n        /* \"#utility.yul\":21891:21904   */\n      iszero\n        /* \"#utility.yul\":21884:21905   */\n      iszero\n        /* \"#utility.yul\":21873:21905   */\n      swap1\n      pop\n        /* \"#utility.yul\":21863:21911   */\n      swap2\n      swap1\n      pop\n      jump\t// out\n        /* \"#utility.yul\":21917:22066   */\n    tag_536:\n      0x00\n        /* \"#utility.yul\":21993:22059   */\n      0xffffffff00000000000000000000000000000000000000000000000000000000\n        /* \"#utility.yul\":21986:21991   */\n      dup3\n        /* \"#utility.yul\":21982:22060   */\n      and\n        /* \"#utility.yul\":21971:22060   */\n      swap1\n      pop\n        /* \"#utility.yul\":21961:22066   */\n      swap2\n      swap1\n      pop\n      jump\t// out\n        /* \"#utility.yul\":22072:22198   */\n    tag_534:\n      0x00\n        /* \"#utility.yul\":22149:22191   */\n      0xffffffffffffffffffffffffffffffffffffffff\n        /* \"#utility.yul\":22142:22147   */\n      dup3\n        /* \"#utility.yul\":22138:22192   */\n      and\n        /* \"#utility.yul\":22127:22192   */\n      swap1\n      pop\n        /* \"#utility.yul\":22117:22198   */\n      swap2\n      swap1\n      pop\n      jump\t// out\n        /* \"#utility.yul\":22204:22281   */\n    tag_454:\n      0x00\n        /* \"#utility.yul\":22270:22275   */\n      dup2\n        /* \"#utility.yul\":22259:22275   */\n      swap1\n      pop\n        /* \"#utility.yul\":22249:22281   */\n      swap2\n      swap1\n      pop\n      jump\t// out\n        /* \"#utility.yul\":22287:22441   */\n    tag_289:\n        /* \"#utility.yul\":22371:22377   */\n      dup3\n        /* \"#utility.yul\":22366:22369   */\n      dup2\n        /* \"#utility.yul\":22361:22364   */\n      dup4\n        /* \"#utility.yul\":22348:22378   */\n      calldatacopy\n        /* \"#utility.yul\":22433:22434   */\n      0x00\n        /* \"#utility.yul\":22424:22430   */\n      dup4\n        /* \"#utility.yul\":22419:22422   */\n      dup4\n        /* \"#utility.yul\":22415:22431   */\n      add\n        /* \"#utility.yul\":22408:22435   */\n      mstore\n        /* \"#utility.yul\":22338:22441   */\n      pop\n      pop\n      pop\n      jump\t// out\n        /* \"#utility.yul\":22447:22754   */\n    tag_364:\n        /* \"#utility.yul\":22515:22516   */\n      0x00\n        /* \"#utility.yul\":22525:22638   */\n    tag_542:\n        /* \"#utility.yul\":22539:22545   */\n      dup4\n        /* \"#utility.yul\":22536:22537   */\n      dup2\n        /* \"#utility.yul\":22533:22546   */\n      lt\n        /* \"#utility.yul\":22525:22638   */\n      iszero\n      tag_544\n      jumpi\n        /* \"#utility.yul\":22624:22625   */\n      dup1\n        /* \"#utility.yul\":22619:22622   */\n      dup3\n        /* \"#utility.yul\":22615:22626   */\n      add\n        /* \"#utility.yul\":22609:22627   */\n      mload\n        /* \"#utility.yul\":22605:22606   */\n      dup2\n        /* \"#utility.yul\":22600:22603   */\n      dup5\n        /* \"#utility.yul\":22596:22607   */\n      add\n        /* \"#utility.yul\":22589:22628   */\n      mstore\n        /* \"#utility.yul\":22561:22563   */\n      0x20\n        /* \"#utility.yul\":22558:22559   */\n      dup2\n        /* \"#utility.yul\":22554:22564   */\n      add\n        /* \"#utility.yul\":22549:22564   */\n      swap1\n      pop\n        /* \"#utility.yul\":22525:22638   */\n      jump(tag_542)\n    tag_544:\n        /* \"#utility.yul\":22656:22662   */\n      dup4\n        /* \"#utility.yul\":22653:22654   */\n      dup2\n        /* \"#utility.yul\":22650:22663   */\n      gt\n        /* \"#utility.yul\":22647:22649   */\n      iszero\n      tag_545\n      jumpi\n        /* \"#utility.yul\":22736:22737   */\n      0x00\n        /* \"#utility.yul\":22727:22733   */\n      dup5\n        /* \"#utility.yul\":22722:22725   */\n      dup5\n        /* \"#utility.yul\":22718:22734   */\n      add\n        /* \"#utility.yul\":22711:22738   */\n      mstore\n        /* \"#utility.yul\":22647:22649   */\n    tag_545:\n        /* \"#utility.yul\":22496:22754   */\n      pop\n      pop\n      pop\n      pop\n      jump\t// out\n        /* \"#utility.yul\":22760:23080   */\n    tag_87:\n      0x00\n        /* \"#utility.yul\":22841:22842   */\n      0x02\n        /* \"#utility.yul\":22835:22839   */\n      dup3\n        /* \"#utility.yul\":22831:22843   */\n      div\n        /* \"#utility.yul\":22821:22843   */\n      swap1\n      pop\n        /* \"#utility.yul\":22888:22889   */\n      0x01\n        /* \"#utility.yul\":22882:22886   */\n      dup3\n        /* \"#utility.yul\":22878:22890   */\n      and\n        /* \"#utility.yul\":22909:22927   */\n      dup1\n        /* \"#utility.yul\":22899:22901   */\n      tag_547\n      jumpi\n        /* \"#utility.yul\":22965:22969   */\n      0x7f\n        /* \"#utility.yul\":22957:22963   */\n      dup3\n        /* \"#utility.yul\":22953:22970   */\n      and\n        /* \"#utility.yul\":22943:22970   */\n      swap2\n      pop\n        /* \"#utility.yul\":22899:22901   */\n    tag_547:\n        /* \"#utility.yul\":23027:23029   */\n      0x20\n        /* \"#utility.yul\":23019:23025   */\n      dup3\n        /* \"#utility.yul\":23016:23030   */\n      lt\n        /* \"#utility.yul\":22996:23014   */\n      dup2\n        /* \"#utility.yul\":22993:23031   */\n      eq\n        /* \"#utility.yul\":22990:22992   */\n      iszero\n      tag_548\n      jumpi\n        /* \"#utility.yul\":23046:23064   */\n      tag_549\n      tag_550\n      jump\t// in\n    tag_549:\n        /* \"#utility.yul\":22990:22992   */\n    tag_548:\n        /* \"#utility.yul\":22811:23080   */\n      pop\n      swap2\n      swap1\n      pop\n      jump\t// out\n        /* \"#utility.yul\":23086:23367   */\n    tag_503:\n        /* \"#utility.yul\":23169:23196   */\n      tag_552\n        /* \"#utility.yul\":23191:23195   */\n      dup3\n        /* \"#utility.yul\":23169:23196   */\n      tag_366\n      jump\t// in\n    tag_552:\n        /* \"#utility.yul\":23161:23167   */\n      dup2\n        /* \"#utility.yul\":23157:23197   */\n      add\n        /* \"#utility.yul\":23299:23305   */\n      dup2\n        /* \"#utility.yul\":23287:23297   */\n      dup2\n        /* \"#utility.yul\":23284:23306   */\n      lt\n        /* \"#utility.yul\":23263:23281   */\n      0xffffffffffffffff\n        /* \"#utility.yul\":23251:23261   */\n      dup3\n        /* \"#utility.yul\":23248:23282   */\n      gt\n        /* \"#utility.yul\":23245:23307   */\n      or\n        /* \"#utility.yul\":23242:23244   */\n      iszero\n      tag_553\n      jumpi\n        /* \"#utility.yul\":23310:23328   */\n      tag_554\n      tag_508\n      jump\t// in\n    tag_554:\n        /* \"#utility.yul\":23242:23244   */\n    tag_553:\n        /* \"#utility.yul\":23350:23360   */\n      dup1\n        /* \"#utility.yul\":23346:23348   */\n      0x40\n        /* \"#utility.yul\":23339:23361   */\n      mstore\n        /* \"#utility.yul\":23129:23367   */\n      pop\n      pop\n      pop\n      jump\t// out\n        /* \"#utility.yul\":23373:23606   */\n    tag_225:\n      0x00\n        /* \"#utility.yul\":23435:23459   */\n      tag_556\n        /* \"#utility.yul\":23453:23458   */\n      dup3\n        /* \"#utility.yul\":23435:23459   */\n      tag_454\n      jump\t// in\n    tag_556:\n        /* \"#utility.yul\":23426:23459   */\n      swap2\n      pop\n        /* \"#utility.yul\":23481:23547   */\n      0xffffffffffffffffffffffffffffffffffffffffffffffffffffffffffffffff\n        /* \"#utility.yul\":23474:23479   */\n      dup3\n        /* \"#utility.yul\":23471:23548   */\n      eq\n        /* \"#utility.yul\":23468:23470   */\n      iszero\n      tag_557\n      jumpi\n        /* \"#utility.yul\":23551:23569   */\n      tag_558\n      tag_520\n      jump\t// in\n    tag_558:\n        /* \"#utility.yul\":23468:23470   */\n    tag_557:\n        /* \"#utility.yul\":23598:23599   */\n      0x01\n        /* \"#utility.yul\":23591:23596   */\n      dup3\n        /* \"#utility.yul\":23587:23600   */\n      add\n        /* \"#utility.yul\":23580:23600   */\n      swap1\n      pop\n        /* \"#utility.yul\":23416:23606   */\n      swap2\n      swap1\n      pop\n      jump\t// out\n        /* \"#utility.yul\":23612:23788   */\n    tag_234:\n      0x00\n        /* \"#utility.yul\":23661:23681   */\n      tag_560\n        /* \"#utility.yul\":23679:23680   */\n      dup3\n        /* \"#utility.yul\":23661:23681   */\n      tag_454\n      jump\t// in\n    tag_560:\n        /* \"#utility.yul\":23656:23681   */\n      swap2\n      pop\n        /* \"#utility.yul\":23695:23715   */\n      tag_561\n        /* \"#utility.yul\":23713:23714   */\n      dup4\n        /* \"#utility.yul\":23695:23715   */\n      tag_454\n      jump\t// in\n    tag_561:\n        /* \"#utility.yul\":23690:23715   */\n      swap3\n      pop\n        /* \"#utility.yul\":23734:23735   */\n      dup3\n        /* \"#utility.yul\":23724:23726   */\n      tag_562\n      jumpi\n        /* \"#utility.yul\":23739:23757   */\n      tag_563\n      tag_526\n      jump\t// in\n    tag_563:\n        /* \"#utility.yul\":23724:23726   */\n    tag_562:\n        /* \"#utility.yul\":23780:23781   */\n      dup3\n        /* \"#utility.yul\":23777:23778   */\n      dup3\n        /* \"#utility.yul\":23773:23782   */\n      mod\n        /* \"#utility.yul\":23768:23782   */\n      swap1\n      pop\n        /* \"#utility.yul\":23646:23788   */\n      swap3\n      swap2\n      pop\n      pop\n      jump\t// out\n        /* \"#utility.yul\":23794:23974   */\n    tag_520:\n        /* \"#utility.yul\":23842:23919   */\n      0x4e487b7100000000000000000000000000000000000000000000000000000000\n        /* \"#utility.yul\":23839:23840   */\n      0x00\n        /* \"#utility.yul\":23832:23920   */\n      mstore\n        /* \"#utility.yul\":23939:23943   */\n      0x11\n        /* \"#utility.yul\":23936:23937   */\n      0x04\n        /* \"#utility.yul\":23929:23944   */\n      mstore\n        /* \"#utility.yul\":23963:23967   */\n      0x24\n        /* \"#utility.yul\":23960:23961   */\n      0x00\n        /* \"#utility.yul\":23953:23968   */\n      revert\n        /* \"#utility.yul\":23980:24160   */\n    tag_526:\n        /* \"#utility.yul\":24028:24105   */\n      0x4e487b7100000000000000000000000000000000000000000000000000000000\n        /* \"#utility.yul\":24025:24026   */\n      0x00\n        /* \"#utility.yul\":24018:24106   */\n      mstore\n        /* \"#utility.yul\":24125:24129   */\n      0x12\n        /* \"#utility.yul\":24122:24123   */\n      0x04\n        /* \"#utility.yul\":24115:24130   */\n      mstore\n        /* \"#utility.yul\":24149:24153   */\n      0x24\n        /* \"#utility.yul\":24146:24147   */\n      0x00\n        /* \"#utility.yul\":24139:24154   */\n      revert\n        /* \"#utility.yul\":24166:24346   */\n    tag_550:\n        /* \"#utility.yul\":24214:24291   */\n      0x4e487b7100000000000000000000000000000000000000000000000000000000\n        /* \"#utility.yul\":24211:24212   */\n      0x00\n        /* \"#utility.yul\":24204:24292   */\n      mstore\n        /* \"#utility.yul\":24311:24315   */\n      0x22\n        /* \"#utility.yul\":24308:24309   */\n      0x04\n        /* \"#utility.yul\":24301:24316   */\n      mstore\n        /* \"#utility.yul\":24335:24339   */\n      0x24\n        /* \"#utility.yul\":24332:24333   */\n      0x00\n        /* \"#utility.yul\":24325:24340   */\n      revert\n        /* \"#utility.yul\":24352:24532   */\n    tag_508:\n        /* \"#utility.yul\":24400:24477   */\n      0x4e487b7100000000000000000000000000000000000000000000000000000000\n        /* \"#utility.yul\":24397:24398   */\n      0x00\n        /* \"#utility.yul\":24390:24478   */\n      mstore\n        /* \"#utility.yul\":24497:24501   */\n      0x41\n        /* \"#utility.yul\":24494:24495   */\n      0x04\n        /* \"#utility.yul\":24487:24502   */\n      mstore\n        /* \"#utility.yul\":24521:24525   */\n      0x24\n        /* \"#utility.yul\":24518:24519   */\n      0x00\n        /* \"#utility.yul\":24511:24526   */\n      revert\n        /* \"#utility.yul\":24538:24640   */\n    tag_366:\n      0x00\n        /* \"#utility.yul\":24630:24632   */\n      0x1f\n        /* \"#utility.yul\":24626:24633   */\n      not\n        /* \"#utility.yul\":24621:24623   */\n      0x1f\n        /* \"#utility.yul\":24614:24619   */\n      dup4\n        /* \"#utility.yul\":24610:24624   */\n      add\n        /* \"#utility.yul\":24606:24634   */\n      and\n        /* \"#utility.yul\":24596:24634   */\n      swap1\n      pop\n        /* \"#utility.yul\":24586:24640   */\n      swap2\n      swap1\n      pop\n      jump\t// out\n        /* \"#utility.yul\":24646:24883   */\n    tag_385:\n        /* \"#utility.yul\":24786:24820   */\n      0x4552433732313a207472616e7366657220746f206e6f6e204552433732315265\n        /* \"#utility.yul\":24782:24783   */\n      0x00\n        /* \"#utility.yul\":24774:24780   */\n      dup3\n        /* \"#utility.yul\":24770:24784   */\n      add\n        /* \"#utility.yul\":24763:24821   */\n      mstore\n        /* \"#utility.yul\":24855:24875   */\n      0x63656976657220696d706c656d656e7465720000000000000000000000000000\n        /* \"#utility.yul\":24850:24852   */\n      0x20\n        /* \"#utility.yul\":24842:24848   */\n      dup3\n        /* \"#utility.yul\":24838:24853   */\n      add\n        /* \"#utility.yul\":24831:24876   */\n      mstore\n        /* \"#utility.yul\":24752:24883   */\n      pop\n      jump\t// out\n        /* \"#utility.yul\":24889:25113   */\n    tag_390:\n        /* \"#utility.yul\":25029:25063   */\n      0x4552433732313a207472616e736665722066726f6d20696e636f727265637420\n        /* \"#utility.yul\":25025:25026   */\n      0x00\n        /* \"#utility.yul\":25017:25023   */\n      dup3\n        /* \"#utility.yul\":25013:25027   */\n      add\n        /* \"#utility.yul\":25006:25064   */\n      mstore\n        /* \"#utility.yul\":25098:25105   */\n      0x6f776e6572000000000000000000000000000000000000000000000000000000\n        /* \"#utility.yul\":25093:25095   */\n      0x20\n        /* \"#utility.yul\":25085:25091   */\n      dup3\n        /* \"#utility.yul\":25081:25096   */\n      add\n        /* \"#utility.yul\":25074:25106   */\n      mstore\n        /* \"#utility.yul\":24995:25113   */\n      pop\n      jump\t// out\n        /* \"#utility.yul\":25119:25297   */\n    tag_395:\n        /* \"#utility.yul\":25259:25289   */\n      0x4552433732313a20746f6b656e20616c7265616479206d696e74656400000000\n        /* \"#utility.yul\":25255:25256   */\n      0x00\n        /* \"#utility.yul\":25247:25253   */\n      dup3\n        /* \"#utility.yul\":25243:25257   */\n      add\n        /* \"#utility.yul\":25236:25290   */\n      mstore\n        /* \"#utility.yul\":25225:25297   */\n      pop\n      jump\t// out\n        /* \"#utility.yul\":25303:25526   */\n    tag_400:\n        /* \"#utility.yul\":25443:25477   */\n      0x4552433732313a207472616e7366657220746f20746865207a65726f20616464\n        /* \"#utility.yul\":25439:25440   */\n      0x00\n        /* \"#utility.yul\":25431:25437   */\n      dup3\n        /* \"#utility.yul\":25427:25441   */\n      add\n        /* \"#utility.yul\":25420:25478   */\n      mstore\n        /* \"#utility.yul\":25512:25518   */\n      0x7265737300000000000000000000000000000000000000000000000000000000\n        /* \"#utility.yul\":25507:25509   */\n      0x20\n        /* \"#utility.yul\":25499:25505   */\n      dup3\n        /* \"#utility.yul\":25495:25510   */\n      add\n        /* \"#utility.yul\":25488:25519   */\n      mstore\n        /* \"#utility.yul\":25409:25526   */\n      pop\n      jump\t// out\n        /* \"#utility.yul\":25532:25707   */\n    tag_405:\n        /* \"#utility.yul\":25672:25699   */\n      0x4552433732313a20617070726f766520746f2063616c6c657200000000000000\n        /* \"#utility.yul\":25668:25669   */\n      0x00\n        /* \"#utility.yul\":25660:25666   */\n      dup3\n        /* \"#utility.yul\":25656:25670   */\n      add\n        /* \"#utility.yul\":25649:25700   */\n      mstore\n        /* \"#utility.yul\":25638:25707   */\n      pop\n      jump\t// out\n        /* \"#utility.yul\":25713:25944   */\n    tag_410:\n        /* \"#utility.yul\":25853:25887   */\n      0x4552433732313a206f70657261746f7220717565727920666f72206e6f6e6578\n        /* \"#utility.yul\":25849:25850   */\n      0x00\n        /* \"#utility.yul\":25841:25847   */\n      dup3\n        /* \"#utility.yul\":25837:25851   */\n      add\n        /* \"#utility.yul\":25830:25888   */\n      mstore\n        /* \"#utility.yul\":25922:25936   */\n      0x697374656e7420746f6b656e0000000000000000000000000000000000000000\n        /* \"#utility.yul\":25917:25919   */\n      0x20\n        /* \"#utility.yul\":25909:25915   */\n      dup3\n        /* \"#utility.yul\":25905:25920   */\n      add\n        /* \"#utility.yul\":25898:25937   */\n      mstore\n        /* \"#utility.yul\":25819:25944   */\n      pop\n      jump\t// out\n        /* \"#utility.yul\":25950:26193   */\n    tag_415:\n        /* \"#utility.yul\":26090:26124   */\n      0x4552433732313a20617070726f76652063616c6c6572206973206e6f74206f77\n        /* \"#utility.yul\":26086:26087   */\n      0x00\n        /* \"#utility.yul\":26078:26084   */\n      dup3\n        /* \"#utility.yul\":26074:26088   */\n      add\n        /* \"#utility.yul\":26067:26125   */\n      mstore\n        /* \"#utility.yul\":26159:26185   */\n      0x6e6572206e6f7220617070726f76656420666f7220616c6c0000000000000000\n        /* \"#utility.yul\":26154:26156   */\n      0x20\n        /* \"#utility.yul\":26146:26152   */\n      dup3\n        /* \"#utility.yul\":26142:26157   */\n      add\n        /* \"#utility.yul\":26135:26186   */\n      mstore\n        /* \"#utility.yul\":26056:26193   */\n      pop\n      jump\t// out\n        /* \"#utility.yul\":26199:26428   */\n    tag_420:\n        /* \"#utility.yul\":26339:26373   */\n      0x4552433732313a2062616c616e636520717565727920666f7220746865207a65\n        /* \"#utility.yul\":26335:26336   */\n      0x00\n        /* \"#utility.yul\":26327:26333   */\n      dup3\n        /* \"#utility.yul\":26323:26337   */\n      add\n        /* \"#utility.yul\":26316:26374   */\n      mstore\n        /* \"#utility.yul\":26408:26420   */\n      0x726f206164647265737300000000000000000000000000000000000000000000\n        /* \"#utility.yul\":26403:26405   */\n      0x20\n        /* \"#utility.yul\":26395:26401   */\n      dup3\n        /* \"#utility.yul\":26391:26406   */\n      add\n        /* \"#utility.yul\":26384:26421   */\n      mstore\n        /* \"#utility.yul\":26305:26428   */\n      pop\n      jump\t// out\n        /* \"#utility.yul\":26434:26662   */\n    tag_425:\n        /* \"#utility.yul\":26574:26608   */\n      0x4552433732313a206f776e657220717565727920666f72206e6f6e6578697374\n        /* \"#utility.yul\":26570:26571   */\n      0x00\n        /* \"#utility.yul\":26562:26568   */\n      dup3\n        /* \"#utility.yul\":26558:26572   */\n      add\n        /* \"#utility.yul\":26551:26609   */\n      mstore\n        /* \"#utility.yul\":26643:26654   */\n      0x656e7420746f6b656e0000000000000000000000000000000000000000000000\n        /* \"#utility.yul\":26638:26640   */\n      0x20\n        /* \"#utility.yul\":26630:26636   */\n      dup3\n        /* \"#utility.yul\":26626:26641   */\n      add\n        /* \"#utility.yul\":26619:26655   */\n      mstore\n        /* \"#utility.yul\":26540:26662   */\n      pop\n      jump\t// out\n        /* \"#utility.yul\":26668:26850   */\n    tag_430:\n        /* \"#utility.yul\":26808:26842   */\n      0x4552433732313a206d696e7420746f20746865207a65726f2061646472657373\n        /* \"#utility.yul\":26804:26805   */\n      0x00\n        /* \"#utility.yul\":26796:26802   */\n      dup3\n        /* \"#utility.yul\":26792:26806   */\n      add\n        /* \"#utility.yul\":26785:26843   */\n      mstore\n        /* \"#utility.yul\":26774:26850   */\n      pop\n      jump\t// out\n        /* \"#utility.yul\":26856:27087   */\n    tag_435:\n        /* \"#utility.yul\":26996:27030   */\n      0x4552433732313a20617070726f76656420717565727920666f72206e6f6e6578\n        /* \"#utility.yul\":26992:26993   */\n      0x00\n        /* \"#utility.yul\":26984:26990   */\n      dup3\n        /* \"#utility.yul\":26980:26994   */\n      add\n        /* \"#utility.yul\":26973:27031   */\n      mstore\n        /* \"#utility.yul\":27065:27079   */\n      0x697374656e7420746f6b656e0000000000000000000000000000000000000000\n        /* \"#utility.yul\":27060:27062   */\n      0x20\n        /* \"#utility.yul\":27052:27058   */\n      dup3\n        /* \"#utility.yul\":27048:27063   */\n      add\n        /* \"#utility.yul\":27041:27080   */\n      mstore\n        /* \"#utility.yul\":26962:27087   */\n      pop\n      jump\t// out\n        /* \"#utility.yul\":27093:27327   */\n    tag_440:\n        /* \"#utility.yul\":27233:27267   */\n      0x4552433732314d657461646174613a2055524920717565727920666f72206e6f\n        /* \"#utility.yul\":27229:27230   */\n      0x00\n        /* \"#utility.yul\":27221:27227   */\n      dup3\n        /* \"#utility.yul\":27217:27231   */\n      add\n        /* \"#utility.yul\":27210:27268   */\n      mstore\n        /* \"#utility.yul\":27302:27319   */\n      0x6e6578697374656e7420746f6b656e0000000000000000000000000000000000\n        /* \"#utility.yul\":27297:27299   */\n      0x20\n        /* \"#utility.yul\":27289:27295   */\n      dup3\n        /* \"#utility.yul\":27285:27300   */\n      add\n        /* \"#utility.yul\":27278:27320   */\n      mstore\n        /* \"#utility.yul\":27199:27327   */\n      pop\n      jump\t// out\n        /* \"#utility.yul\":27333:27553   */\n    tag_445:\n        /* \"#utility.yul\":27473:27507   */\n      0x4552433732313a20617070726f76616c20746f2063757272656e74206f776e65\n        /* \"#utility.yul\":27469:27470   */\n      0x00\n        /* \"#utility.yul\":27461:27467   */\n      dup3\n        /* \"#utility.yul\":27457:27471   */\n      add\n        /* \"#utility.yul\":27450:27508   */\n      mstore\n        /* \"#utility.yul\":27542:27545   */\n      0x7200000000000000000000000000000000000000000000000000000000000000\n        /* \"#utility.yul\":27537:27539   */\n      0x20\n        /* \"#utility.yul\":27529:27535   */\n      dup3\n        /* \"#utility.yul\":27525:27540   */\n      add\n        /* \"#utility.yul\":27518:27546   */\n      mstore\n        /* \"#utility.yul\":27439:27553   */\n      pop\n      jump\t// out\n        /* \"#utility.yul\":27559:27795   */\n    tag_450:\n        /* \"#utility.yul\":27699:27733   */\n      0x4552433732313a207472616e736665722063616c6c6572206973206e6f74206f\n        /* \"#utility.yul\":27695:27696   */\n      0x00\n        /* \"#utility.yul\":27687:27693   */\n      dup3\n        /* \"#utility.yul\":27683:27697   */\n      add\n        /* \"#utility.yul\":27676:27734   */\n      mstore\n        /* \"#utility.yul\":27768:27787   */\n      0x776e6572206e6f7220617070726f766564000000000000000000000000000000\n        /* \"#utility.yul\":27763:27765   */\n      0x20\n        /* \"#utility.yul\":27755:27761   */\n      dup3\n        /* \"#utility.yul\":27751:27766   */\n      add\n        /* \"#utility.yul\":27744:27788   */\n      mstore\n        /* \"#utility.yul\":27665:27795   */\n      pop\n      jump\t// out\n        /* \"#utility.yul\":27801:27923   */\n    tag_293:\n        /* \"#utility.yul\":27874:27898   */\n      tag_584\n        /* \"#utility.yul\":27892:27897   */\n      dup2\n        /* \"#utility.yul\":27874:27898   */\n      tag_352\n      jump\t// in\n    tag_584:\n        /* \"#utility.yul\":27867:27872   */\n      dup2\n        /* \"#utility.yul\":27864:27899   */\n      eq\n        /* \"#utility.yul\":27854:27856   */\n      tag_585\n      jumpi\n        /* \"#utility.yul\":27913:27914   */\n      0x00\n        /* \"#utility.yul\":27910:27911   */\n      dup1\n        /* \"#utility.yul\":27903:27915   */\n      revert\n        /* \"#utility.yul\":27854:27856   */\n    tag_585:\n        /* \"#utility.yul\":27844:27923   */\n      pop\n      jump\t// out\n        /* \"#utility.yul\":27929:28045   */\n    tag_297:\n        /* \"#utility.yul\":27999:28020   */\n      tag_587\n        /* \"#utility.yul\":28014:28019   */\n      dup2\n        /* \"#utility.yul\":27999:28020   */\n      tag_356\n      jump\t// in\n    tag_587:\n        /* \"#utility.yul\":27992:27997   */\n      dup2\n        /* \"#utility.yul\":27989:28021   */\n      eq\n        /* \"#utility.yul\":27979:27981   */\n      tag_588\n      jumpi\n        /* \"#utility.yul\":28035:28036   */\n      0x00\n        /* \"#utility.yul\":28032:28033   */\n      dup1\n        /* \"#utility.yul\":28025:28037   */\n      revert\n        /* \"#utility.yul\":27979:27981   */\n    tag_588:\n        /* \"#utility.yul\":27969:28045   */\n      pop\n      jump\t// out\n        /* \"#utility.yul\":28051:28171   */\n    tag_301:\n        /* \"#utility.yul\":28123:28146   */\n      tag_590\n        /* \"#utility.yul\":28140:28145   */\n      dup2\n        /* \"#utility.yul\":28123:28146   */\n      tag_536\n      jump\t// in\n    tag_590:\n        /* \"#utility.yul\":28116:28121   */\n      dup2\n        /* \"#utility.yul\":28113:28147   */\n      eq\n        /* \"#utility.yul\":28103:28105   */\n      tag_591\n      jumpi\n        /* \"#utility.yul\":28161:28162   */\n      0x00\n        /* \"#utility.yul\":28158:28159   */\n      dup1\n        /* \"#utility.yul\":28151:28163   */\n      revert\n        /* \"#utility.yul\":28103:28105   */\n    tag_591:\n        /* \"#utility.yul\":28093:28171   */\n      pop\n      jump\t// out\n        /* \"#utility.yul\":28177:28299   */\n    tag_312:\n        /* \"#utility.yul\":28250:28274   */\n      tag_593\n        /* \"#utility.yul\":28268:28273   */\n      dup2\n        /* \"#utility.yul\":28250:28274   */\n      tag_454\n      jump\t// in\n    tag_593:\n        /* \"#utility.yul\":28243:28248   */\n      dup2\n        /* \"#utility.yul\":28240:28275   */\n      eq\n        /* \"#utility.yul\":28230:28232   */\n      tag_594\n      jumpi\n        /* \"#utility.yul\":28289:28290   */\n      0x00\n        /* \"#utility.yul\":28286:28287   */\n      dup1\n        /* \"#utility.yul\":28279:28291   */\n      revert\n        /* \"#utility.yul\":28230:28232   */\n    tag_594:\n        /* \"#utility.yul\":28220:28299   */\n      pop\n      jump\t// out\n\n    auxdata: 0xa2646970667358221220171e0b143443c990ff627814a1ea06ee7e34d7161ff1925f921c55f7a49e748d64736f6c63430008010033\n}\n",
				"bytecode": {
					"linkReferences": {},
					"object": "60806040523480156200001157600080fd5b5060405162002afd38038062002afd833981810160405281019062000037919062000197565b818181600090805190602001906200005192919062000075565b5080600190805190602001906200006a92919062000075565b50505050506200037a565b82805462000083906200029f565b90600052602060002090601f016020900481019282620000a75760008555620000f3565b82601f10620000c257805160ff1916838001178555620000f3565b82800160010185558215620000f3579182015b82811115620000f2578251825591602001919060010190620000d5565b5b50905062000102919062000106565b5090565b5b808211156200012157600081600090555060010162000107565b5090565b60006200013c620001368462000233565b6200020a565b9050828152602081018484840111156200015557600080fd5b6200016284828562000269565b509392505050565b600082601f8301126200017c57600080fd5b81516200018e84826020860162000125565b91505092915050565b60008060408385031215620001ab57600080fd5b600083015167ffffffffffffffff811115620001c657600080fd5b620001d4858286016200016a565b925050602083015167ffffffffffffffff811115620001f257600080fd5b62000200858286016200016a565b9150509250929050565b60006200021662000229565b9050620002248282620002d5565b919050565b6000604051905090565b600067ffffffffffffffff8211156200025157620002506200033a565b5b6200025c8262000369565b9050602081019050919050565b60005b83811015620002895780820151818401526020810190506200026c565b8381111562000299576000848401525b50505050565b60006002820490506001821680620002b857607f821691505b60208210811415620002cf57620002ce6200030b565b5b50919050565b620002e08262000369565b810181811067ffffffffffffffff821117156200030257620003016200033a565b5b80604052505050565b7f4e487b7100000000000000000000000000000000000000000000000000000000600052602260045260246000fd5b7f4e487b7100000000000000000000000000000000000000000000000000000000600052604160045260246000fd5b6000601f19601f8301169050919050565b612773806200038a6000396000f3fe608060405234801561001057600080fd5b50600436106100ea5760003560e01c80636352211e1161008c578063a22cb46511610066578063a22cb4651461025b578063b88d4fde14610277578063c87b56dd14610293578063e985e9c5146102c3576100ea565b80636352211e146101dd57806370a082311461020d57806395d89b411461023d576100ea565b8063095ea7b3116100c8578063095ea7b31461016d57806323b872dd146101895780634142e328146101a557806342842e0e146101c1576100ea565b806301ffc9a7146100ef57806306fdde031461011f578063081812fc1461013d575b600080fd5b61010960048036038101906101049190611975565b6102f3565b6040516101169190611d35565b60405180910390f35b6101276103d5565b6040516101349190611d50565b60405180910390f35b610157600480360381019061015291906119c7565b610467565b6040516101649190611cce565b60405180910390f35b61018760048036038101906101829190611939565b6104ec565b005b6101a3600480360381019061019e9190611833565b610604565b005b6101bf60048036038101906101ba91906117ce565b610664565b005b6101db60048036038101906101d69190611833565b61068a565b005b6101f760048036038101906101f291906119c7565b6106aa565b6040516102049190611cce565b60405180910390f35b610227600480360381019061022291906117ce565b61075c565b6040516102349190611f32565b60405180910390f35b610245610814565b6040516102529190611d50565b60405180910390f35b610275600480360381019061027091906118fd565b6108a6565b005b610291600480360381019061028c9190611882565b6108bc565b005b6102ad60048036038101906102a891906119c7565b61091e565b6040516102ba9190611d50565b60405180910390f35b6102dd60048036038101906102d891906117f7565b6109c5565b6040516102ea9190611d35565b60405180910390f35b60007f80ac58cd000000000000000000000000000000000000000000000000000000007bffffffffffffffffffffffffffffffffffffffffffffffffffffffff1916827bffffffffffffffffffffffffffffffffffffffffffffffffffffffff191614806103be57507f5b5e139f000000000000000000000000000000000000000000000000000000007bffffffffffffffffffffffffffffffffffffffffffffffffffffffff1916827bffffffffffffffffffffffffffffffffffffffffffffffffffffffff1916145b806103ce57506103cd82610a59565b5b9050919050565b6060600080546103e490612157565b80601f016020809104026020016040519081016040528092919081815260200182805461041090612157565b801561045d5780601f106104325761010080835404028352916020019161045d565b820191906000526020600020905b81548152906001019060200180831161044057829003601f168201915b5050505050905090565b600061047282610ac3565b6104b1576040517f08c379a00000000000000000000000000000000000000000000000000000000081526004016104a890611eb2565b60405180910390fd5b6004600083815260200190815260200160002060009054906101000a900473ffffffffffffffffffffffffffffffffffffffff169050919050565b60006104f7826106aa565b90508073ffffffffffffffffffffffffffffffffffffffff168373ffffffffffffffffffffffffffffffffffffffff161415610568576040517f08c379a000000000000000000000000000000000000000000000000000000000815260040161055f90611ef2565b60405180910390fd5b8073ffffffffffffffffffffffffffffffffffffffff16610587610b2f565b73ffffffffffffffffffffffffffffffffffffffff1614806105b657506105b5816105b0610b2f565b6109c5565b5b6105f5576040517f08c379a00000000000000000000000000000000000000000000000000000000081526004016105ec90611e32565b60405180910390fd5b6105ff8383610b37565b505050565b61061561060f610b2f565b82610bf0565b610654576040517f08c379a000000000000000000000000000000000000000000000000000000000815260040161064b90611f12565b60405180910390fd5b61065f838383610cce565b505050565b61066e6006610f35565b600061067a6006610f4b565b90506106868282610f59565b5050565b6106a5838383604051806020016040528060008152506108bc565b505050565b6000806002600084815260200190815260200160002060009054906101000a900473ffffffffffffffffffffffffffffffffffffffff169050600073ffffffffffffffffffffffffffffffffffffffff168173ffffffffffffffffffffffffffffffffffffffff161415610753576040517f08c379a000000000000000000000000000000000000000000000000000000000815260040161074a90611e72565b60405180910390fd5b80915050919050565b60008073ffffffffffffffffffffffffffffffffffffffff168273ffffffffffffffffffffffffffffffffffffffff1614156107cd576040517f08c379a00000000000000000000000000000000000000000000000000000000081526004016107c490611e52565b60405180910390fd5b600360008373ffffffffffffffffffffffffffffffffffffffff1673ffffffffffffffffffffffffffffffffffffffff168152602001908152602001600020549050919050565b60606001805461082390612157565b80601f016020809104026020016040519081016040528092919081815260200182805461084f90612157565b801561089c5780601f106108715761010080835404028352916020019161089c565b820191906000526020600020905b81548152906001019060200180831161087f57829003601f168201915b5050505050905090565b6108b86108b1610b2f565b8383610f77565b5050565b6108cd6108c7610b2f565b83610bf0565b61090c576040517f08c379a000000000000000000000000000000000000000000000000000000000815260040161090390611f12565b60405180910390fd5b610918848484846110e4565b50505050565b606061092982610ac3565b610968576040517f08c379a000000000000000000000000000000000000000000000000000000000815260040161095f90611ed2565b60405180910390fd5b6000610972611140565b9050600081511161099257604051806020016040528060008152506109bd565b8061099c84611157565b6040516020016109ad929190611caa565b6040516020818303038152906040525b915050919050565b6000600560008473ffffffffffffffffffffffffffffffffffffffff1673ffffffffffffffffffffffffffffffffffffffff16815260200190815260200160002060008373ffffffffffffffffffffffffffffffffffffffff1673ffffffffffffffffffffffffffffffffffffffff16815260200190815260200160002060009054906101000a900460ff16905092915050565b60007f01ffc9a7000000000000000000000000000000000000000000000000000000007bffffffffffffffffffffffffffffffffffffffffffffffffffffffff1916827bffffffffffffffffffffffffffffffffffffffffffffffffffffffff1916149050919050565b60008073ffffffffffffffffffffffffffffffffffffffff166002600084815260200190815260200160002060009054906101000a900473ffffffffffffffffffffffffffffffffffffffff1673ffffffffffffffffffffffffffffffffffffffff1614159050919050565b600033905090565b816004600083815260200190815260200160002060006101000a81548173ffffffffffffffffffffffffffffffffffffffff021916908373ffffffffffffffffffffffffffffffffffffffff160217905550808273ffffffffffffffffffffffffffffffffffffffff16610baa836106aa565b73ffffffffffffffffffffffffffffffffffffffff167f8c5be1e5ebec7d5bd14f71427d1e84f3dd0314c0f7b2291e5b200ac8c7c3b92560405160405180910390a45050565b6000610bfb82610ac3565b610c3a576040517f08c379a0000000000000000000000000000000000000000000000000000000008152600401610c3190611e12565b60405180910390fd5b6000610c45836106aa565b90508073ffffffffffffffffffffffffffffffffffffffff168473ffffffffffffffffffffffffffffffffffffffff161480610cb457508373ffffffffffffffffffffffffffffffffffffffff16610c9c84610467565b73ffffffffffffffffffffffffffffffffffffffff16145b80610cc55750610cc481856109c5565b5b91505092915050565b8273ffffffffffffffffffffffffffffffffffffffff16610cee826106aa565b73ffffffffffffffffffffffffffffffffffffffff1614610d44576040517f08c379a0000000000000000000000000000000000000000000000000000000008152600401610d3b90611d92565b60405180910390fd5b600073ffffffffffffffffffffffffffffffffffffffff168273ffffffffffffffffffffffffffffffffffffffff161415610db4576040517f08c379a0000000000000000000000000000000000000000000000000000000008152600401610dab90611dd2565b60405180910390fd5b610dbf838383611304565b610dca600082610b37565b6001600360008573ffffffffffffffffffffffffffffffffffffffff1673ffffffffffffffffffffffffffffffffffffffff1681526020019081526020016000206000828254610e1a919061206d565b925050819055506001600360008473ffffffffffffffffffffffffffffffffffffffff1673ffffffffffffffffffffffffffffffffffffffff1681526020019081526020016000206000828254610e719190611fe6565b92505081905550816002600083815260200190815260200160002060006101000a81548173ffffffffffffffffffffffffffffffffffffffff021916908373ffffffffffffffffffffffffffffffffffffffff160217905550808273ffffffffffffffffffffffffffffffffffffffff168473ffffffffffffffffffffffffffffffffffffffff167fddf252ad1be2c89b69c2b068fc378daa952ba7f163c4a11628f55a4df523b3ef60405160405180910390a4610f30838383611309565b505050565b6001816000016000828254019250508190555050565b600081600001549050919050565b610f7382826040518060200160405280600081525061130e565b5050565b8173ffffffffffffffffffffffffffffffffffffffff168373ffffffffffffffffffffffffffffffffffffffff161415610fe6576040517f08c379a0000000000000000000000000000000000000000000000000000000008152600401610fdd90611df2565b60405180910390fd5b80600560008573ffffffffffffffffffffffffffffffffffffffff1673ffffffffffffffffffffffffffffffffffffffff16815260200190815260200160002060008473ffffffffffffffffffffffffffffffffffffffff1673ffffffffffffffffffffffffffffffffffffffff16815260200190815260200160002060006101000a81548160ff0219169083151502179055508173ffffffffffffffffffffffffffffffffffffffff168373ffffffffffffffffffffffffffffffffffffffff167f17307eab39ab6107e8899845ad3d59bd9653f200f220920489ca2b5937696c31836040516110d79190611d35565b60405180910390a3505050565b6110ef848484610cce565b6110fb84848484611369565b61113a576040517f08c379a000000000000000000000000000000000000000000000000000000000815260040161113190611d72565b60405180910390fd5b50505050565b606060405180602001604052806000815250905090565b6060600082141561119f576040518060400160405280600181526020017f300000000000000000000000000000000000000000000000000000000000000081525090506112ff565b600082905060005b600082146111d15780806111ba906121ba565b915050600a826111ca919061203c565b91506111a7565b60008167ffffffffffffffff811115611213577f4e487b7100000000000000000000000000000000000000000000000000000000600052604160045260246000fd5b6040519080825280601f01601f1916602001820160405280156112455781602001600182028036833780820191505090505b5090505b600085146112f85760018261125e919061206d565b9150600a8561126d9190612203565b60306112799190611fe6565b60f81b8183815181106112b5577f4e487b7100000000000000000000000000000000000000000000000000000000600052603260045260246000fd5b60200101907effffffffffffffffffffffffffffffffffffffffffffffffffffffffffffff1916908160001a905350600a856112f1919061203c565b9450611249565b8093505050505b919050565b505050565b505050565b6113188383611500565b6113256000848484611369565b611364576040517f08c379a000000000000000000000000000000000000000000000000000000000815260040161135b90611d72565b60405180910390fd5b505050565b600061138a8473ffffffffffffffffffffffffffffffffffffffff166116da565b156114f3578373ffffffffffffffffffffffffffffffffffffffff1663150b7a026113b3610b2f565b8786866040518563ffffffff1660e01b81526004016113d59493929190611ce9565b602060405180830381600087803b1580156113ef57600080fd5b505af192505050801561142057506040513d601f19601f8201168201806040525081019061141d919061199e565b60015b6114a3573d8060008114611450576040519150601f19603f3d011682016040523d82523d6000602084013e611455565b606091505b5060008151141561149b576040517f08c379a000000000000000000000000000000000000000000000000000000000815260040161149290611d72565b60405180910390fd5b805181602001fd5b63150b7a0260e01b7bffffffffffffffffffffffffffffffffffffffffffffffffffffffff1916817bffffffffffffffffffffffffffffffffffffffffffffffffffffffff1916149150506114f8565b600190505b949350505050565b600073ffffffffffffffffffffffffffffffffffffffff168273ffffffffffffffffffffffffffffffffffffffff161415611570576040517f08c379a000000000000000000000000000000000000000000000000000000000815260040161156790611e92565b60405180910390fd5b61157981610ac3565b156115b9576040517f08c379a00000000000000000000000000000000000000000000000000000000081526004016115b090611db2565b60405180910390fd5b6115c560008383611304565b6001600360008473ffffffffffffffffffffffffffffffffffffffff1673ffffffffffffffffffffffffffffffffffffffff16815260200190815260200160002060008282546116159190611fe6565b92505081905550816002600083815260200190815260200160002060006101000a81548173ffffffffffffffffffffffffffffffffffffffff021916908373ffffffffffffffffffffffffffffffffffffffff160217905550808273ffffffffffffffffffffffffffffffffffffffff16600073ffffffffffffffffffffffffffffffffffffffff167fddf252ad1be2c89b69c2b068fc378daa952ba7f163c4a11628f55a4df523b3ef60405160405180910390a46116d660008383611309565b5050565b6000808273ffffffffffffffffffffffffffffffffffffffff163b119050919050565b600061171061170b84611f72565b611f4d565b90508281526020810184848401111561172857600080fd5b611733848285612115565b509392505050565b60008135905061174a816126e1565b92915050565b60008135905061175f816126f8565b92915050565b6000813590506117748161270f565b92915050565b6000815190506117898161270f565b92915050565b600082601f8301126117a057600080fd5b81356117b08482602086016116fd565b91505092915050565b6000813590506117c881612726565b92915050565b6000602082840312156117e057600080fd5b60006117ee8482850161173b565b91505092915050565b6000806040838503121561180a57600080fd5b60006118188582860161173b565b92505060206118298582860161173b565b9150509250929050565b60008060006060848603121561184857600080fd5b60006118568682870161173b565b93505060206118678682870161173b565b9250506040611878868287016117b9565b9150509250925092565b6000806000806080858703121561189857600080fd5b60006118a68782880161173b565b94505060206118b78782880161173b565b93505060406118c8878288016117b9565b925050606085013567ffffffffffffffff8111156118e557600080fd5b6118f18782880161178f565b91505092959194509250565b6000806040838503121561191057600080fd5b600061191e8582860161173b565b925050602061192f85828601611750565b9150509250929050565b6000806040838503121561194c57600080fd5b600061195a8582860161173b565b925050602061196b858286016117b9565b9150509250929050565b60006020828403121561198757600080fd5b600061199584828501611765565b91505092915050565b6000602082840312156119b057600080fd5b60006119be8482850161177a565b91505092915050565b6000602082840312156119d957600080fd5b60006119e7848285016117b9565b91505092915050565b6119f9816120a1565b82525050565b611a08816120b3565b82525050565b6000611a1982611fa3565b611a238185611fb9565b9350611a33818560208601612124565b611a3c816122f0565b840191505092915050565b6000611a5282611fae565b611a5c8185611fca565b9350611a6c818560208601612124565b611a75816122f0565b840191505092915050565b6000611a8b82611fae565b611a958185611fdb565b9350611aa5818560208601612124565b80840191505092915050565b6000611abe603283611fca565b9150611ac982612301565b604082019050919050565b6000611ae1602583611fca565b9150611aec82612350565b604082019050919050565b6000611b04601c83611fca565b9150611b0f8261239f565b602082019050919050565b6000611b27602483611fca565b9150611b32826123c8565b604082019050919050565b6000611b4a601983611fca565b9150611b5582612417565b602082019050919050565b6000611b6d602c83611fca565b9150611b7882612440565b604082019050919050565b6000611b90603883611fca565b9150611b9b8261248f565b604082019050919050565b6000611bb3602a83611fca565b9150611bbe826124de565b604082019050919050565b6000611bd6602983611fca565b9150611be18261252d565b604082019050919050565b6000611bf9602083611fca565b9150611c048261257c565b602082019050919050565b6000611c1c602c83611fca565b9150611c27826125a5565b604082019050919050565b6000611c3f602f83611fca565b9150611c4a826125f4565b604082019050919050565b6000611c62602183611fca565b9150611c6d82612643565b604082019050919050565b6000611c85603183611fca565b9150611c9082612692565b604082019050919050565b611ca48161210b565b82525050565b6000611cb68285611a80565b9150611cc28284611a80565b91508190509392505050565b6000602082019050611ce360008301846119f0565b92915050565b6000608082019050611cfe60008301876119f0565b611d0b60208301866119f0565b611d186040830185611c9b565b8181036060830152611d2a8184611a0e565b905095945050505050565b6000602082019050611d4a60008301846119ff565b92915050565b60006020820190508181036000830152611d6a8184611a47565b905092915050565b60006020820190508181036000830152611d8b81611ab1565b9050919050565b60006020820190508181036000830152611dab81611ad4565b9050919050565b60006020820190508181036000830152611dcb81611af7565b9050919050565b60006020820190508181036000830152611deb81611b1a565b9050919050565b60006020820190508181036000830152611e0b81611b3d565b9050919050565b60006020820190508181036000830152611e2b81611b60565b9050919050565b60006020820190508181036000830152611e4b81611b83565b9050919050565b60006020820190508181036000830152611e6b81611ba6565b9050919050565b60006020820190508181036000830152611e8b81611bc9565b9050919050565b60006020820190508181036000830152611eab81611bec565b9050919050565b60006020820190508181036000830152611ecb81611c0f565b9050919050565b60006020820190508181036000830152611eeb81611c32565b9050919050565b60006020820190508181036000830152611f0b81611c55565b9050919050565b60006020820190508181036000830152611f2b81611c78565b9050919050565b6000602082019050611f476000830184611c9b565b92915050565b6000611f57611f68565b9050611f638282612189565b919050565b6000604051905090565b600067ffffffffffffffff821115611f8d57611f8c6122c1565b5b611f96826122f0565b9050602081019050919050565b600081519050919050565b600081519050919050565b600082825260208201905092915050565b600082825260208201905092915050565b600081905092915050565b6000611ff18261210b565b9150611ffc8361210b565b9250827fffffffffffffffffffffffffffffffffffffffffffffffffffffffffffffffff0382111561203157612030612234565b5b828201905092915050565b60006120478261210b565b91506120528361210b565b92508261206257612061612263565b5b828204905092915050565b60006120788261210b565b91506120838361210b565b92508282101561209657612095612234565b5b828203905092915050565b60006120ac826120eb565b9050919050565b60008115159050919050565b60007fffffffff0000000000000000000000000000000000000000000000000000000082169050919050565b600073ffffffffffffffffffffffffffffffffffffffff82169050919050565b6000819050919050565b82818337600083830152505050565b60005b83811015612142578082015181840152602081019050612127565b83811115612151576000848401525b50505050565b6000600282049050600182168061216f57607f821691505b6020821081141561218357612182612292565b5b50919050565b612192826122f0565b810181811067ffffffffffffffff821117156121b1576121b06122c1565b5b80604052505050565b60006121c58261210b565b91507fffffffffffffffffffffffffffffffffffffffffffffffffffffffffffffffff8214156121f8576121f7612234565b5b600182019050919050565b600061220e8261210b565b91506122198361210b565b92508261222957612228612263565b5b828206905092915050565b7f4e487b7100000000000000000000000000000000000000000000000000000000600052601160045260246000fd5b7f4e487b7100000000000000000000000000000000000000000000000000000000600052601260045260246000fd5b7f4e487b7100000000000000000000000000000000000000000000000000000000600052602260045260246000fd5b7f4e487b7100000000000000000000000000000000000000000000000000000000600052604160045260246000fd5b6000601f19601f8301169050919050565b7f4552433732313a207472616e7366657220746f206e6f6e20455243373231526560008201527f63656976657220696d706c656d656e7465720000000000000000000000000000602082015250565b7f4552433732313a207472616e736665722066726f6d20696e636f72726563742060008201527f6f776e6572000000000000000000000000000000000000000000000000000000602082015250565b7f4552433732313a20746f6b656e20616c7265616479206d696e74656400000000600082015250565b7f4552433732313a207472616e7366657220746f20746865207a65726f2061646460008201527f7265737300000000000000000000000000000000000000000000000000000000602082015250565b7f4552433732313a20617070726f766520746f2063616c6c657200000000000000600082015250565b7f4552433732313a206f70657261746f7220717565727920666f72206e6f6e657860008201527f697374656e7420746f6b656e0000000000000000000000000000000000000000602082015250565b7f4552433732313a20617070726f76652063616c6c6572206973206e6f74206f7760008201527f6e6572206e6f7220617070726f76656420666f7220616c6c0000000000000000602082015250565b7f4552433732313a2062616c616e636520717565727920666f7220746865207a6560008201527f726f206164647265737300000000000000000000000000000000000000000000602082015250565b7f4552433732313a206f776e657220717565727920666f72206e6f6e657869737460008201527f656e7420746f6b656e0000000000000000000000000000000000000000000000602082015250565b7f4552433732313a206d696e7420746f20746865207a65726f2061646472657373600082015250565b7f4552433732313a20617070726f76656420717565727920666f72206e6f6e657860008201527f697374656e7420746f6b656e0000000000000000000000000000000000000000602082015250565b7f4552433732314d657461646174613a2055524920717565727920666f72206e6f60008201527f6e6578697374656e7420746f6b656e0000000000000000000000000000000000602082015250565b7f4552433732313a20617070726f76616c20746f2063757272656e74206f776e6560008201527f7200000000000000000000000000000000000000000000000000000000000000602082015250565b7f4552433732313a207472616e736665722063616c6c6572206973206e6f74206f60008201527f776e6572206e6f7220617070726f766564000000000000000000000000000000602082015250565b6126ea816120a1565b81146126f557600080fd5b50565b612701816120b3565b811461270c57600080fd5b50565b612718816120bf565b811461272357600080fd5b50565b61272f8161210b565b811461273a57600080fd5b5056fea2646970667358221220171e0b143443c990ff627814a1ea06ee7e34d7161ff1925f921c55f7a49e748d64736f6c63430008010033",
					"opcodes": "PUSH1 0x80 PUSH1 0x40 MSTORE CALLVALUE DUP1 ISZERO PUSH3 0x11 JUMPI PUSH1 0x0 DUP1 REVERT JUMPDEST POP PUSH1 0x40 MLOAD PUSH3 0x2AFD CODESIZE SUB DUP1 PUSH3 0x2AFD DUP4 CODECOPY DUP2 DUP2 ADD PUSH1 0x40 MSTORE DUP2 ADD SWAP1 PUSH3 0x37 SWAP2 SWAP1 PUSH3 0x197 JUMP JUMPDEST DUP2 DUP2 DUP2 PUSH1 0x0 SWAP1 DUP1 MLOAD SWAP1 PUSH1 0x20 ADD SWAP1 PUSH3 0x51 SWAP3 SWAP2 SWAP1 PUSH3 0x75 JUMP JUMPDEST POP DUP1 PUSH1 0x1 SWAP1 DUP1 MLOAD SWAP1 PUSH1 0x20 ADD SWAP1 PUSH3 0x6A SWAP3 SWAP2 SWAP1 PUSH3 0x75 JUMP JUMPDEST POP POP POP POP POP PUSH3 0x37A JUMP JUMPDEST DUP3 DUP1 SLOAD PUSH3 0x83 SWAP1 PUSH3 0x29F JUMP JUMPDEST SWAP1 PUSH1 0x0 MSTORE PUSH1 0x20 PUSH1 0x0 KECCAK256 SWAP1 PUSH1 0x1F ADD PUSH1 0x20 SWAP1 DIV DUP2 ADD SWAP3 DUP3 PUSH3 0xA7 JUMPI PUSH1 0x0 DUP6 SSTORE PUSH3 0xF3 JUMP JUMPDEST DUP3 PUSH1 0x1F LT PUSH3 0xC2 JUMPI DUP1 MLOAD PUSH1 0xFF NOT AND DUP4 DUP1 ADD OR DUP6 SSTORE PUSH3 0xF3 JUMP JUMPDEST DUP3 DUP1 ADD PUSH1 0x1 ADD DUP6 SSTORE DUP3 ISZERO PUSH3 0xF3 JUMPI SWAP2 DUP3 ADD JUMPDEST DUP3 DUP2 GT ISZERO PUSH3 0xF2 JUMPI DUP3 MLOAD DUP3 SSTORE SWAP2 PUSH1 0x20 ADD SWAP2 SWAP1 PUSH1 0x1 ADD SWAP1 PUSH3 0xD5 JUMP JUMPDEST JUMPDEST POP SWAP1 POP PUSH3 0x102 SWAP2 SWAP1 PUSH3 0x106 JUMP JUMPDEST POP SWAP1 JUMP JUMPDEST JUMPDEST DUP1 DUP3 GT ISZERO PUSH3 0x121 JUMPI PUSH1 0x0 DUP2 PUSH1 0x0 SWAP1 SSTORE POP PUSH1 0x1 ADD PUSH3 0x107 JUMP JUMPDEST POP SWAP1 JUMP JUMPDEST PUSH1 0x0 PUSH3 0x13C PUSH3 0x136 DUP5 PUSH3 0x233 JUMP JUMPDEST PUSH3 0x20A JUMP JUMPDEST SWAP1 POP DUP3 DUP2 MSTORE PUSH1 0x20 DUP2 ADD DUP5 DUP5 DUP5 ADD GT ISZERO PUSH3 0x155 JUMPI PUSH1 0x0 DUP1 REVERT JUMPDEST PUSH3 0x162 DUP5 DUP3 DUP6 PUSH3 0x269 JUMP JUMPDEST POP SWAP4 SWAP3 POP POP POP JUMP JUMPDEST PUSH1 0x0 DUP3 PUSH1 0x1F DUP4 ADD SLT PUSH3 0x17C JUMPI PUSH1 0x0 DUP1 REVERT JUMPDEST DUP2 MLOAD PUSH3 0x18E DUP5 DUP3 PUSH1 0x20 DUP7 ADD PUSH3 0x125 JUMP JUMPDEST SWAP2 POP POP SWAP3 SWAP2 POP POP JUMP JUMPDEST PUSH1 0x0 DUP1 PUSH1 0x40 DUP4 DUP6 SUB SLT ISZERO PUSH3 0x1AB JUMPI PUSH1 0x0 DUP1 REVERT JUMPDEST PUSH1 0x0 DUP4 ADD MLOAD PUSH8 0xFFFFFFFFFFFFFFFF DUP2 GT ISZERO PUSH3 0x1C6 JUMPI PUSH1 0x0 DUP1 REVERT JUMPDEST PUSH3 0x1D4 DUP6 DUP3 DUP7 ADD PUSH3 0x16A JUMP JUMPDEST SWAP3 POP POP PUSH1 0x20 DUP4 ADD MLOAD PUSH8 0xFFFFFFFFFFFFFFFF DUP2 GT ISZERO PUSH3 0x1F2 JUMPI PUSH1 0x0 DUP1 REVERT JUMPDEST PUSH3 0x200 DUP6 DUP3 DUP7 ADD PUSH3 0x16A JUMP JUMPDEST SWAP2 POP POP SWAP3 POP SWAP3 SWAP1 POP JUMP JUMPDEST PUSH1 0x0 PUSH3 0x216 PUSH3 0x229 JUMP JUMPDEST SWAP1 POP PUSH3 0x224 DUP3 DUP3 PUSH3 0x2D5 JUMP JUMPDEST SWAP2 SWAP1 POP JUMP JUMPDEST PUSH1 0x0 PUSH1 0x40 MLOAD SWAP1 POP SWAP1 JUMP JUMPDEST PUSH1 0x0 PUSH8 0xFFFFFFFFFFFFFFFF DUP3 GT ISZERO PUSH3 0x251 JUMPI PUSH3 0x250 PUSH3 0x33A JUMP JUMPDEST JUMPDEST PUSH3 0x25C DUP3 PUSH3 0x369 JUMP JUMPDEST SWAP1 POP PUSH1 0x20 DUP2 ADD SWAP1 POP SWAP2 SWAP1 POP JUMP JUMPDEST PUSH1 0x0 JUMPDEST DUP4 DUP2 LT ISZERO PUSH3 0x289 JUMPI DUP1 DUP3 ADD MLOAD DUP2 DUP5 ADD MSTORE PUSH1 0x20 DUP2 ADD SWAP1 POP PUSH3 0x26C JUMP JUMPDEST DUP4 DUP2 GT ISZERO PUSH3 0x299 JUMPI PUSH1 0x0 DUP5 DUP5 ADD MSTORE JUMPDEST POP POP POP POP JUMP JUMPDEST PUSH1 0x0 PUSH1 0x2 DUP3 DIV SWAP1 POP PUSH1 0x1 DUP3 AND DUP1 PUSH3 0x2B8 JUMPI PUSH1 0x7F DUP3 AND SWAP2 POP JUMPDEST PUSH1 0x20 DUP3 LT DUP2 EQ ISZERO PUSH3 0x2CF JUMPI PUSH3 0x2CE PUSH3 0x30B JUMP JUMPDEST JUMPDEST POP SWAP2 SWAP1 POP JUMP JUMPDEST PUSH3 0x2E0 DUP3 PUSH3 0x369 JUMP JUMPDEST DUP2 ADD DUP2 DUP2 LT PUSH8 0xFFFFFFFFFFFFFFFF DUP3 GT OR ISZERO PUSH3 0x302 JUMPI PUSH3 0x301 PUSH3 0x33A JUMP JUMPDEST JUMPDEST DUP1 PUSH1 0x40 MSTORE POP POP POP JUMP JUMPDEST PUSH32 0x4E487B7100000000000000000000000000000000000000000000000000000000 PUSH1 0x0 MSTORE PUSH1 0x22 PUSH1 0x4 MSTORE PUSH1 0x24 PUSH1 0x0 REVERT JUMPDEST PUSH32 0x4E487B7100000000000000000000000000000000000000000000000000000000 PUSH1 0x0 MSTORE PUSH1 0x41 PUSH1 0x4 MSTORE PUSH1 0x24 PUSH1 0x0 REVERT JUMPDEST PUSH1 0x0 PUSH1 0x1F NOT PUSH1 0x1F DUP4 ADD AND SWAP1 POP SWAP2 SWAP1 POP JUMP JUMPDEST PUSH2 0x2773 DUP1 PUSH3 0x38A PUSH1 0x0 CODECOPY PUSH1 0x0 RETURN INVALID PUSH1 0x80 PUSH1 0x40 MSTORE CALLVALUE DUP1 ISZERO PUSH2 0x10 JUMPI PUSH1 0x0 DUP1 REVERT JUMPDEST POP PUSH1 0x4 CALLDATASIZE LT PUSH2 0xEA JUMPI PUSH1 0x0 CALLDATALOAD PUSH1 0xE0 SHR DUP1 PUSH4 0x6352211E GT PUSH2 0x8C JUMPI DUP1 PUSH4 0xA22CB465 GT PUSH2 0x66 JUMPI DUP1 PUSH4 0xA22CB465 EQ PUSH2 0x25B JUMPI DUP1 PUSH4 0xB88D4FDE EQ PUSH2 0x277 JUMPI DUP1 PUSH4 0xC87B56DD EQ PUSH2 0x293 JUMPI DUP1 PUSH4 0xE985E9C5 EQ PUSH2 0x2C3 JUMPI PUSH2 0xEA JUMP JUMPDEST DUP1 PUSH4 0x6352211E EQ PUSH2 0x1DD JUMPI DUP1 PUSH4 0x70A08231 EQ PUSH2 0x20D JUMPI DUP1 PUSH4 0x95D89B41 EQ PUSH2 0x23D JUMPI PUSH2 0xEA JUMP JUMPDEST DUP1 PUSH4 0x95EA7B3 GT PUSH2 0xC8 JUMPI DUP1 PUSH4 0x95EA7B3 EQ PUSH2 0x16D JUMPI DUP1 PUSH4 0x23B872DD EQ PUSH2 0x189 JUMPI DUP1 PUSH4 0x4142E328 EQ PUSH2 0x1A5 JUMPI DUP1 PUSH4 0x42842E0E EQ PUSH2 0x1C1 JUMPI PUSH2 0xEA JUMP JUMPDEST DUP1 PUSH4 0x1FFC9A7 EQ PUSH2 0xEF JUMPI DUP1 PUSH4 0x6FDDE03 EQ PUSH2 0x11F JUMPI DUP1 PUSH4 0x81812FC EQ PUSH2 0x13D JUMPI JUMPDEST PUSH1 0x0 DUP1 REVERT JUMPDEST PUSH2 0x109 PUSH1 0x4 DUP1 CALLDATASIZE SUB DUP2 ADD SWAP1 PUSH2 0x104 SWAP2 SWAP1 PUSH2 0x1975 JUMP JUMPDEST PUSH2 0x2F3 JUMP JUMPDEST PUSH1 0x40 MLOAD PUSH2 0x116 SWAP2 SWAP1 PUSH2 0x1D35 JUMP JUMPDEST PUSH1 0x40 MLOAD DUP1 SWAP2 SUB SWAP1 RETURN JUMPDEST PUSH2 0x127 PUSH2 0x3D5 JUMP JUMPDEST PUSH1 0x40 MLOAD PUSH2 0x134 SWAP2 SWAP1 PUSH2 0x1D50 JUMP JUMPDEST PUSH1 0x40 MLOAD DUP1 SWAP2 SUB SWAP1 RETURN JUMPDEST PUSH2 0x157 PUSH1 0x4 DUP1 CALLDATASIZE SUB DUP2 ADD SWAP1 PUSH2 0x152 SWAP2 SWAP1 PUSH2 0x19C7 JUMP JUMPDEST PUSH2 0x467 JUMP JUMPDEST PUSH1 0x40 MLOAD PUSH2 0x164 SWAP2 SWAP1 PUSH2 0x1CCE JUMP JUMPDEST PUSH1 0x40 MLOAD DUP1 SWAP2 SUB SWAP1 RETURN JUMPDEST PUSH2 0x187 PUSH1 0x4 DUP1 CALLDATASIZE SUB DUP2 ADD SWAP1 PUSH2 0x182 SWAP2 SWAP1 PUSH2 0x1939 JUMP JUMPDEST PUSH2 0x4EC JUMP JUMPDEST STOP JUMPDEST PUSH2 0x1A3 PUSH1 0x4 DUP1 CALLDATASIZE SUB DUP2 ADD SWAP1 PUSH2 0x19E SWAP2 SWAP1 PUSH2 0x1833 JUMP JUMPDEST PUSH2 0x604 JUMP JUMPDEST STOP JUMPDEST PUSH2 0x1BF PUSH1 0x4 DUP1 CALLDATASIZE SUB DUP2 ADD SWAP1 PUSH2 0x1BA SWAP2 SWAP1 PUSH2 0x17CE JUMP JUMPDEST PUSH2 0x664 JUMP JUMPDEST STOP JUMPDEST PUSH2 0x1DB PUSH1 0x4 DUP1 CALLDATASIZE SUB DUP2 ADD SWAP1 PUSH2 0x1D6 SWAP2 SWAP1 PUSH2 0x1833 JUMP JUMPDEST PUSH2 0x68A JUMP JUMPDEST STOP JUMPDEST PUSH2 0x1F7 PUSH1 0x4 DUP1 CALLDATASIZE SUB DUP2 ADD SWAP1 PUSH2 0x1F2 SWAP2 SWAP1 PUSH2 0x19C7 JUMP JUMPDEST PUSH2 0x6AA JUMP JUMPDEST PUSH1 0x40 MLOAD PUSH2 0x204 SWAP2 SWAP1 PUSH2 0x1CCE JUMP JUMPDEST PUSH1 0x40 MLOAD DUP1 SWAP2 SUB SWAP1 RETURN JUMPDEST PUSH2 0x227 PUSH1 0x4 DUP1 CALLDATASIZE SUB DUP2 ADD SWAP1 PUSH2 0x222 SWAP2 SWAP1 PUSH2 0x17CE JUMP JUMPDEST PUSH2 0x75C JUMP JUMPDEST PUSH1 0x40 MLOAD PUSH2 0x234 SWAP2 SWAP1 PUSH2 0x1F32 JUMP JUMPDEST PUSH1 0x40 MLOAD DUP1 SWAP2 SUB SWAP1 RETURN JUMPDEST PUSH2 0x245 PUSH2 0x814 JUMP JUMPDEST PUSH1 0x40 MLOAD PUSH2 0x252 SWAP2 SWAP1 PUSH2 0x1D50 JUMP JUMPDEST PUSH1 0x40 MLOAD DUP1 SWAP2 SUB SWAP1 RETURN JUMPDEST PUSH2 0x275 PUSH1 0x4 DUP1 CALLDATASIZE SUB DUP2 ADD SWAP1 PUSH2 0x270 SWAP2 SWAP1 PUSH2 0x18FD JUMP JUMPDEST PUSH2 0x8A6 JUMP JUMPDEST STOP JUMPDEST PUSH2 0x291 PUSH1 0x4 DUP1 CALLDATASIZE SUB DUP2 ADD SWAP1 PUSH2 0x28C SWAP2 SWAP1 PUSH2 0x1882 JUMP JUMPDEST PUSH2 0x8BC JUMP JUMPDEST STOP JUMPDEST PUSH2 0x2AD PUSH1 0x4 DUP1 CALLDATASIZE SUB DUP2 ADD SWAP1 PUSH2 0x2A8 SWAP2 SWAP1 PUSH2 0x19C7 JUMP JUMPDEST PUSH2 0x91E JUMP JUMPDEST PUSH1 0x40 MLOAD PUSH2 0x2BA SWAP2 SWAP1 PUSH2 0x1D50 JUMP JUMPDEST PUSH1 0x40 MLOAD DUP1 SWAP2 SUB SWAP1 RETURN JUMPDEST PUSH2 0x2DD PUSH1 0x4 DUP1 CALLDATASIZE SUB DUP2 ADD SWAP1 PUSH2 0x2D8 SWAP2 SWAP1 PUSH2 0x17F7 JUMP JUMPDEST PUSH2 0x9C5 JUMP JUMPDEST PUSH1 0x40 MLOAD PUSH2 0x2EA SWAP2 SWAP1 PUSH2 0x1D35 JUMP JUMPDEST PUSH1 0x40 MLOAD DUP1 SWAP2 SUB SWAP1 RETURN JUMPDEST PUSH1 0x0 PUSH32 0x80AC58CD00000000000000000000000000000000000000000000000000000000 PUSH28 0xFFFFFFFFFFFFFFFFFFFFFFFFFFFFFFFFFFFFFFFFFFFFFFFFFFFFFFFF NOT AND DUP3 PUSH28 0xFFFFFFFFFFFFFFFFFFFFFFFFFFFFFFFFFFFFFFFFFFFFFFFFFFFFFFFF NOT AND EQ DUP1 PUSH2 0x3BE JUMPI POP PUSH32 0x5B5E139F00000000000000000000000000000000000000000000000000000000 PUSH28 0xFFFFFFFFFFFFFFFFFFFFFFFFFFFFFFFFFFFFFFFFFFFFFFFFFFFFFFFF NOT AND DUP3 PUSH28 0xFFFFFFFFFFFFFFFFFFFFFFFFFFFFFFFFFFFFFFFFFFFFFFFFFFFFFFFF NOT AND EQ JUMPDEST DUP1 PUSH2 0x3CE JUMPI POP PUSH2 0x3CD DUP3 PUSH2 0xA59 JUMP JUMPDEST JUMPDEST SWAP1 POP SWAP2 SWAP1 POP JUMP JUMPDEST PUSH1 0x60 PUSH1 0x0 DUP1 SLOAD PUSH2 0x3E4 SWAP1 PUSH2 0x2157 JUMP JUMPDEST DUP1 PUSH1 0x1F ADD PUSH1 0x20 DUP1 SWAP2 DIV MUL PUSH1 0x20 ADD PUSH1 0x40 MLOAD SWAP1 DUP2 ADD PUSH1 0x40 MSTORE DUP1 SWAP3 SWAP2 SWAP1 DUP2 DUP2 MSTORE PUSH1 0x20 ADD DUP3 DUP1 SLOAD PUSH2 0x410 SWAP1 PUSH2 0x2157 JUMP JUMPDEST DUP1 ISZERO PUSH2 0x45D JUMPI DUP1 PUSH1 0x1F LT PUSH2 0x432 JUMPI PUSH2 0x100 DUP1 DUP4 SLOAD DIV MUL DUP4 MSTORE SWAP2 PUSH1 0x20 ADD SWAP2 PUSH2 0x45D JUMP JUMPDEST DUP3 ADD SWAP2 SWAP1 PUSH1 0x0 MSTORE PUSH1 0x20 PUSH1 0x0 KECCAK256 SWAP1 JUMPDEST DUP2 SLOAD DUP2 MSTORE SWAP1 PUSH1 0x1 ADD SWAP1 PUSH1 0x20 ADD DUP1 DUP4 GT PUSH2 0x440 JUMPI DUP3 SWAP1 SUB PUSH1 0x1F AND DUP3 ADD SWAP2 JUMPDEST POP POP POP POP POP SWAP1 POP SWAP1 JUMP JUMPDEST PUSH1 0x0 PUSH2 0x472 DUP3 PUSH2 0xAC3 JUMP JUMPDEST PUSH2 0x4B1 JUMPI PUSH1 0x40 MLOAD PUSH32 0x8C379A000000000000000000000000000000000000000000000000000000000 DUP2 MSTORE PUSH1 0x4 ADD PUSH2 0x4A8 SWAP1 PUSH2 0x1EB2 JUMP JUMPDEST PUSH1 0x40 MLOAD DUP1 SWAP2 SUB SWAP1 REVERT JUMPDEST PUSH1 0x4 PUSH1 0x0 DUP4 DUP2 MSTORE PUSH1 0x20 ADD SWAP1 DUP2 MSTORE PUSH1 0x20 ADD PUSH1 0x0 KECCAK256 PUSH1 0x0 SWAP1 SLOAD SWAP1 PUSH2 0x100 EXP SWAP1 DIV PUSH20 0xFFFFFFFFFFFFFFFFFFFFFFFFFFFFFFFFFFFFFFFF AND SWAP1 POP SWAP2 SWAP1 POP JUMP JUMPDEST PUSH1 0x0 PUSH2 0x4F7 DUP3 PUSH2 0x6AA JUMP JUMPDEST SWAP1 POP DUP1 PUSH20 0xFFFFFFFFFFFFFFFFFFFFFFFFFFFFFFFFFFFFFFFF AND DUP4 PUSH20 0xFFFFFFFFFFFFFFFFFFFFFFFFFFFFFFFFFFFFFFFF AND EQ ISZERO PUSH2 0x568 JUMPI PUSH1 0x40 MLOAD PUSH32 0x8C379A000000000000000000000000000000000000000000000000000000000 DUP2 MSTORE PUSH1 0x4 ADD PUSH2 0x55F SWAP1 PUSH2 0x1EF2 JUMP JUMPDEST PUSH1 0x40 MLOAD DUP1 SWAP2 SUB SWAP1 REVERT JUMPDEST DUP1 PUSH20 0xFFFFFFFFFFFFFFFFFFFFFFFFFFFFFFFFFFFFFFFF AND PUSH2 0x587 PUSH2 0xB2F JUMP JUMPDEST PUSH20 0xFFFFFFFFFFFFFFFFFFFFFFFFFFFFFFFFFFFFFFFF AND EQ DUP1 PUSH2 0x5B6 JUMPI POP PUSH2 0x5B5 DUP2 PUSH2 0x5B0 PUSH2 0xB2F JUMP JUMPDEST PUSH2 0x9C5 JUMP JUMPDEST JUMPDEST PUSH2 0x5F5 JUMPI PUSH1 0x40 MLOAD PUSH32 0x8C379A000000000000000000000000000000000000000000000000000000000 DUP2 MSTORE PUSH1 0x4 ADD PUSH2 0x5EC SWAP1 PUSH2 0x1E32 JUMP JUMPDEST PUSH1 0x40 MLOAD DUP1 SWAP2 SUB SWAP1 REVERT JUMPDEST PUSH2 0x5FF DUP4 DUP4 PUSH2 0xB37 JUMP JUMPDEST POP POP POP JUMP JUMPDEST PUSH2 0x615 PUSH2 0x60F PUSH2 0xB2F JUMP JUMPDEST DUP3 PUSH2 0xBF0 JUMP JUMPDEST PUSH2 0x654 JUMPI PUSH1 0x40 MLOAD PUSH32 0x8C379A000000000000000000000000000000000000000000000000000000000 DUP2 MSTORE PUSH1 0x4 ADD PUSH2 0x64B SWAP1 PUSH2 0x1F12 JUMP JUMPDEST PUSH1 0x40 MLOAD DUP1 SWAP2 SUB SWAP1 REVERT JUMPDEST PUSH2 0x65F DUP4 DUP4 DUP4 PUSH2 0xCCE JUMP JUMPDEST POP POP POP JUMP JUMPDEST PUSH2 0x66E PUSH1 0x6 PUSH2 0xF35 JUMP JUMPDEST PUSH1 0x0 PUSH2 0x67A PUSH1 0x6 PUSH2 0xF4B JUMP JUMPDEST SWAP1 POP PUSH2 0x686 DUP3 DUP3 PUSH2 0xF59 JUMP JUMPDEST POP POP JUMP JUMPDEST PUSH2 0x6A5 DUP4 DUP4 DUP4 PUSH1 0x40 MLOAD DUP1 PUSH1 0x20 ADD PUSH1 0x40 MSTORE DUP1 PUSH1 0x0 DUP2 MSTORE POP PUSH2 0x8BC JUMP JUMPDEST POP POP POP JUMP JUMPDEST PUSH1 0x0 DUP1 PUSH1 0x2 PUSH1 0x0 DUP5 DUP2 MSTORE PUSH1 0x20 ADD SWAP1 DUP2 MSTORE PUSH1 0x20 ADD PUSH1 0x0 KECCAK256 PUSH1 0x0 SWAP1 SLOAD SWAP1 PUSH2 0x100 EXP SWAP1 DIV PUSH20 0xFFFFFFFFFFFFFFFFFFFFFFFFFFFFFFFFFFFFFFFF AND SWAP1 POP PUSH1 0x0 PUSH20 0xFFFFFFFFFFFFFFFFFFFFFFFFFFFFFFFFFFFFFFFF AND DUP2 PUSH20 0xFFFFFFFFFFFFFFFFFFFFFFFFFFFFFFFFFFFFFFFF AND EQ ISZERO PUSH2 0x753 JUMPI PUSH1 0x40 MLOAD PUSH32 0x8C379A000000000000000000000000000000000000000000000000000000000 DUP2 MSTORE PUSH1 0x4 ADD PUSH2 0x74A SWAP1 PUSH2 0x1E72 JUMP JUMPDEST PUSH1 0x40 MLOAD DUP1 SWAP2 SUB SWAP1 REVERT JUMPDEST DUP1 SWAP2 POP POP SWAP2 SWAP1 POP JUMP JUMPDEST PUSH1 0x0 DUP1 PUSH20 0xFFFFFFFFFFFFFFFFFFFFFFFFFFFFFFFFFFFFFFFF AND DUP3 PUSH20 0xFFFFFFFFFFFFFFFFFFFFFFFFFFFFFFFFFFFFFFFF AND EQ ISZERO PUSH2 0x7CD JUMPI PUSH1 0x40 MLOAD PUSH32 0x8C379A000000000000000000000000000000000000000000000000000000000 DUP2 MSTORE PUSH1 0x4 ADD PUSH2 0x7C4 SWAP1 PUSH2 0x1E52 JUMP JUMPDEST PUSH1 0x40 MLOAD DUP1 SWAP2 SUB SWAP1 REVERT JUMPDEST PUSH1 0x3 PUSH1 0x0 DUP4 PUSH20 0xFFFFFFFFFFFFFFFFFFFFFFFFFFFFFFFFFFFFFFFF AND PUSH20 0xFFFFFFFFFFFFFFFFFFFFFFFFFFFFFFFFFFFFFFFF AND DUP2 MSTORE PUSH1 0x20 ADD SWAP1 DUP2 MSTORE PUSH1 0x20 ADD PUSH1 0x0 KECCAK256 SLOAD SWAP1 POP SWAP2 SWAP1 POP JUMP JUMPDEST PUSH1 0x60 PUSH1 0x1 DUP1 SLOAD PUSH2 0x823 SWAP1 PUSH2 0x2157 JUMP JUMPDEST DUP1 PUSH1 0x1F ADD PUSH1 0x20 DUP1 SWAP2 DIV MUL PUSH1 0x20 ADD PUSH1 0x40 MLOAD SWAP1 DUP2 ADD PUSH1 0x40 MSTORE DUP1 SWAP3 SWAP2 SWAP1 DUP2 DUP2 MSTORE PUSH1 0x20 ADD DUP3 DUP1 SLOAD PUSH2 0x84F SWAP1 PUSH2 0x2157 JUMP JUMPDEST DUP1 ISZERO PUSH2 0x89C JUMPI DUP1 PUSH1 0x1F LT PUSH2 0x871 JUMPI PUSH2 0x100 DUP1 DUP4 SLOAD DIV MUL DUP4 MSTORE SWAP2 PUSH1 0x20 ADD SWAP2 PUSH2 0x89C JUMP JUMPDEST DUP3 ADD SWAP2 SWAP1 PUSH1 0x0 MSTORE PUSH1 0x20 PUSH1 0x0 KECCAK256 SWAP1 JUMPDEST DUP2 SLOAD DUP2 MSTORE SWAP1 PUSH1 0x1 ADD SWAP1 PUSH1 0x20 ADD DUP1 DUP4 GT PUSH2 0x87F JUMPI DUP3 SWAP1 SUB PUSH1 0x1F AND DUP3 ADD SWAP2 JUMPDEST POP POP POP POP POP SWAP1 POP SWAP1 JUMP JUMPDEST PUSH2 0x8B8 PUSH2 0x8B1 PUSH2 0xB2F JUMP JUMPDEST DUP4 DUP4 PUSH2 0xF77 JUMP JUMPDEST POP POP JUMP JUMPDEST PUSH2 0x8CD PUSH2 0x8C7 PUSH2 0xB2F JUMP JUMPDEST DUP4 PUSH2 0xBF0 JUMP JUMPDEST PUSH2 0x90C JUMPI PUSH1 0x40 MLOAD PUSH32 0x8C379A000000000000000000000000000000000000000000000000000000000 DUP2 MSTORE PUSH1 0x4 ADD PUSH2 0x903 SWAP1 PUSH2 0x1F12 JUMP JUMPDEST PUSH1 0x40 MLOAD DUP1 SWAP2 SUB SWAP1 REVERT JUMPDEST PUSH2 0x918 DUP5 DUP5 DUP5 DUP5 PUSH2 0x10E4 JUMP JUMPDEST POP POP POP POP JUMP JUMPDEST PUSH1 0x60 PUSH2 0x929 DUP3 PUSH2 0xAC3 JUMP JUMPDEST PUSH2 0x968 JUMPI PUSH1 0x40 MLOAD PUSH32 0x8C379A000000000000000000000000000000000000000000000000000000000 DUP2 MSTORE PUSH1 0x4 ADD PUSH2 0x95F SWAP1 PUSH2 0x1ED2 JUMP JUMPDEST PUSH1 0x40 MLOAD DUP1 SWAP2 SUB SWAP1 REVERT JUMPDEST PUSH1 0x0 PUSH2 0x972 PUSH2 0x1140 JUMP JUMPDEST SWAP1 POP PUSH1 0x0 DUP2 MLOAD GT PUSH2 0x992 JUMPI PUSH1 0x40 MLOAD DUP1 PUSH1 0x20 ADD PUSH1 0x40 MSTORE DUP1 PUSH1 0x0 DUP2 MSTORE POP PUSH2 0x9BD JUMP JUMPDEST DUP1 PUSH2 0x99C DUP5 PUSH2 0x1157 JUMP JUMPDEST PUSH1 0x40 MLOAD PUSH1 0x20 ADD PUSH2 0x9AD SWAP3 SWAP2 SWAP1 PUSH2 0x1CAA JUMP JUMPDEST PUSH1 0x40 MLOAD PUSH1 0x20 DUP2 DUP4 SUB SUB DUP2 MSTORE SWAP1 PUSH1 0x40 MSTORE JUMPDEST SWAP2 POP POP SWAP2 SWAP1 POP JUMP JUMPDEST PUSH1 0x0 PUSH1 0x5 PUSH1 0x0 DUP5 PUSH20 0xFFFFFFFFFFFFFFFFFFFFFFFFFFFFFFFFFFFFFFFF AND PUSH20 0xFFFFFFFFFFFFFFFFFFFFFFFFFFFFFFFFFFFFFFFF AND DUP2 MSTORE PUSH1 0x20 ADD SWAP1 DUP2 MSTORE PUSH1 0x20 ADD PUSH1 0x0 KECCAK256 PUSH1 0x0 DUP4 PUSH20 0xFFFFFFFFFFFFFFFFFFFFFFFFFFFFFFFFFFFFFFFF AND PUSH20 0xFFFFFFFFFFFFFFFFFFFFFFFFFFFFFFFFFFFFFFFF AND DUP2 MSTORE PUSH1 0x20 ADD SWAP1 DUP2 MSTORE PUSH1 0x20 ADD PUSH1 0x0 KECCAK256 PUSH1 0x0 SWAP1 SLOAD SWAP1 PUSH2 0x100 EXP SWAP1 DIV PUSH1 0xFF AND SWAP1 POP SWAP3 SWAP2 POP POP JUMP JUMPDEST PUSH1 0x0 PUSH32 0x1FFC9A700000000000000000000000000000000000000000000000000000000 PUSH28 0xFFFFFFFFFFFFFFFFFFFFFFFFFFFFFFFFFFFFFFFFFFFFFFFFFFFFFFFF NOT AND DUP3 PUSH28 0xFFFFFFFFFFFFFFFFFFFFFFFFFFFFFFFFFFFFFFFFFFFFFFFFFFFFFFFF NOT AND EQ SWAP1 POP SWAP2 SWAP1 POP JUMP JUMPDEST PUSH1 0x0 DUP1 PUSH20 0xFFFFFFFFFFFFFFFFFFFFFFFFFFFFFFFFFFFFFFFF AND PUSH1 0x2 PUSH1 0x0 DUP5 DUP2 MSTORE PUSH1 0x20 ADD SWAP1 DUP2 MSTORE PUSH1 0x20 ADD PUSH1 0x0 KECCAK256 PUSH1 0x0 SWAP1 SLOAD SWAP1 PUSH2 0x100 EXP SWAP1 DIV PUSH20 0xFFFFFFFFFFFFFFFFFFFFFFFFFFFFFFFFFFFFFFFF AND PUSH20 0xFFFFFFFFFFFFFFFFFFFFFFFFFFFFFFFFFFFFFFFF AND EQ ISZERO SWAP1 POP SWAP2 SWAP1 POP JUMP JUMPDEST PUSH1 0x0 CALLER SWAP1 POP SWAP1 JUMP JUMPDEST DUP2 PUSH1 0x4 PUSH1 0x0 DUP4 DUP2 MSTORE PUSH1 0x20 ADD SWAP1 DUP2 MSTORE PUSH1 0x20 ADD PUSH1 0x0 KECCAK256 PUSH1 0x0 PUSH2 0x100 EXP DUP2 SLOAD DUP2 PUSH20 0xFFFFFFFFFFFFFFFFFFFFFFFFFFFFFFFFFFFFFFFF MUL NOT AND SWAP1 DUP4 PUSH20 0xFFFFFFFFFFFFFFFFFFFFFFFFFFFFFFFFFFFFFFFF AND MUL OR SWAP1 SSTORE POP DUP1 DUP3 PUSH20 0xFFFFFFFFFFFFFFFFFFFFFFFFFFFFFFFFFFFFFFFF AND PUSH2 0xBAA DUP4 PUSH2 0x6AA JUMP JUMPDEST PUSH20 0xFFFFFFFFFFFFFFFFFFFFFFFFFFFFFFFFFFFFFFFF AND PUSH32 0x8C5BE1E5EBEC7D5BD14F71427D1E84F3DD0314C0F7B2291E5B200AC8C7C3B925 PUSH1 0x40 MLOAD PUSH1 0x40 MLOAD DUP1 SWAP2 SUB SWAP1 LOG4 POP POP JUMP JUMPDEST PUSH1 0x0 PUSH2 0xBFB DUP3 PUSH2 0xAC3 JUMP JUMPDEST PUSH2 0xC3A JUMPI PUSH1 0x40 MLOAD PUSH32 0x8C379A000000000000000000000000000000000000000000000000000000000 DUP2 MSTORE PUSH1 0x4 ADD PUSH2 0xC31 SWAP1 PUSH2 0x1E12 JUMP JUMPDEST PUSH1 0x40 MLOAD DUP1 SWAP2 SUB SWAP1 REVERT JUMPDEST PUSH1 0x0 PUSH2 0xC45 DUP4 PUSH2 0x6AA JUMP JUMPDEST SWAP1 POP DUP1 PUSH20 0xFFFFFFFFFFFFFFFFFFFFFFFFFFFFFFFFFFFFFFFF AND DUP5 PUSH20 0xFFFFFFFFFFFFFFFFFFFFFFFFFFFFFFFFFFFFFFFF AND EQ DUP1 PUSH2 0xCB4 JUMPI POP DUP4 PUSH20 0xFFFFFFFFFFFFFFFFFFFFFFFFFFFFFFFFFFFFFFFF AND PUSH2 0xC9C DUP5 PUSH2 0x467 JUMP JUMPDEST PUSH20 0xFFFFFFFFFFFFFFFFFFFFFFFFFFFFFFFFFFFFFFFF AND EQ JUMPDEST DUP1 PUSH2 0xCC5 JUMPI POP PUSH2 0xCC4 DUP2 DUP6 PUSH2 0x9C5 JUMP JUMPDEST JUMPDEST SWAP2 POP POP SWAP3 SWAP2 POP POP JUMP JUMPDEST DUP3 PUSH20 0xFFFFFFFFFFFFFFFFFFFFFFFFFFFFFFFFFFFFFFFF AND PUSH2 0xCEE DUP3 PUSH2 0x6AA JUMP JUMPDEST PUSH20 0xFFFFFFFFFFFFFFFFFFFFFFFFFFFFFFFFFFFFFFFF AND EQ PUSH2 0xD44 JUMPI PUSH1 0x40 MLOAD PUSH32 0x8C379A000000000000000000000000000000000000000000000000000000000 DUP2 MSTORE PUSH1 0x4 ADD PUSH2 0xD3B SWAP1 PUSH2 0x1D92 JUMP JUMPDEST PUSH1 0x40 MLOAD DUP1 SWAP2 SUB SWAP1 REVERT JUMPDEST PUSH1 0x0 PUSH20 0xFFFFFFFFFFFFFFFFFFFFFFFFFFFFFFFFFFFFFFFF AND DUP3 PUSH20 0xFFFFFFFFFFFFFFFFFFFFFFFFFFFFFFFFFFFFFFFF AND EQ ISZERO PUSH2 0xDB4 JUMPI PUSH1 0x40 MLOAD PUSH32 0x8C379A000000000000000000000000000000000000000000000000000000000 DUP2 MSTORE PUSH1 0x4 ADD PUSH2 0xDAB SWAP1 PUSH2 0x1DD2 JUMP JUMPDEST PUSH1 0x40 MLOAD DUP1 SWAP2 SUB SWAP1 REVERT JUMPDEST PUSH2 0xDBF DUP4 DUP4 DUP4 PUSH2 0x1304 JUMP JUMPDEST PUSH2 0xDCA PUSH1 0x0 DUP3 PUSH2 0xB37 JUMP JUMPDEST PUSH1 0x1 PUSH1 0x3 PUSH1 0x0 DUP6 PUSH20 0xFFFFFFFFFFFFFFFFFFFFFFFFFFFFFFFFFFFFFFFF AND PUSH20 0xFFFFFFFFFFFFFFFFFFFFFFFFFFFFFFFFFFFFFFFF AND DUP2 MSTORE PUSH1 0x20 ADD SWAP1 DUP2 MSTORE PUSH1 0x20 ADD PUSH1 0x0 KECCAK256 PUSH1 0x0 DUP3 DUP3 SLOAD PUSH2 0xE1A SWAP2 SWAP1 PUSH2 0x206D JUMP JUMPDEST SWAP3 POP POP DUP2 SWAP1 SSTORE POP PUSH1 0x1 PUSH1 0x3 PUSH1 0x0 DUP5 PUSH20 0xFFFFFFFFFFFFFFFFFFFFFFFFFFFFFFFFFFFFFFFF AND PUSH20 0xFFFFFFFFFFFFFFFFFFFFFFFFFFFFFFFFFFFFFFFF AND DUP2 MSTORE PUSH1 0x20 ADD SWAP1 DUP2 MSTORE PUSH1 0x20 ADD PUSH1 0x0 KECCAK256 PUSH1 0x0 DUP3 DUP3 SLOAD PUSH2 0xE71 SWAP2 SWAP1 PUSH2 0x1FE6 JUMP JUMPDEST SWAP3 POP POP DUP2 SWAP1 SSTORE POP DUP2 PUSH1 0x2 PUSH1 0x0 DUP4 DUP2 MSTORE PUSH1 0x20 ADD SWAP1 DUP2 MSTORE PUSH1 0x20 ADD PUSH1 0x0 KECCAK256 PUSH1 0x0 PUSH2 0x100 EXP DUP2 SLOAD DUP2 PUSH20 0xFFFFFFFFFFFFFFFFFFFFFFFFFFFFFFFFFFFFFFFF MUL NOT AND SWAP1 DUP4 PUSH20 0xFFFFFFFFFFFFFFFFFFFFFFFFFFFFFFFFFFFFFFFF AND MUL OR SWAP1 SSTORE POP DUP1 DUP3 PUSH20 0xFFFFFFFFFFFFFFFFFFFFFFFFFFFFFFFFFFFFFFFF AND DUP5 PUSH20 0xFFFFFFFFFFFFFFFFFFFFFFFFFFFFFFFFFFFFFFFF AND PUSH32 0xDDF252AD1BE2C89B69C2B068FC378DAA952BA7F163C4A11628F55A4DF523B3EF PUSH1 0x40 MLOAD PUSH1 0x40 MLOAD DUP1 SWAP2 SUB SWAP1 LOG4 PUSH2 0xF30 DUP4 DUP4 DUP4 PUSH2 0x1309 JUMP JUMPDEST POP POP POP JUMP JUMPDEST PUSH1 0x1 DUP2 PUSH1 0x0 ADD PUSH1 0x0 DUP3 DUP3 SLOAD ADD SWAP3 POP POP DUP2 SWAP1 SSTORE POP POP JUMP JUMPDEST PUSH1 0x0 DUP2 PUSH1 0x0 ADD SLOAD SWAP1 POP SWAP2 SWAP1 POP JUMP JUMPDEST PUSH2 0xF73 DUP3 DUP3 PUSH1 0x40 MLOAD DUP1 PUSH1 0x20 ADD PUSH1 0x40 MSTORE DUP1 PUSH1 0x0 DUP2 MSTORE POP PUSH2 0x130E JUMP JUMPDEST POP POP JUMP JUMPDEST DUP2 PUSH20 0xFFFFFFFFFFFFFFFFFFFFFFFFFFFFFFFFFFFFFFFF AND DUP4 PUSH20 0xFFFFFFFFFFFFFFFFFFFFFFFFFFFFFFFFFFFFFFFF AND EQ ISZERO PUSH2 0xFE6 JUMPI PUSH1 0x40 MLOAD PUSH32 0x8C379A000000000000000000000000000000000000000000000000000000000 DUP2 MSTORE PUSH1 0x4 ADD PUSH2 0xFDD SWAP1 PUSH2 0x1DF2 JUMP JUMPDEST PUSH1 0x40 MLOAD DUP1 SWAP2 SUB SWAP1 REVERT JUMPDEST DUP1 PUSH1 0x5 PUSH1 0x0 DUP6 PUSH20 0xFFFFFFFFFFFFFFFFFFFFFFFFFFFFFFFFFFFFFFFF AND PUSH20 0xFFFFFFFFFFFFFFFFFFFFFFFFFFFFFFFFFFFFFFFF AND DUP2 MSTORE PUSH1 0x20 ADD SWAP1 DUP2 MSTORE PUSH1 0x20 ADD PUSH1 0x0 KECCAK256 PUSH1 0x0 DUP5 PUSH20 0xFFFFFFFFFFFFFFFFFFFFFFFFFFFFFFFFFFFFFFFF AND PUSH20 0xFFFFFFFFFFFFFFFFFFFFFFFFFFFFFFFFFFFFFFFF AND DUP2 MSTORE PUSH1 0x20 ADD SWAP1 DUP2 MSTORE PUSH1 0x20 ADD PUSH1 0x0 KECCAK256 PUSH1 0x0 PUSH2 0x100 EXP DUP2 SLOAD DUP2 PUSH1 0xFF MUL NOT AND SWAP1 DUP4 ISZERO ISZERO MUL OR SWAP1 SSTORE POP DUP2 PUSH20 0xFFFFFFFFFFFFFFFFFFFFFFFFFFFFFFFFFFFFFFFF AND DUP4 PUSH20 0xFFFFFFFFFFFFFFFFFFFFFFFFFFFFFFFFFFFFFFFF AND PUSH32 0x17307EAB39AB6107E8899845AD3D59BD9653F200F220920489CA2B5937696C31 DUP4 PUSH1 0x40 MLOAD PUSH2 0x10D7 SWAP2 SWAP1 PUSH2 0x1D35 JUMP JUMPDEST PUSH1 0x40 MLOAD DUP1 SWAP2 SUB SWAP1 LOG3 POP POP POP JUMP JUMPDEST PUSH2 0x10EF DUP5 DUP5 DUP5 PUSH2 0xCCE JUMP JUMPDEST PUSH2 0x10FB DUP5 DUP5 DUP5 DUP5 PUSH2 0x1369 JUMP JUMPDEST PUSH2 0x113A JUMPI PUSH1 0x40 MLOAD PUSH32 0x8C379A000000000000000000000000000000000000000000000000000000000 DUP2 MSTORE PUSH1 0x4 ADD PUSH2 0x1131 SWAP1 PUSH2 0x1D72 JUMP JUMPDEST PUSH1 0x40 MLOAD DUP1 SWAP2 SUB SWAP1 REVERT JUMPDEST POP POP POP POP JUMP JUMPDEST PUSH1 0x60 PUSH1 0x40 MLOAD DUP1 PUSH1 0x20 ADD PUSH1 0x40 MSTORE DUP1 PUSH1 0x0 DUP2 MSTORE POP SWAP1 POP SWAP1 JUMP JUMPDEST PUSH1 0x60 PUSH1 0x0 DUP3 EQ ISZERO PUSH2 0x119F JUMPI PUSH1 0x40 MLOAD DUP1 PUSH1 0x40 ADD PUSH1 0x40 MSTORE DUP1 PUSH1 0x1 DUP2 MSTORE PUSH1 0x20 ADD PUSH32 0x3000000000000000000000000000000000000000000000000000000000000000 DUP2 MSTORE POP SWAP1 POP PUSH2 0x12FF JUMP JUMPDEST PUSH1 0x0 DUP3 SWAP1 POP PUSH1 0x0 JUMPDEST PUSH1 0x0 DUP3 EQ PUSH2 0x11D1 JUMPI DUP1 DUP1 PUSH2 0x11BA SWAP1 PUSH2 0x21BA JUMP JUMPDEST SWAP2 POP POP PUSH1 0xA DUP3 PUSH2 0x11CA SWAP2 SWAP1 PUSH2 0x203C JUMP JUMPDEST SWAP2 POP PUSH2 0x11A7 JUMP JUMPDEST PUSH1 0x0 DUP2 PUSH8 0xFFFFFFFFFFFFFFFF DUP2 GT ISZERO PUSH2 0x1213 JUMPI PUSH32 0x4E487B7100000000000000000000000000000000000000000000000000000000 PUSH1 0x0 MSTORE PUSH1 0x41 PUSH1 0x4 MSTORE PUSH1 0x24 PUSH1 0x0 REVERT JUMPDEST PUSH1 0x40 MLOAD SWAP1 DUP1 DUP3 MSTORE DUP1 PUSH1 0x1F ADD PUSH1 0x1F NOT AND PUSH1 0x20 ADD DUP3 ADD PUSH1 0x40 MSTORE DUP1 ISZERO PUSH2 0x1245 JUMPI DUP2 PUSH1 0x20 ADD PUSH1 0x1 DUP3 MUL DUP1 CALLDATASIZE DUP4 CALLDATACOPY DUP1 DUP3 ADD SWAP2 POP POP SWAP1 POP JUMPDEST POP SWAP1 POP JUMPDEST PUSH1 0x0 DUP6 EQ PUSH2 0x12F8 JUMPI PUSH1 0x1 DUP3 PUSH2 0x125E SWAP2 SWAP1 PUSH2 0x206D JUMP JUMPDEST SWAP2 POP PUSH1 0xA DUP6 PUSH2 0x126D SWAP2 SWAP1 PUSH2 0x2203 JUMP JUMPDEST PUSH1 0x30 PUSH2 0x1279 SWAP2 SWAP1 PUSH2 0x1FE6 JUMP JUMPDEST PUSH1 0xF8 SHL DUP2 DUP4 DUP2 MLOAD DUP2 LT PUSH2 0x12B5 JUMPI PUSH32 0x4E487B7100000000000000000000000000000000000000000000000000000000 PUSH1 0x0 MSTORE PUSH1 0x32 PUSH1 0x4 MSTORE PUSH1 0x24 PUSH1 0x0 REVERT JUMPDEST PUSH1 0x20 ADD ADD SWAP1 PUSH31 0xFFFFFFFFFFFFFFFFFFFFFFFFFFFFFFFFFFFFFFFFFFFFFFFFFFFFFFFFFFFFFF NOT AND SWAP1 DUP2 PUSH1 0x0 BYTE SWAP1 MSTORE8 POP PUSH1 0xA DUP6 PUSH2 0x12F1 SWAP2 SWAP1 PUSH2 0x203C JUMP JUMPDEST SWAP5 POP PUSH2 0x1249 JUMP JUMPDEST DUP1 SWAP4 POP POP POP POP JUMPDEST SWAP2 SWAP1 POP JUMP JUMPDEST POP POP POP JUMP JUMPDEST POP POP POP JUMP JUMPDEST PUSH2 0x1318 DUP4 DUP4 PUSH2 0x1500 JUMP JUMPDEST PUSH2 0x1325 PUSH1 0x0 DUP5 DUP5 DUP5 PUSH2 0x1369 JUMP JUMPDEST PUSH2 0x1364 JUMPI PUSH1 0x40 MLOAD PUSH32 0x8C379A000000000000000000000000000000000000000000000000000000000 DUP2 MSTORE PUSH1 0x4 ADD PUSH2 0x135B SWAP1 PUSH2 0x1D72 JUMP JUMPDEST PUSH1 0x40 MLOAD DUP1 SWAP2 SUB SWAP1 REVERT JUMPDEST POP POP POP JUMP JUMPDEST PUSH1 0x0 PUSH2 0x138A DUP5 PUSH20 0xFFFFFFFFFFFFFFFFFFFFFFFFFFFFFFFFFFFFFFFF AND PUSH2 0x16DA JUMP JUMPDEST ISZERO PUSH2 0x14F3 JUMPI DUP4 PUSH20 0xFFFFFFFFFFFFFFFFFFFFFFFFFFFFFFFFFFFFFFFF AND PUSH4 0x150B7A02 PUSH2 0x13B3 PUSH2 0xB2F JUMP JUMPDEST DUP8 DUP7 DUP7 PUSH1 0x40 MLOAD DUP6 PUSH4 0xFFFFFFFF AND PUSH1 0xE0 SHL DUP2 MSTORE PUSH1 0x4 ADD PUSH2 0x13D5 SWAP5 SWAP4 SWAP3 SWAP2 SWAP1 PUSH2 0x1CE9 JUMP JUMPDEST PUSH1 0x20 PUSH1 0x40 MLOAD DUP1 DUP4 SUB DUP2 PUSH1 0x0 DUP8 DUP1 EXTCODESIZE ISZERO DUP1 ISZERO PUSH2 0x13EF JUMPI PUSH1 0x0 DUP1 REVERT JUMPDEST POP GAS CALL SWAP3 POP POP POP DUP1 ISZERO PUSH2 0x1420 JUMPI POP PUSH1 0x40 MLOAD RETURNDATASIZE PUSH1 0x1F NOT PUSH1 0x1F DUP3 ADD AND DUP3 ADD DUP1 PUSH1 0x40 MSTORE POP DUP2 ADD SWAP1 PUSH2 0x141D SWAP2 SWAP1 PUSH2 0x199E JUMP JUMPDEST PUSH1 0x1 JUMPDEST PUSH2 0x14A3 JUMPI RETURNDATASIZE DUP1 PUSH1 0x0 DUP2 EQ PUSH2 0x1450 JUMPI PUSH1 0x40 MLOAD SWAP2 POP PUSH1 0x1F NOT PUSH1 0x3F RETURNDATASIZE ADD AND DUP3 ADD PUSH1 0x40 MSTORE RETURNDATASIZE DUP3 MSTORE RETURNDATASIZE PUSH1 0x0 PUSH1 0x20 DUP5 ADD RETURNDATACOPY PUSH2 0x1455 JUMP JUMPDEST PUSH1 0x60 SWAP2 POP JUMPDEST POP PUSH1 0x0 DUP2 MLOAD EQ ISZERO PUSH2 0x149B JUMPI PUSH1 0x40 MLOAD PUSH32 0x8C379A000000000000000000000000000000000000000000000000000000000 DUP2 MSTORE PUSH1 0x4 ADD PUSH2 0x1492 SWAP1 PUSH2 0x1D72 JUMP JUMPDEST PUSH1 0x40 MLOAD DUP1 SWAP2 SUB SWAP1 REVERT JUMPDEST DUP1 MLOAD DUP2 PUSH1 0x20 ADD REVERT JUMPDEST PUSH4 0x150B7A02 PUSH1 0xE0 SHL PUSH28 0xFFFFFFFFFFFFFFFFFFFFFFFFFFFFFFFFFFFFFFFFFFFFFFFFFFFFFFFF NOT AND DUP2 PUSH28 0xFFFFFFFFFFFFFFFFFFFFFFFFFFFFFFFFFFFFFFFFFFFFFFFFFFFFFFFF NOT AND EQ SWAP2 POP POP PUSH2 0x14F8 JUMP JUMPDEST PUSH1 0x1 SWAP1 POP JUMPDEST SWAP5 SWAP4 POP POP POP POP JUMP JUMPDEST PUSH1 0x0 PUSH20 0xFFFFFFFFFFFFFFFFFFFFFFFFFFFFFFFFFFFFFFFF AND DUP3 PUSH20 0xFFFFFFFFFFFFFFFFFFFFFFFFFFFFFFFFFFFFFFFF AND EQ ISZERO PUSH2 0x1570 JUMPI PUSH1 0x40 MLOAD PUSH32 0x8C379A000000000000000000000000000000000000000000000000000000000 DUP2 MSTORE PUSH1 0x4 ADD PUSH2 0x1567 SWAP1 PUSH2 0x1E92 JUMP JUMPDEST PUSH1 0x40 MLOAD DUP1 SWAP2 SUB SWAP1 REVERT JUMPDEST PUSH2 0x1579 DUP2 PUSH2 0xAC3 JUMP JUMPDEST ISZERO PUSH2 0x15B9 JUMPI PUSH1 0x40 MLOAD PUSH32 0x8C379A000000000000000000000000000000000000000000000000000000000 DUP2 MSTORE PUSH1 0x4 ADD PUSH2 0x15B0 SWAP1 PUSH2 0x1DB2 JUMP JUMPDEST PUSH1 0x40 MLOAD DUP1 SWAP2 SUB SWAP1 REVERT JUMPDEST PUSH2 0x15C5 PUSH1 0x0 DUP4 DUP4 PUSH2 0x1304 JUMP JUMPDEST PUSH1 0x1 PUSH1 0x3 PUSH1 0x0 DUP5 PUSH20 0xFFFFFFFFFFFFFFFFFFFFFFFFFFFFFFFFFFFFFFFF AND PUSH20 0xFFFFFFFFFFFFFFFFFFFFFFFFFFFFFFFFFFFFFFFF AND DUP2 MSTORE PUSH1 0x20 ADD SWAP1 DUP2 MSTORE PUSH1 0x20 ADD PUSH1 0x0 KECCAK256 PUSH1 0x0 DUP3 DUP3 SLOAD PUSH2 0x1615 SWAP2 SWAP1 PUSH2 0x1FE6 JUMP JUMPDEST SWAP3 POP POP DUP2 SWAP1 SSTORE POP DUP2 PUSH1 0x2 PUSH1 0x0 DUP4 DUP2 MSTORE PUSH1 0x20 ADD SWAP1 DUP2 MSTORE PUSH1 0x20 ADD PUSH1 0x0 KECCAK256 PUSH1 0x0 PUSH2 0x100 EXP DUP2 SLOAD DUP2 PUSH20 0xFFFFFFFFFFFFFFFFFFFFFFFFFFFFFFFFFFFFFFFF MUL NOT AND SWAP1 DUP4 PUSH20 0xFFFFFFFFFFFFFFFFFFFFFFFFFFFFFFFFFFFFFFFF AND MUL OR SWAP1 SSTORE POP DUP1 DUP3 PUSH20 0xFFFFFFFFFFFFFFFFFFFFFFFFFFFFFFFFFFFFFFFF AND PUSH1 0x0 PUSH20 0xFFFFFFFFFFFFFFFFFFFFFFFFFFFFFFFFFFFFFFFF AND PUSH32 0xDDF252AD1BE2C89B69C2B068FC378DAA952BA7F163C4A11628F55A4DF523B3EF PUSH1 0x40 MLOAD PUSH1 0x40 MLOAD DUP1 SWAP2 SUB SWAP1 LOG4 PUSH2 0x16D6 PUSH1 0x0 DUP4 DUP4 PUSH2 0x1309 JUMP JUMPDEST POP POP JUMP JUMPDEST PUSH1 0x0 DUP1 DUP3 PUSH20 0xFFFFFFFFFFFFFFFFFFFFFFFFFFFFFFFFFFFFFFFF AND EXTCODESIZE GT SWAP1 POP SWAP2 SWAP1 POP JUMP JUMPDEST PUSH1 0x0 PUSH2 0x1710 PUSH2 0x170B DUP5 PUSH2 0x1F72 JUMP JUMPDEST PUSH2 0x1F4D JUMP JUMPDEST SWAP1 POP DUP3 DUP2 MSTORE PUSH1 0x20 DUP2 ADD DUP5 DUP5 DUP5 ADD GT ISZERO PUSH2 0x1728 JUMPI PUSH1 0x0 DUP1 REVERT JUMPDEST PUSH2 0x1733 DUP5 DUP3 DUP6 PUSH2 0x2115 JUMP JUMPDEST POP SWAP4 SWAP3 POP POP POP JUMP JUMPDEST PUSH1 0x0 DUP2 CALLDATALOAD SWAP1 POP PUSH2 0x174A DUP2 PUSH2 0x26E1 JUMP JUMPDEST SWAP3 SWAP2 POP POP JUMP JUMPDEST PUSH1 0x0 DUP2 CALLDATALOAD SWAP1 POP PUSH2 0x175F DUP2 PUSH2 0x26F8 JUMP JUMPDEST SWAP3 SWAP2 POP POP JUMP JUMPDEST PUSH1 0x0 DUP2 CALLDATALOAD SWAP1 POP PUSH2 0x1774 DUP2 PUSH2 0x270F JUMP JUMPDEST SWAP3 SWAP2 POP POP JUMP JUMPDEST PUSH1 0x0 DUP2 MLOAD SWAP1 POP PUSH2 0x1789 DUP2 PUSH2 0x270F JUMP JUMPDEST SWAP3 SWAP2 POP POP JUMP JUMPDEST PUSH1 0x0 DUP3 PUSH1 0x1F DUP4 ADD SLT PUSH2 0x17A0 JUMPI PUSH1 0x0 DUP1 REVERT JUMPDEST DUP2 CALLDATALOAD PUSH2 0x17B0 DUP5 DUP3 PUSH1 0x20 DUP7 ADD PUSH2 0x16FD JUMP JUMPDEST SWAP2 POP POP SWAP3 SWAP2 POP POP JUMP JUMPDEST PUSH1 0x0 DUP2 CALLDATALOAD SWAP1 POP PUSH2 0x17C8 DUP2 PUSH2 0x2726 JUMP JUMPDEST SWAP3 SWAP2 POP POP JUMP JUMPDEST PUSH1 0x0 PUSH1 0x20 DUP3 DUP5 SUB SLT ISZERO PUSH2 0x17E0 JUMPI PUSH1 0x0 DUP1 REVERT JUMPDEST PUSH1 0x0 PUSH2 0x17EE DUP5 DUP3 DUP6 ADD PUSH2 0x173B JUMP JUMPDEST SWAP2 POP POP SWAP3 SWAP2 POP POP JUMP JUMPDEST PUSH1 0x0 DUP1 PUSH1 0x40 DUP4 DUP6 SUB SLT ISZERO PUSH2 0x180A JUMPI PUSH1 0x0 DUP1 REVERT JUMPDEST PUSH1 0x0 PUSH2 0x1818 DUP6 DUP3 DUP7 ADD PUSH2 0x173B JUMP JUMPDEST SWAP3 POP POP PUSH1 0x20 PUSH2 0x1829 DUP6 DUP3 DUP7 ADD PUSH2 0x173B JUMP JUMPDEST SWAP2 POP POP SWAP3 POP SWAP3 SWAP1 POP JUMP JUMPDEST PUSH1 0x0 DUP1 PUSH1 0x0 PUSH1 0x60 DUP5 DUP7 SUB SLT ISZERO PUSH2 0x1848 JUMPI PUSH1 0x0 DUP1 REVERT JUMPDEST PUSH1 0x0 PUSH2 0x1856 DUP7 DUP3 DUP8 ADD PUSH2 0x173B JUMP JUMPDEST SWAP4 POP POP PUSH1 0x20 PUSH2 0x1867 DUP7 DUP3 DUP8 ADD PUSH2 0x173B JUMP JUMPDEST SWAP3 POP POP PUSH1 0x40 PUSH2 0x1878 DUP7 DUP3 DUP8 ADD PUSH2 0x17B9 JUMP JUMPDEST SWAP2 POP POP SWAP3 POP SWAP3 POP SWAP3 JUMP JUMPDEST PUSH1 0x0 DUP1 PUSH1 0x0 DUP1 PUSH1 0x80 DUP6 DUP8 SUB SLT ISZERO PUSH2 0x1898 JUMPI PUSH1 0x0 DUP1 REVERT JUMPDEST PUSH1 0x0 PUSH2 0x18A6 DUP8 DUP3 DUP9 ADD PUSH2 0x173B JUMP JUMPDEST SWAP5 POP POP PUSH1 0x20 PUSH2 0x18B7 DUP8 DUP3 DUP9 ADD PUSH2 0x173B JUMP JUMPDEST SWAP4 POP POP PUSH1 0x40 PUSH2 0x18C8 DUP8 DUP3 DUP9 ADD PUSH2 0x17B9 JUMP JUMPDEST SWAP3 POP POP PUSH1 0x60 DUP6 ADD CALLDATALOAD PUSH8 0xFFFFFFFFFFFFFFFF DUP2 GT ISZERO PUSH2 0x18E5 JUMPI PUSH1 0x0 DUP1 REVERT JUMPDEST PUSH2 0x18F1 DUP8 DUP3 DUP9 ADD PUSH2 0x178F JUMP JUMPDEST SWAP2 POP POP SWAP3 SWAP6 SWAP2 SWAP5 POP SWAP3 POP JUMP JUMPDEST PUSH1 0x0 DUP1 PUSH1 0x40 DUP4 DUP6 SUB SLT ISZERO PUSH2 0x1910 JUMPI PUSH1 0x0 DUP1 REVERT JUMPDEST PUSH1 0x0 PUSH2 0x191E DUP6 DUP3 DUP7 ADD PUSH2 0x173B JUMP JUMPDEST SWAP3 POP POP PUSH1 0x20 PUSH2 0x192F DUP6 DUP3 DUP7 ADD PUSH2 0x1750 JUMP JUMPDEST SWAP2 POP POP SWAP3 POP SWAP3 SWAP1 POP JUMP JUMPDEST PUSH1 0x0 DUP1 PUSH1 0x40 DUP4 DUP6 SUB SLT ISZERO PUSH2 0x194C JUMPI PUSH1 0x0 DUP1 REVERT JUMPDEST PUSH1 0x0 PUSH2 0x195A DUP6 DUP3 DUP7 ADD PUSH2 0x173B JUMP JUMPDEST SWAP3 POP POP PUSH1 0x20 PUSH2 0x196B DUP6 DUP3 DUP7 ADD PUSH2 0x17B9 JUMP JUMPDEST SWAP2 POP POP SWAP3 POP SWAP3 SWAP1 POP JUMP JUMPDEST PUSH1 0x0 PUSH1 0x20 DUP3 DUP5 SUB SLT ISZERO PUSH2 0x1987 JUMPI PUSH1 0x0 DUP1 REVERT JUMPDEST PUSH1 0x0 PUSH2 0x1995 DUP5 DUP3 DUP6 ADD PUSH2 0x1765 JUMP JUMPDEST SWAP2 POP POP SWAP3 SWAP2 POP POP JUMP JUMPDEST PUSH1 0x0 PUSH1 0x20 DUP3 DUP5 SUB SLT ISZERO PUSH2 0x19B0 JUMPI PUSH1 0x0 DUP1 REVERT JUMPDEST PUSH1 0x0 PUSH2 0x19BE DUP5 DUP3 DUP6 ADD PUSH2 0x177A JUMP JUMPDEST SWAP2 POP POP SWAP3 SWAP2 POP POP JUMP JUMPDEST PUSH1 0x0 PUSH1 0x20 DUP3 DUP5 SUB SLT ISZERO PUSH2 0x19D9 JUMPI PUSH1 0x0 DUP1 REVERT JUMPDEST PUSH1 0x0 PUSH2 0x19E7 DUP5 DUP3 DUP6 ADD PUSH2 0x17B9 JUMP JUMPDEST SWAP2 POP POP SWAP3 SWAP2 POP POP JUMP JUMPDEST PUSH2 0x19F9 DUP2 PUSH2 0x20A1 JUMP JUMPDEST DUP3 MSTORE POP POP JUMP JUMPDEST PUSH2 0x1A08 DUP2 PUSH2 0x20B3 JUMP JUMPDEST DUP3 MSTORE POP POP JUMP JUMPDEST PUSH1 0x0 PUSH2 0x1A19 DUP3 PUSH2 0x1FA3 JUMP JUMPDEST PUSH2 0x1A23 DUP2 DUP6 PUSH2 0x1FB9 JUMP JUMPDEST SWAP4 POP PUSH2 0x1A33 DUP2 DUP6 PUSH1 0x20 DUP7 ADD PUSH2 0x2124 JUMP JUMPDEST PUSH2 0x1A3C DUP2 PUSH2 0x22F0 JUMP JUMPDEST DUP5 ADD SWAP2 POP POP SWAP3 SWAP2 POP POP JUMP JUMPDEST PUSH1 0x0 PUSH2 0x1A52 DUP3 PUSH2 0x1FAE JUMP JUMPDEST PUSH2 0x1A5C DUP2 DUP6 PUSH2 0x1FCA JUMP JUMPDEST SWAP4 POP PUSH2 0x1A6C DUP2 DUP6 PUSH1 0x20 DUP7 ADD PUSH2 0x2124 JUMP JUMPDEST PUSH2 0x1A75 DUP2 PUSH2 0x22F0 JUMP JUMPDEST DUP5 ADD SWAP2 POP POP SWAP3 SWAP2 POP POP JUMP JUMPDEST PUSH1 0x0 PUSH2 0x1A8B DUP3 PUSH2 0x1FAE JUMP JUMPDEST PUSH2 0x1A95 DUP2 DUP6 PUSH2 0x1FDB JUMP JUMPDEST SWAP4 POP PUSH2 0x1AA5 DUP2 DUP6 PUSH1 0x20 DUP7 ADD PUSH2 0x2124 JUMP JUMPDEST DUP1 DUP5 ADD SWAP2 POP POP SWAP3 SWAP2 POP POP JUMP JUMPDEST PUSH1 0x0 PUSH2 0x1ABE PUSH1 0x32 DUP4 PUSH2 0x1FCA JUMP JUMPDEST SWAP2 POP PUSH2 0x1AC9 DUP3 PUSH2 0x2301 JUMP JUMPDEST PUSH1 0x40 DUP3 ADD SWAP1 POP SWAP2 SWAP1 POP JUMP JUMPDEST PUSH1 0x0 PUSH2 0x1AE1 PUSH1 0x25 DUP4 PUSH2 0x1FCA JUMP JUMPDEST SWAP2 POP PUSH2 0x1AEC DUP3 PUSH2 0x2350 JUMP JUMPDEST PUSH1 0x40 DUP3 ADD SWAP1 POP SWAP2 SWAP1 POP JUMP JUMPDEST PUSH1 0x0 PUSH2 0x1B04 PUSH1 0x1C DUP4 PUSH2 0x1FCA JUMP JUMPDEST SWAP2 POP PUSH2 0x1B0F DUP3 PUSH2 0x239F JUMP JUMPDEST PUSH1 0x20 DUP3 ADD SWAP1 POP SWAP2 SWAP1 POP JUMP JUMPDEST PUSH1 0x0 PUSH2 0x1B27 PUSH1 0x24 DUP4 PUSH2 0x1FCA JUMP JUMPDEST SWAP2 POP PUSH2 0x1B32 DUP3 PUSH2 0x23C8 JUMP JUMPDEST PUSH1 0x40 DUP3 ADD SWAP1 POP SWAP2 SWAP1 POP JUMP JUMPDEST PUSH1 0x0 PUSH2 0x1B4A PUSH1 0x19 DUP4 PUSH2 0x1FCA JUMP JUMPDEST SWAP2 POP PUSH2 0x1B55 DUP3 PUSH2 0x2417 JUMP JUMPDEST PUSH1 0x20 DUP3 ADD SWAP1 POP SWAP2 SWAP1 POP JUMP JUMPDEST PUSH1 0x0 PUSH2 0x1B6D PUSH1 0x2C DUP4 PUSH2 0x1FCA JUMP JUMPDEST SWAP2 POP PUSH2 0x1B78 DUP3 PUSH2 0x2440 JUMP JUMPDEST PUSH1 0x40 DUP3 ADD SWAP1 POP SWAP2 SWAP1 POP JUMP JUMPDEST PUSH1 0x0 PUSH2 0x1B90 PUSH1 0x38 DUP4 PUSH2 0x1FCA JUMP JUMPDEST SWAP2 POP PUSH2 0x1B9B DUP3 PUSH2 0x248F JUMP JUMPDEST PUSH1 0x40 DUP3 ADD SWAP1 POP SWAP2 SWAP1 POP JUMP JUMPDEST PUSH1 0x0 PUSH2 0x1BB3 PUSH1 0x2A DUP4 PUSH2 0x1FCA JUMP JUMPDEST SWAP2 POP PUSH2 0x1BBE DUP3 PUSH2 0x24DE JUMP JUMPDEST PUSH1 0x40 DUP3 ADD SWAP1 POP SWAP2 SWAP1 POP JUMP JUMPDEST PUSH1 0x0 PUSH2 0x1BD6 PUSH1 0x29 DUP4 PUSH2 0x1FCA JUMP JUMPDEST SWAP2 POP PUSH2 0x1BE1 DUP3 PUSH2 0x252D JUMP JUMPDEST PUSH1 0x40 DUP3 ADD SWAP1 POP SWAP2 SWAP1 POP JUMP JUMPDEST PUSH1 0x0 PUSH2 0x1BF9 PUSH1 0x20 DUP4 PUSH2 0x1FCA JUMP JUMPDEST SWAP2 POP PUSH2 0x1C04 DUP3 PUSH2 0x257C JUMP JUMPDEST PUSH1 0x20 DUP3 ADD SWAP1 POP SWAP2 SWAP1 POP JUMP JUMPDEST PUSH1 0x0 PUSH2 0x1C1C PUSH1 0x2C DUP4 PUSH2 0x1FCA JUMP JUMPDEST SWAP2 POP PUSH2 0x1C27 DUP3 PUSH2 0x25A5 JUMP JUMPDEST PUSH1 0x40 DUP3 ADD SWAP1 POP SWAP2 SWAP1 POP JUMP JUMPDEST PUSH1 0x0 PUSH2 0x1C3F PUSH1 0x2F DUP4 PUSH2 0x1FCA JUMP JUMPDEST SWAP2 POP PUSH2 0x1C4A DUP3 PUSH2 0x25F4 JUMP JUMPDEST PUSH1 0x40 DUP3 ADD SWAP1 POP SWAP2 SWAP1 POP JUMP JUMPDEST PUSH1 0x0 PUSH2 0x1C62 PUSH1 0x21 DUP4 PUSH2 0x1FCA JUMP JUMPDEST SWAP2 POP PUSH2 0x1C6D DUP3 PUSH2 0x2643 JUMP JUMPDEST PUSH1 0x40 DUP3 ADD SWAP1 POP SWAP2 SWAP1 POP JUMP JUMPDEST PUSH1 0x0 PUSH2 0x1C85 PUSH1 0x31 DUP4 PUSH2 0x1FCA JUMP JUMPDEST SWAP2 POP PUSH2 0x1C90 DUP3 PUSH2 0x2692 JUMP JUMPDEST PUSH1 0x40 DUP3 ADD SWAP1 POP SWAP2 SWAP1 POP JUMP JUMPDEST PUSH2 0x1CA4 DUP2 PUSH2 0x210B JUMP JUMPDEST DUP3 MSTORE POP POP JUMP JUMPDEST PUSH1 0x0 PUSH2 0x1CB6 DUP3 DUP6 PUSH2 0x1A80 JUMP JUMPDEST SWAP2 POP PUSH2 0x1CC2 DUP3 DUP5 PUSH2 0x1A80 JUMP JUMPDEST SWAP2 POP DUP2 SWAP1 POP SWAP4 SWAP3 POP POP POP JUMP JUMPDEST PUSH1 0x0 PUSH1 0x20 DUP3 ADD SWAP1 POP PUSH2 0x1CE3 PUSH1 0x0 DUP4 ADD DUP5 PUSH2 0x19F0 JUMP JUMPDEST SWAP3 SWAP2 POP POP JUMP JUMPDEST PUSH1 0x0 PUSH1 0x80 DUP3 ADD SWAP1 POP PUSH2 0x1CFE PUSH1 0x0 DUP4 ADD DUP8 PUSH2 0x19F0 JUMP JUMPDEST PUSH2 0x1D0B PUSH1 0x20 DUP4 ADD DUP7 PUSH2 0x19F0 JUMP JUMPDEST PUSH2 0x1D18 PUSH1 0x40 DUP4 ADD DUP6 PUSH2 0x1C9B JUMP JUMPDEST DUP2 DUP2 SUB PUSH1 0x60 DUP4 ADD MSTORE PUSH2 0x1D2A DUP2 DUP5 PUSH2 0x1A0E JUMP JUMPDEST SWAP1 POP SWAP6 SWAP5 POP POP POP POP POP JUMP JUMPDEST PUSH1 0x0 PUSH1 0x20 DUP3 ADD SWAP1 POP PUSH2 0x1D4A PUSH1 0x0 DUP4 ADD DUP5 PUSH2 0x19FF JUMP JUMPDEST SWAP3 SWAP2 POP POP JUMP JUMPDEST PUSH1 0x0 PUSH1 0x20 DUP3 ADD SWAP1 POP DUP2 DUP2 SUB PUSH1 0x0 DUP4 ADD MSTORE PUSH2 0x1D6A DUP2 DUP5 PUSH2 0x1A47 JUMP JUMPDEST SWAP1 POP SWAP3 SWAP2 POP POP JUMP JUMPDEST PUSH1 0x0 PUSH1 0x20 DUP3 ADD SWAP1 POP DUP2 DUP2 SUB PUSH1 0x0 DUP4 ADD MSTORE PUSH2 0x1D8B DUP2 PUSH2 0x1AB1 JUMP JUMPDEST SWAP1 POP SWAP2 SWAP1 POP JUMP JUMPDEST PUSH1 0x0 PUSH1 0x20 DUP3 ADD SWAP1 POP DUP2 DUP2 SUB PUSH1 0x0 DUP4 ADD MSTORE PUSH2 0x1DAB DUP2 PUSH2 0x1AD4 JUMP JUMPDEST SWAP1 POP SWAP2 SWAP1 POP JUMP JUMPDEST PUSH1 0x0 PUSH1 0x20 DUP3 ADD SWAP1 POP DUP2 DUP2 SUB PUSH1 0x0 DUP4 ADD MSTORE PUSH2 0x1DCB DUP2 PUSH2 0x1AF7 JUMP JUMPDEST SWAP1 POP SWAP2 SWAP1 POP JUMP JUMPDEST PUSH1 0x0 PUSH1 0x20 DUP3 ADD SWAP1 POP DUP2 DUP2 SUB PUSH1 0x0 DUP4 ADD MSTORE PUSH2 0x1DEB DUP2 PUSH2 0x1B1A JUMP JUMPDEST SWAP1 POP SWAP2 SWAP1 POP JUMP JUMPDEST PUSH1 0x0 PUSH1 0x20 DUP3 ADD SWAP1 POP DUP2 DUP2 SUB PUSH1 0x0 DUP4 ADD MSTORE PUSH2 0x1E0B DUP2 PUSH2 0x1B3D JUMP JUMPDEST SWAP1 POP SWAP2 SWAP1 POP JUMP JUMPDEST PUSH1 0x0 PUSH1 0x20 DUP3 ADD SWAP1 POP DUP2 DUP2 SUB PUSH1 0x0 DUP4 ADD MSTORE PUSH2 0x1E2B DUP2 PUSH2 0x1B60 JUMP JUMPDEST SWAP1 POP SWAP2 SWAP1 POP JUMP JUMPDEST PUSH1 0x0 PUSH1 0x20 DUP3 ADD SWAP1 POP DUP2 DUP2 SUB PUSH1 0x0 DUP4 ADD MSTORE PUSH2 0x1E4B DUP2 PUSH2 0x1B83 JUMP JUMPDEST SWAP1 POP SWAP2 SWAP1 POP JUMP JUMPDEST PUSH1 0x0 PUSH1 0x20 DUP3 ADD SWAP1 POP DUP2 DUP2 SUB PUSH1 0x0 DUP4 ADD MSTORE PUSH2 0x1E6B DUP2 PUSH2 0x1BA6 JUMP JUMPDEST SWAP1 POP SWAP2 SWAP1 POP JUMP JUMPDEST PUSH1 0x0 PUSH1 0x20 DUP3 ADD SWAP1 POP DUP2 DUP2 SUB PUSH1 0x0 DUP4 ADD MSTORE PUSH2 0x1E8B DUP2 PUSH2 0x1BC9 JUMP JUMPDEST SWAP1 POP SWAP2 SWAP1 POP JUMP JUMPDEST PUSH1 0x0 PUSH1 0x20 DUP3 ADD SWAP1 POP DUP2 DUP2 SUB PUSH1 0x0 DUP4 ADD MSTORE PUSH2 0x1EAB DUP2 PUSH2 0x1BEC JUMP JUMPDEST SWAP1 POP SWAP2 SWAP1 POP JUMP JUMPDEST PUSH1 0x0 PUSH1 0x20 DUP3 ADD SWAP1 POP DUP2 DUP2 SUB PUSH1 0x0 DUP4 ADD MSTORE PUSH2 0x1ECB DUP2 PUSH2 0x1C0F JUMP JUMPDEST SWAP1 POP SWAP2 SWAP1 POP JUMP JUMPDEST PUSH1 0x0 PUSH1 0x20 DUP3 ADD SWAP1 POP DUP2 DUP2 SUB PUSH1 0x0 DUP4 ADD MSTORE PUSH2 0x1EEB DUP2 PUSH2 0x1C32 JUMP JUMPDEST SWAP1 POP SWAP2 SWAP1 POP JUMP JUMPDEST PUSH1 0x0 PUSH1 0x20 DUP3 ADD SWAP1 POP DUP2 DUP2 SUB PUSH1 0x0 DUP4 ADD MSTORE PUSH2 0x1F0B DUP2 PUSH2 0x1C55 JUMP JUMPDEST SWAP1 POP SWAP2 SWAP1 POP JUMP JUMPDEST PUSH1 0x0 PUSH1 0x20 DUP3 ADD SWAP1 POP DUP2 DUP2 SUB PUSH1 0x0 DUP4 ADD MSTORE PUSH2 0x1F2B DUP2 PUSH2 0x1C78 JUMP JUMPDEST SWAP1 POP SWAP2 SWAP1 POP JUMP JUMPDEST PUSH1 0x0 PUSH1 0x20 DUP3 ADD SWAP1 POP PUSH2 0x1F47 PUSH1 0x0 DUP4 ADD DUP5 PUSH2 0x1C9B JUMP JUMPDEST SWAP3 SWAP2 POP POP JUMP JUMPDEST PUSH1 0x0 PUSH2 0x1F57 PUSH2 0x1F68 JUMP JUMPDEST SWAP1 POP PUSH2 0x1F63 DUP3 DUP3 PUSH2 0x2189 JUMP JUMPDEST SWAP2 SWAP1 POP JUMP JUMPDEST PUSH1 0x0 PUSH1 0x40 MLOAD SWAP1 POP SWAP1 JUMP JUMPDEST PUSH1 0x0 PUSH8 0xFFFFFFFFFFFFFFFF DUP3 GT ISZERO PUSH2 0x1F8D JUMPI PUSH2 0x1F8C PUSH2 0x22C1 JUMP JUMPDEST JUMPDEST PUSH2 0x1F96 DUP3 PUSH2 0x22F0 JUMP JUMPDEST SWAP1 POP PUSH1 0x20 DUP2 ADD SWAP1 POP SWAP2 SWAP1 POP JUMP JUMPDEST PUSH1 0x0 DUP2 MLOAD SWAP1 POP SWAP2 SWAP1 POP JUMP JUMPDEST PUSH1 0x0 DUP2 MLOAD SWAP1 POP SWAP2 SWAP1 POP JUMP JUMPDEST PUSH1 0x0 DUP3 DUP3 MSTORE PUSH1 0x20 DUP3 ADD SWAP1 POP SWAP3 SWAP2 POP POP JUMP JUMPDEST PUSH1 0x0 DUP3 DUP3 MSTORE PUSH1 0x20 DUP3 ADD SWAP1 POP SWAP3 SWAP2 POP POP JUMP JUMPDEST PUSH1 0x0 DUP2 SWAP1 POP SWAP3 SWAP2 POP POP JUMP JUMPDEST PUSH1 0x0 PUSH2 0x1FF1 DUP3 PUSH2 0x210B JUMP JUMPDEST SWAP2 POP PUSH2 0x1FFC DUP4 PUSH2 0x210B JUMP JUMPDEST SWAP3 POP DUP3 PUSH32 0xFFFFFFFFFFFFFFFFFFFFFFFFFFFFFFFFFFFFFFFFFFFFFFFFFFFFFFFFFFFFFFFF SUB DUP3 GT ISZERO PUSH2 0x2031 JUMPI PUSH2 0x2030 PUSH2 0x2234 JUMP JUMPDEST JUMPDEST DUP3 DUP3 ADD SWAP1 POP SWAP3 SWAP2 POP POP JUMP JUMPDEST PUSH1 0x0 PUSH2 0x2047 DUP3 PUSH2 0x210B JUMP JUMPDEST SWAP2 POP PUSH2 0x2052 DUP4 PUSH2 0x210B JUMP JUMPDEST SWAP3 POP DUP3 PUSH2 0x2062 JUMPI PUSH2 0x2061 PUSH2 0x2263 JUMP JUMPDEST JUMPDEST DUP3 DUP3 DIV SWAP1 POP SWAP3 SWAP2 POP POP JUMP JUMPDEST PUSH1 0x0 PUSH2 0x2078 DUP3 PUSH2 0x210B JUMP JUMPDEST SWAP2 POP PUSH2 0x2083 DUP4 PUSH2 0x210B JUMP JUMPDEST SWAP3 POP DUP3 DUP3 LT ISZERO PUSH2 0x2096 JUMPI PUSH2 0x2095 PUSH2 0x2234 JUMP JUMPDEST JUMPDEST DUP3 DUP3 SUB SWAP1 POP SWAP3 SWAP2 POP POP JUMP JUMPDEST PUSH1 0x0 PUSH2 0x20AC DUP3 PUSH2 0x20EB JUMP JUMPDEST SWAP1 POP SWAP2 SWAP1 POP JUMP JUMPDEST PUSH1 0x0 DUP2 ISZERO ISZERO SWAP1 POP SWAP2 SWAP1 POP JUMP JUMPDEST PUSH1 0x0 PUSH32 0xFFFFFFFF00000000000000000000000000000000000000000000000000000000 DUP3 AND SWAP1 POP SWAP2 SWAP1 POP JUMP JUMPDEST PUSH1 0x0 PUSH20 0xFFFFFFFFFFFFFFFFFFFFFFFFFFFFFFFFFFFFFFFF DUP3 AND SWAP1 POP SWAP2 SWAP1 POP JUMP JUMPDEST PUSH1 0x0 DUP2 SWAP1 POP SWAP2 SWAP1 POP JUMP JUMPDEST DUP3 DUP2 DUP4 CALLDATACOPY PUSH1 0x0 DUP4 DUP4 ADD MSTORE POP POP POP JUMP JUMPDEST PUSH1 0x0 JUMPDEST DUP4 DUP2 LT ISZERO PUSH2 0x2142 JUMPI DUP1 DUP3 ADD MLOAD DUP2 DUP5 ADD MSTORE PUSH1 0x20 DUP2 ADD SWAP1 POP PUSH2 0x2127 JUMP JUMPDEST DUP4 DUP2 GT ISZERO PUSH2 0x2151 JUMPI PUSH1 0x0 DUP5 DUP5 ADD MSTORE JUMPDEST POP POP POP POP JUMP JUMPDEST PUSH1 0x0 PUSH1 0x2 DUP3 DIV SWAP1 POP PUSH1 0x1 DUP3 AND DUP1 PUSH2 0x216F JUMPI PUSH1 0x7F DUP3 AND SWAP2 POP JUMPDEST PUSH1 0x20 DUP3 LT DUP2 EQ ISZERO PUSH2 0x2183 JUMPI PUSH2 0x2182 PUSH2 0x2292 JUMP JUMPDEST JUMPDEST POP SWAP2 SWAP1 POP JUMP JUMPDEST PUSH2 0x2192 DUP3 PUSH2 0x22F0 JUMP JUMPDEST DUP2 ADD DUP2 DUP2 LT PUSH8 0xFFFFFFFFFFFFFFFF DUP3 GT OR ISZERO PUSH2 0x21B1 JUMPI PUSH2 0x21B0 PUSH2 0x22C1 JUMP JUMPDEST JUMPDEST DUP1 PUSH1 0x40 MSTORE POP POP POP JUMP JUMPDEST PUSH1 0x0 PUSH2 0x21C5 DUP3 PUSH2 0x210B JUMP JUMPDEST SWAP2 POP PUSH32 0xFFFFFFFFFFFFFFFFFFFFFFFFFFFFFFFFFFFFFFFFFFFFFFFFFFFFFFFFFFFFFFFF DUP3 EQ ISZERO PUSH2 0x21F8 JUMPI PUSH2 0x21F7 PUSH2 0x2234 JUMP JUMPDEST JUMPDEST PUSH1 0x1 DUP3 ADD SWAP1 POP SWAP2 SWAP1 POP JUMP JUMPDEST PUSH1 0x0 PUSH2 0x220E DUP3 PUSH2 0x210B JUMP JUMPDEST SWAP2 POP PUSH2 0x2219 DUP4 PUSH2 0x210B JUMP JUMPDEST SWAP3 POP DUP3 PUSH2 0x2229 JUMPI PUSH2 0x2228 PUSH2 0x2263 JUMP JUMPDEST JUMPDEST DUP3 DUP3 MOD SWAP1 POP SWAP3 SWAP2 POP POP JUMP JUMPDEST PUSH32 0x4E487B7100000000000000000000000000000000000000000000000000000000 PUSH1 0x0 MSTORE PUSH1 0x11 PUSH1 0x4 MSTORE PUSH1 0x24 PUSH1 0x0 REVERT JUMPDEST PUSH32 0x4E487B7100000000000000000000000000000000000000000000000000000000 PUSH1 0x0 MSTORE PUSH1 0x12 PUSH1 0x4 MSTORE PUSH1 0x24 PUSH1 0x0 REVERT JUMPDEST PUSH32 0x4E487B7100000000000000000000000000000000000000000000000000000000 PUSH1 0x0 MSTORE PUSH1 0x22 PUSH1 0x4 MSTORE PUSH1 0x24 PUSH1 0x0 REVERT JUMPDEST PUSH32 0x4E487B7100000000000000000000000000000000000000000000000000000000 PUSH1 0x0 MSTORE PUSH1 0x41 PUSH1 0x4 MSTORE PUSH1 0x24 PUSH1 0x0 REVERT JUMPDEST PUSH1 0x0 PUSH1 0x1F NOT PUSH1 0x1F DUP4 ADD AND SWAP1 POP SWAP2 SWAP1 POP JUMP JUMPDEST PUSH32 0x4552433732313A207472616E7366657220746F206E6F6E204552433732315265 PUSH1 0x0 DUP3 ADD MSTORE PUSH32 0x63656976657220696D706C656D656E7465720000000000000000000000000000 PUSH1 0x20 DUP3 ADD MSTORE POP JUMP JUMPDEST PUSH32 0x4552433732313A207472616E736665722066726F6D20696E636F727265637420 PUSH1 0x0 DUP3 ADD MSTORE PUSH32 0x6F776E6572000000000000000000000000000000000000000000000000000000 PUSH1 0x20 DUP3 ADD MSTORE POP JUMP JUMPDEST PUSH32 0x4552433732313A20746F6B656E20616C7265616479206D696E74656400000000 PUSH1 0x0 DUP3 ADD MSTORE POP JUMP JUMPDEST PUSH32 0x4552433732313A207472616E7366657220746F20746865207A65726F20616464 PUSH1 0x0 DUP3 ADD MSTORE PUSH32 0x7265737300000000000000000000000000000000000000000000000000000000 PUSH1 0x20 DUP3 ADD MSTORE POP JUMP JUMPDEST PUSH32 0x4552433732313A20617070726F766520746F2063616C6C657200000000000000 PUSH1 0x0 DUP3 ADD MSTORE POP JUMP JUMPDEST PUSH32 0x4552433732313A206F70657261746F7220717565727920666F72206E6F6E6578 PUSH1 0x0 DUP3 ADD MSTORE PUSH32 0x697374656E7420746F6B656E0000000000000000000000000000000000000000 PUSH1 0x20 DUP3 ADD MSTORE POP JUMP JUMPDEST PUSH32 0x4552433732313A20617070726F76652063616C6C6572206973206E6F74206F77 PUSH1 0x0 DUP3 ADD MSTORE PUSH32 0x6E6572206E6F7220617070726F76656420666F7220616C6C0000000000000000 PUSH1 0x20 DUP3 ADD MSTORE POP JUMP JUMPDEST PUSH32 0x4552433732313A2062616C616E636520717565727920666F7220746865207A65 PUSH1 0x0 DUP3 ADD MSTORE PUSH32 0x726F206164647265737300000000000000000000000000000000000000000000 PUSH1 0x20 DUP3 ADD MSTORE POP JUMP JUMPDEST PUSH32 0x4552433732313A206F776E657220717565727920666F72206E6F6E6578697374 PUSH1 0x0 DUP3 ADD MSTORE PUSH32 0x656E7420746F6B656E0000000000000000000000000000000000000000000000 PUSH1 0x20 DUP3 ADD MSTORE POP JUMP JUMPDEST PUSH32 0x4552433732313A206D696E7420746F20746865207A65726F2061646472657373 PUSH1 0x0 DUP3 ADD MSTORE POP JUMP JUMPDEST PUSH32 0x4552433732313A20617070726F76656420717565727920666F72206E6F6E6578 PUSH1 0x0 DUP3 ADD MSTORE PUSH32 0x697374656E7420746F6B656E0000000000000000000000000000000000000000 PUSH1 0x20 DUP3 ADD MSTORE POP JUMP JUMPDEST PUSH32 0x4552433732314D657461646174613A2055524920717565727920666F72206E6F PUSH1 0x0 DUP3 ADD MSTORE PUSH32 0x6E6578697374656E7420746F6B656E0000000000000000000000000000000000 PUSH1 0x20 DUP3 ADD MSTORE POP JUMP JUMPDEST PUSH32 0x4552433732313A20617070726F76616C20746F2063757272656E74206F776E65 PUSH1 0x0 DUP3 ADD MSTORE PUSH32 0x7200000000000000000000000000000000000000000000000000000000000000 PUSH1 0x20 DUP3 ADD MSTORE POP JUMP JUMPDEST PUSH32 0x4552433732313A207472616E736665722063616C6C6572206973206E6F74206F PUSH1 0x0 DUP3 ADD MSTORE PUSH32 0x776E6572206E6F7220617070726F766564000000000000000000000000000000 PUSH1 0x20 DUP3 ADD MSTORE POP JUMP JUMPDEST PUSH2 0x26EA DUP2 PUSH2 0x20A1 JUMP JUMPDEST DUP2 EQ PUSH2 0x26F5 JUMPI PUSH1 0x0 DUP1 REVERT JUMPDEST POP JUMP JUMPDEST PUSH2 0x2701 DUP2 PUSH2 0x20B3 JUMP JUMPDEST DUP2 EQ PUSH2 0x270C JUMPI PUSH1 0x0 DUP1 REVERT JUMPDEST POP JUMP JUMPDEST PUSH2 0x2718 DUP2 PUSH2 0x20BF JUMP JUMPDEST DUP2 EQ PUSH2 0x2723 JUMPI PUSH1 0x0 DUP1 REVERT JUMPDEST POP JUMP JUMPDEST PUSH2 0x272F DUP2 PUSH2 0x210B JUMP JUMPDEST DUP2 EQ PUSH2 0x273A JUMPI PUSH1 0x0 DUP1 REVERT JUMPDEST POP JUMP INVALID LOG2 PUSH5 0x6970667358 0x22 SLT KECCAK256 OR 0x1E SIGNEXTEND EQ CALLVALUE NUMBER 0xC9 SWAP1 SELFDESTRUCT PUSH3 0x7814A1 0xEA MOD 0xEE PUSH31 0x34D7161FF1925F921C55F7A49E748D64736F6C634300080100330000000000 "
				},
				"gasEstimates": {
					"creation": {
						"codeDepositCost": "2019800",
						"executionCost": "infinite",
						"totalCost": "infinite"
					},
					"external": {
						"approve(address,uint256)": "infinite",
						"balanceOf(address)": "1624",
						"getApproved(uint256)": "2628",
						"isApprovedForAll(address,address)": "infinite",
						"name()": "infinite",
						"ownerOf(uint256)": "1700",
						"safeTransferFrom(address,address,uint256)": "infinite",
						"safeTransferFrom(address,address,uint256,bytes)": "infinite",
						"sendNFT(address)": "infinite",
						"setApprovalForAll(address,bool)": "infinite",
						"supportsInterface(bytes4)": "797",
						"symbol()": "infinite",
						"tokenURI(uint256)": "2095",
						"transferFrom(address,address,uint256)": "infinite"
					}
				},
				"methodIdentifiers": {
					"approve(address,uint256)": "095ea7b3",
					"balanceOf(address)": "70a08231",
					"getApproved(uint256)": "081812fc",
					"isApprovedForAll(address,address)": "e985e9c5",
					"name()": "06fdde03",
					"ownerOf(uint256)": "6352211e",
					"safeTransferFrom(address,address,uint256)": "42842e0e",
					"safeTransferFrom(address,address,uint256,bytes)": "b88d4fde",
					"sendNFT(address)": "4142e328",
					"setApprovalForAll(address,bool)": "a22cb465",
					"supportsInterface(bytes4)": "01ffc9a7",
					"symbol()": "95d89b41",
					"tokenURI(uint256)": "c87b56dd",
					"transferFrom(address,address,uint256)": "23b872dd"
				}
			},
			"storageLayout": {
				"storage": [
					{
						"astId": 25,
						"contract": "contracts/nft.sol:erc721",
						"label": "_name",
						"offset": 0,
						"slot": "0",
						"type": "t_string_storage"
					},
					{
						"astId": 27,
						"contract": "contracts/nft.sol:erc721",
						"label": "_symbol",
						"offset": 0,
						"slot": "1",
						"type": "t_string_storage"
					},
					{
						"astId": 31,
						"contract": "contracts/nft.sol:erc721",
						"label": "_owners",
						"offset": 0,
						"slot": "2",
						"type": "t_mapping(t_uint256,t_address)"
					},
					{
						"astId": 35,
						"contract": "contracts/nft.sol:erc721",
						"label": "_balances",
						"offset": 0,
						"slot": "3",
						"type": "t_mapping(t_address,t_uint256)"
					},
					{
						"astId": 39,
						"contract": "contracts/nft.sol:erc721",
						"label": "_tokenApprovals",
						"offset": 0,
						"slot": "4",
						"type": "t_mapping(t_uint256,t_address)"
					},
					{
						"astId": 45,
						"contract": "contracts/nft.sol:erc721",
						"label": "_operatorApprovals",
						"offset": 0,
						"slot": "5",
						"type": "t_mapping(t_address,t_mapping(t_address,t_bool))"
					},
					{
						"astId": 1669,
						"contract": "contracts/nft.sol:erc721",
						"label": "_tokensIds",
						"offset": 0,
						"slot": "6",
						"type": "t_struct(Counter)1349_storage"
					}
				],
				"types": {
					"t_address": {
						"encoding": "inplace",
						"label": "address",
						"numberOfBytes": "20"
					},
					"t_bool": {
						"encoding": "inplace",
						"label": "bool",
						"numberOfBytes": "1"
					},
					"t_mapping(t_address,t_bool)": {
						"encoding": "mapping",
						"key": "t_address",
						"label": "mapping(address => bool)",
						"numberOfBytes": "32",
						"value": "t_bool"
					},
					"t_mapping(t_address,t_mapping(t_address,t_bool))": {
						"encoding": "mapping",
						"key": "t_address",
						"label": "mapping(address => mapping(address => bool))",
						"numberOfBytes": "32",
						"value": "t_mapping(t_address,t_bool)"
					},
					"t_mapping(t_address,t_uint256)": {
						"encoding": "mapping",
						"key": "t_address",
						"label": "mapping(address => uint256)",
						"numberOfBytes": "32",
						"value": "t_uint256"
					},
					"t_mapping(t_uint256,t_address)": {
						"encoding": "mapping",
						"key": "t_uint256",
						"label": "mapping(uint256 => address)",
						"numberOfBytes": "32",
						"value": "t_address"
					},
					"t_string_storage": {
						"encoding": "bytes",
						"label": "string",
						"numberOfBytes": "32"
					},
					"t_struct(Counter)1349_storage": {
						"encoding": "inplace",
						"label": "struct Counters.Counter",
						"members": [
							{
								"astId": 1348,
								"contract": "contracts/nft.sol:erc721",
								"label": "_value",
								"offset": 0,
								"slot": "0",
								"type": "t_uint256"
							}
						],
						"numberOfBytes": "32"
					},
					"t_uint256": {
						"encoding": "inplace",
						"label": "uint256",
						"numberOfBytes": "32"
					}
				}
			},
			"userdoc": {
				"kind": "user",
				"methods": {},
				"version": 1
			}
		}
	}
}